:100000000C942A000C94F60A0C942A0B0C945E0BA8
:100010000C9447000C9447000C9447000C94470044
:100020000C9447000C9447000C9447000C94470034
:100030000C9447000C9447000C9447000C94470024
:100040000C9440070C9447000C9447000C94470014
:100050000C94470011241FBECFE5D8E0DEBFCDBF12
:1000600010E0A8E6B0E001C01D92A137B107E1F7AA
:1000700010E0A0E6B0E0E8E5F2E302C005900D92E2
:10008000A836B107D9F70E948A180C942A190C9443
:100090000000EF92FF920F931F937B018C0120E0F1
:1000A00030E040E05FE40E94F50388238CF0C80153
:1000B000B70120E030E040E05FE40E94C1010E940F
:1000C00055049B01AC01205030404040504806C0D0
:1000D000C801B7010E9455049B01AC01B901CA01D6
:1000E0001F910F91FF90EF900895A0E0B0E0EBE733
:1000F000F0E00C94AE18DC012B01FA019C919230D7
:1001000008F439C1EB018881823008F433C194309E
:1001100069F4843009F02FC111969C91119789815F
:10012000981709F428C1A0E6B0E025C1843009F48D
:1001300021C18230A9F4923009F01DC19A01AD01AC
:1001400088E0EA010990AE01E90109929E0181501F
:10015000C1F7E201898111969C918923818308C1AD
:10016000923009F407C112962D903C901397EB0141
:100170008A819B811496AD90BD90CD90DC901797AD
:10018000EC80FD800E811F819101281B390BB90184
:1001900037FF04C066277727621B730B6032710537
:1001A0000CF061C0121613066CF537014801062EDB
:1001B00004C096948794779467940A94D2F721E0C8
:1001C00030E040E050E004C0220F331F441F551FB1
:1001D0006A95D2F721503040404050402E213F21B7
:1001E00040235123211531054105510521F021E01E
:1001F00030E040E050E079018A01E628F72808293C
:1002000019293CC0232BD1F1260E371E350146019A
:10021000062E04C096948794779467940A94D2F734
:1002200021E030E040E050E004C0220F331F441FC3
:10023000551F6A95D2F721503040404050402A2146
:100240003B214C215D21211531054105510521F04E
:1002500021E030E040E050E059016A01A628B728CB
:10026000C828D9280BC0821593052CF01C01AA249C
:10027000BB24650103C0EE24FF24870111969C91E5
:10028000D20111968C91981709F445C0992339F041
:10029000A80197012A193B094C095D0906C0A6016E
:1002A00095012E193F09400B510B57FD08C01182D3
:1002B0003382228224833583468357831DC081E0A5
:1002C00081833382228288279927DC01821B930B4A
:1002D000A40BB50B84839583A683B7830DC0220F2F
:1002E000331F441F551F24833583468357838281E0
:1002F000938101979383828324813581468157813D
:10030000DA01C9010197A109B1098F5F9F4FAF4F72
:10031000BF4328F30BC0918333822282EA0CFB1C7B
:100320000C1D1D1DE482F5820683178383E0808304
:10033000248135814681578157FF1AC0C901AA27F8
:1003400097FDA095BA2F81709070A070B0705695EF
:10035000479537952795822B932BA42BB52B848318
:100360009583A683B7838281938101969383828349
:10037000DF0101C0D201CD01CDB7DEB7E2E10C94BF
:10038000CA18A0E2B0E0E7ECF1E00C94BA18698377
:100390007A838B839C832D833E834F835887E9E048
:1003A000EE2EF12CEC0EFD1ECE010196B7010E943F
:1003B0007E058E010F5E1F4FCE010596B8010E948B
:1003C0007E058A8991E089278A8BC701B801AE0131
:1003D000475E5F4F0E9475000E94A904A096E6E068
:1003E0000C94D618A0E2B0E0E8EFF1E00C94BA1853
:1003F00069837A838B839C832D833E834F835887C5
:10040000F9E0EF2EF12CEC0EFD1ECE010196B701A6
:100410000E947E058E010F5E1F4FCE010596B8012A
:100420000E947E05C701B801AE01475E5F4F0E9482
:1004300075000E94A904A096E6E00C94D618A0E2EC
:10044000B0E0E5E2F2E00C94AE1869837A838B8326
:100450009C832D833E834F835887CE010196BE0136
:10046000675F7F4F0E947E05CE010596BE016F5EDD
:100470007F4F0E947E059985923088F0898982306D
:10048000C8F0943019F4823051F404C0843029F457
:10049000923081F480E690E0C6C0923049F420E0CA
:1004A0009A858A89981321E02A87CE010996BBC0D4
:1004B000823049F420E09A858A89981321E02A8BBA
:1004C000CE014196B0C02D843E844F8458886D88FB
:1004D0007E888F88988CEE24FF248701AA24BB2471
:1004E000650140E050E060E070E0E0E0F0E0C10174
:1004F00081709070892BE9F0E60CF71C081D191D1E
:100500009A01AB012A0D3B1D4C1D5D1D80E090E062
:10051000A0E0B0E0E614F7040805190520F481E036
:1005200090E0A0E0B0E0BA01A901480F591F6A1F8E
:100530007B1FAA0CBB1CCC1CDD1C97FE08C081E0F5
:1005400090E0A0E0B0E0A82AB92ACA2ADB2A3196B6
:10055000E032F10549F0660C771C881C991C569412
:10056000479437942794C3CFFA85EA892B893C892D
:100570008B859C85280F391F2E5F3F4F17C0CA01FE
:1005800081709070892B61F016950795F794E79428
:1005900080E090E0A0E0B0E8E82AF92A0A2B1B2BC3
:1005A00076956795579547952F5F3F4F77FDE7CF36
:1005B0000CC0440F551F661F771F17FD4160EE0CDE
:1005C000FF1C001F111F21503040403090E05907A0
:1005D00090E0690790E4790760F32B8F3C8FDB0193
:1005E000CA018F779070A070B07080349105A1051A
:1005F000B10561F447FD0AC0E114F10401051105DC
:1006000029F0405C5F4F6F4F7F4F40781A8EFE1786
:1006100011F081E08A8F4D8F5E8F6F8F78A383E01A
:10062000898FCE0149960E94A904A096E2E10C941C
:10063000CA18A8E1B0E0EFE1F3E00C94B6186983C2
:100640007A838B839C832D833E834F835887B9E0C5
:10065000EB2EF12CEC0EFD1ECE010196B7010E948F
:100660007E058E010F5E1F4FCE010596B8010E94D8
:100670007E052985223008F47EC03989323010F495
:10068000B8017CC08A859A8989278A87243011F02D
:10069000223031F4231709F06EC060E670E06EC0BE
:1006A000343039F41D861E861F86188A1C861B86E8
:1006B00004C0323021F484E08987B7015FC02B8504
:1006C0003C858B899C89281B390B3C872B87ED84C3
:1006D000FE840F851889AD88BE88CF88D88CEA142F
:1006E000FB040C051D0540F4EE0CFF1C001F111F40
:1006F000215030403C872B8720E030E040E050E044
:1007000080E090E0A0E0B0E460E070E0EA14FB0478
:100710000C051D0540F0282B392B4A2B5B2BEA18C2
:10072000FB080C091D09B695A79597958795EE0CC2
:10073000FF1C001F111F6F5F7F4F6F31710531F775
:10074000DA01C9018F779070A070B0708034910584
:10075000A105B10561F427FD0AC0E114F10401050A
:10076000110529F0205C3F4F4F4F5F4F20782D87B8
:100770003E874F87588BBE01675F7F4FCB010E943A
:10078000A9046896EAE00C94D218A8E1B0E0EBEC7A
:10079000F3E00C94BA1869837A838B839C832D834E
:1007A0003E834F83588789E0E82EF12CEC0EFD1E26
:1007B000CE010196B7010E947E058E010F5E1F4F8C
:1007C000CE010596B8010E947E058985823040F0F1
:1007D0008989823028F0C701B8010E94F60501C05E
:1007E0008FEF6896E6E00C94D618A8E1B0E0EBEF46
:1007F000F3E00C94BA1869837A838B839C832D83EE
:100800003E834F83588789E0E82EF12CEC0EFD1EC5
:10081000CE010196B7010E947E058E010F5E1F4F2B
:10082000CE010596B8010E947E058985823040F090
:100830008989823028F0C701B8010E94F60501C0FD
:100840008FEF6896E6E00C94D618A8E1B0E0EBE2F2
:10085000F4E00C94BA1869837A838B839C832D838C
:100860003E834F83588789E0E82EF12CEC0EFD1E65
:10087000CE010196B7010E947E058E010F5E1F4FCB
:10088000CE010596B8010E947E058985823040F030
:100890008989823028F0C701B8010E94F60501C09D
:1008A00081E06896E6E00C94D618ACE0B0E0EBE5A9
:1008B000F4E00C94BE1869837A838B839C83CE0109
:1008C0000196BE016B5F7F4F0E947E058D81823055
:1008D00061F1823050F1843021F48E81882351F10E
:1008E0002EC02F81388537FD20C06E812F31310514
:1008F0001CF06623F9F023C08EE190E0821B930B7D
:1009000029853A854B855C8504C056954795379572
:1009100027958A95D2F76623B1F05095409530958A
:1009200021953F4F4F4F5F4F0EC020E030E040E039
:1009300050E009C02FEF3FEF4FEF5FE704C020E02A
:1009400030E040E050E8B901CA012C96E2E00C9496
:10095000DA18DF92EF92FF920F931F93FC01E4806D
:10096000F58006811781D1808081823048F480E053
:1009700090E0A0E1B0E0E82AF92A0A2B1B2BA5C0E1
:10098000843009F49FC0823021F4EE24FF248701D3
:1009900005C0E114F1040105110519F4E0E0F0E0EF
:1009A00096C0628173819FEF623879070CF05BC05B
:1009B00022E83FEF261B370B2A3131052CF020E0CF
:1009C00030E040E050E02AC0B801A701022E04C088
:1009D00076956795579547950A94D2F781E090E010
:1009E000A0E0B0E004C0880F991FAA1FBB1F2A9582
:1009F000D2F70197A109B1098E219F21A023B1232C
:100A00000097A105B10521F081E090E0A0E0B0E001
:100A10009A01AB01282B392B4A2B5B2BDA01C90138
:100A20008F779070A070B07080349105A105B105EA
:100A300039F427FF09C0205C3F4F4F4F5F4F04C080
:100A4000215C3F4F4F4F5F4FE0E0F0E02030A0E0EF
:100A50003A07A0E04A07A0E45A0710F0E1E0F0E00E
:100A600079018A0127C06038710564F5FB01E158FE
:100A7000FF4FD801C7018F779070A070B07080349D
:100A80009105A105B10539F4E7FE0DC080E490E0C1
:100A9000A0E0B0E004C08FE390E0A0E0B0E0E80E9A
:100AA000F91E0A1F1B1F17FF05C016950795F7941F
:100AB000E794319687E016950795F794E7948A9521
:100AC000D1F705C0EE24FF248701EFEFF0E06E2F91
:100AD000679566276795902F9F77D794DD24D794E5
:100AE0008E2F8695492F462B582F5D29B701CA01B5
:100AF0001F910F91FF90EF90DF900895FC01DB01B3
:100B0000408151812281622F6F7770E0221F22275E
:100B1000221F9381892F880F822B282F30E0991F65
:100B20009927991F11969C93119721153105A9F5C5
:100B3000411551056105710511F482E037C082E865
:100B40009FEF13969C938E9312979A01AB0167E0E7
:100B5000220F331F441F551F6A95D1F783E08C93F2
:100B60000DC0220F331F441F551F12968D919C916B
:100B70001397019713969C938E931297203080E0E1
:100B8000380780E0480780E4580758F314962D93FF
:100B90003D934D935C93179708952F3F310579F45A
:100BA000411551056105710519F484E08C93089590
:100BB00064FF03C081E08C9312C01C9210C02F57B9
:100BC000304013963C932E93129783E08C9387E0EA
:100BD000440F551F661F771F8A95D1F770641496CE
:100BE0004D935D936D937C93179708951F93DC014C
:100BF000FB019C91923008F447C08081823008F458
:100C000043C0943051F411961C91843099F5818140
:100C1000682F70E0611B71093FC0843021F0923071
:100C200031F48230B9F18181882389F12DC0119688
:100C30001C9111978230F1F081811817D9F4129626
:100C40002D913C911397828193818217930794F0A1
:100C500028173907BCF014968D919D910D90BC9189
:100C6000A02D2481358146815781281739074A07ED
:100C70005B0718F4112341F00AC082179307A407F9
:100C8000B50740F4112319F061E070E005C06FEF83
:100C90007FEF02C060E070E0CB011F910895DF9309
:100CA000CF9300D0CDB7DEB79A838983A4E2B0E0BA
:100CB000E4E2F0E08381282F2F73E981FA818081BB
:100CC000882F90E0002496958795079496958795B0
:100CD0000794982F802D822B13968C93A4E2B0E07A
:100CE000E4E2F0E08281982F987FE981FA818181A6
:100CF000892B12968C93A4E2B0E0E4E2F0E08281CA
:100D0000806812968C931297E981FA8184818130F0
:100D1000A1F4A4E2B0E0E981FA818481817081705C
:100D2000982F9295990F907E13968C9113978F7DA3
:100D3000892B13968C93139718C0E981FA818481CB
:100D4000882399F4A4E2B0E0E981FA81848181707A
:100D50008170982F9295990F907E13968C9113978E
:100D60008F7D892B13968C931397E981FA81828169
:100D7000813099F4A4E2B0E0E981FA818281817046
:100D80008170982F9295990F907E12968C91129760
:100D90008F7D892B12968C9312970F900F90CF9185
:100DA000DF910895DF93CF930F92CDB7DEB789839C
:100DB000A4E2B0E0E4E2F0E08381807E13968C93BD
:100DC000A4E2B0E0E4E2F0E093818981892B1396FC
:100DD0008C93A4E2B0E0E4E2F0E0828180641296B9
:100DE0008C931297E4E2F0E082818071882349F4C9
:100DF000A4E2B0E0E4E2F0E08281806112968C939C
:100E00001297E4E2F0E0808191810F90CF91DF9121
:100E10000895DF93CF9300D00F92CDB7DEB78983CB
:100E20007B836A83A4E2B0E0E4E2F0E08381807E29
:100E300013968C93A4E2B0E0E4E2F0E09381898120
:100E4000892B13968C93AFE5B0E0EFE5F0E080815D
:100E500080688C93E4E2F0E0828188608283E4E23F
:100E6000F0E08281806482838A819B8190936A0012
:100E7000809369000F900F900F90CF91DF910895AC
:100E80001F920F920FB60F9211242F933F934F93FF
:100E90005F936F937F938F939F93AF93BF93EF93E2
:100EA000FF93DF93CF93CDB7DEB7AFE5B0E0EFE5CB
:100EB000F0E080818F778C93E0916900F0916A0077
:100EC0000995E4E2F0E082818F7E8283CF91DF9109
:100ED000FF91EF91BF91AF919F918F917F916F9112
:100EE0005F914F913F912F910F900FBE0F901F90E8
:100EF0001895DF93CF9300D000D000D0CDB7DEB7E8
:100F00009A8389836B834C838B81282F30E03E83C7
:100F10002D838D819E818330910509F451C02D81EF
:100F20003E81243031057CF48D819E818130910594
:100F300071F12D813E8122303105ACF58D819E818C
:100F40000097D1F081C02D813E812530310509F413
:100F500052C08D819E81853091050CF43FC02D815A
:100F60003E812630310509F454C08D819E81873041
:100F7000910509F45DC068C08C818170E981FA81B6
:100F8000982F917081818E7F892B81835DC08C81A8
:100F90008170E981FA818170982F990F81818D7F0D
:100FA000892B818351C08C818170E981FA818170A4
:100FB000982F990F990F81818B7F892B818344C052
:100FC0008C818170E981FA818170982F990F990F36
:100FD000990F8181877F892B818336C08C818170B5
:100FE000E981FA818170982F9295907F81818F7E1F
:100FF000892B818329C08C818170E981FA8181707C
:10100000982F9295990F907E81818F7D892B818376
:101010001BC08C818170E981FA818170982F929533
:10102000990F990F907C81818F7B892B81830CC0D4
:101030008C818170E981FA81982F979599279795EE
:1010400081818F77892B818326960FB6F894DEBF36
:101050000FBECDBFCF91DF910895DF93CF9300D026
:1010600000D000D0CDB7DEB79A8389836B834C83E1
:101070008B81282F30E03E832D838D819E818330AC
:10108000910509F451C02D813E81243031057CF455
:101090008D819E818130910571F12D813E812230BB
:1010A0003105ACF58D819E810097D1F081C02D81F5
:1010B0003E812530310509F452C08D819E818530F5
:1010C00091050CF43FC02D813E812630310509F495
:1010D00054C08D819E818730910509F45DC068C040
:1010E0008C818170E981FA81982F917082818E7F45
:1010F000892B82835DC08C818170E981FA81817046
:10110000982F990F82818D7F892B828351C08C818A
:101110008170E981FA818170982F990F990F8281EE
:101120008B7F892B828344C08C818170E981FA8115
:101130008170982F990F990F990F8281877F892B42
:10114000828336C08C818170E981FA818170982F09
:101150009295907F82818F7E892B828329C08C819A
:101160008170E981FA818170982F9295990F907E14
:1011700082818F7D892B82831BC08C818170E98164
:10118000FA818170982F9295990F990F907C8281A6
:101190008F7B892B82830CC08C818170E981FA81DD
:1011A000982F97959927979582818F77892B82839E
:1011B00026960FB6F894DEBF0FBECDBFCF91DF915C
:1011C0000895DF93CF9300D000D000D0CDB7DEB725
:1011D0009B838A836C8319828C81282F30E03E8325
:1011E0002D838D819E818330910509F43EC02D8130
:1011F0003E81243031057CF48D819E8181309105C2
:1012000029F12D813E81223031053CF58D819E8171
:101210000097B1F055C02D813E8125303105B1F1E7
:101220008D819E81853091054CF12D813E81263046
:101230003105A9F18D819E8187309105D1F140C0A2
:10124000EA81FB818081817089833AC0EA81FB81D8
:10125000808186958170898333C0EA81FB8180819A
:1012600086958695817089832BC0EA81FB81808178
:101270008695869586958170898322C0EA81FB8157
:10128000808182958F70817089831AC0EA81FB8189
:1012900080818295869587708170898311C0EA81EB
:1012A000FB81808182958695869583708170898384
:1012B00007C0EA81FB818081881F8827881F898376
:1012C000898126960FB6F894DEBF0FBECDBFCF91B1
:1012D000DF910895DF93CF9300D00F92CDB7DEB7A3
:1012E0009A8389836B83E981FA818B8181830F9053
:1012F0000F900F90CF91DF910895DF93CF9300D09F
:101300000F92CDB7DEB79A8389836B83E981FA8127
:101310008B8182830F900F900F90CF91DF91089572
:10132000DF93CF9300D0CDB7DEB79A838983E9816D
:10133000FA8180810F900F90CF91DF910895DF9314
:10134000CF9300D000D0CDB7DEB79A8389830E94B7
:10135000E80AA4E5B0E0E4E5F0E08781482FE98100
:10136000FA818181282F30E081E090E0022E02C0D6
:10137000880F991F0A94E2F7842B17968C9317977E
:10138000E981FA818181863051F4E981FA81818194
:10139000873029F4E981FA818181853011F010923A
:1013A0006800A4E5B0E0E4E5F0E08781482FE9813A
:1013B000FA818181282F30E081E090E002C0880F1F
:1013C000991F2A95E2F7842B17968C931797E9813A
:1013D000FA818181282F30E03C832B838B819C8193
:1013E0008630910561F02B813C812730310539F140
:1013F0008B819C818530910509F448C070C0A4E5BB
:10140000B0E0E4E5F0E081818C7F11968C93A4E557
:10141000B0E0E4E5F0E09181E981FA818081892BF7
:1014200011968C931197E981FA818281938190932F
:101430006C0080936B0082E08093680050C0A4E54C
:10144000B0E0E4E5F0E08181837F11968C93A4E520
:10145000B0E0E4E5F0E08181282FE981FA81808124
:10146000882F90E0880F991F880F991F822B119663
:101470008C931197E981FA818281938190936E0018
:1014800080936D0082E08093680029C0A4E5B0E0FD
:10149000E4E5F0E080818F7D8C93A4E5B0E0E4E5A5
:1014A000F0E08081282FE981FA818081882F90E007
:1014B00002970024969587950794969587950794AB
:1014C000982F802D822B8C93E981FA8182819381E0
:1014D0009093700080936F0082E0809368000E9478
:1014E000DA0A809168000F900F900F900F90CF91C3
:1014F000DF910895DF93CF9300D000D0CDB7DEB752
:101500009A838983E981FA818181863051F4E98166
:10151000FA818181873029F4E981FA8181818530DE
:1015200019F0109268003DC0E981FA818181282F6D
:1015300030E03C832B838B819C818630910559F070
:101540002B813C812730310599F08B819C8185303E
:101550009105D9F026C0A4E5B0E0E4E5F0E087818C
:10156000807817968C93179782E08093680019C053
:10157000A4E5B0E0E4E5F0E087818F7717968C93DF
:10158000179782E0809368000CC0A4E5B0E0E4E522
:10159000F0E08781807C17968C93179782E0809388
:1015A0006800809168000F900F900F900F90CF917E
:1015B000DF910895DF93CF93CDB7DEB7AFE5B0E00D
:1015C000EFE5F0E0808180688C93CF91DF91089502
:1015D000DF93CF93CDB7DEB7AFE5B0E0EFE5F0E056
:1015E00080818F778C93CF91DF9108951F920F9216
:1015F0000FB60F9211242F933F934F935F936F93E6
:101600007F938F939F93AF93BF93EF93FF93DF935A
:10161000CF93CDB7DEB7AFE5B0E0EFE5F0E0808186
:101620008F778C93E0916B00F0916C000995CF91CE
:10163000DF91FF91EF91BF91AF919F918F917F913A
:101640006F915F914F913F912F910F900FBE0F902F
:101650001F9018951F920F920FB60F9211242F937F
:101660003F934F935F936F937F938F939F93AF932A
:10167000BF93EF93FF93DF93CF93CDB7DEB7AFE583
:10168000B0E0EFE5F0E080818F778C93E0916D0022
:10169000F0916E000995CF91DF91FF91EF91BF918D
:1016A000AF919F918F917F916F915F914F913F91FA
:1016B0002F910F900FBE0F901F9018951F920F92B1
:1016C0000FB60F9211242F933F934F935F936F9315
:1016D0007F938F939F93AF93BF93EF93FF93DF938A
:1016E000CF93CDB7DEB7AFE5B0E0EFE5F0E08081B6
:1016F0008F778C93E0916F00F09170000995CF91F6
:10170000DF91FF91EF91BF91AF919F918F917F9169
:101710006F915F914F913F912F910F900FBE0F905E
:101720001F901895DF93CF9300D000D0CDB7DEB7D0
:101730009A838983E981FA818081282F30E03C8374
:101740002B838B819C8181309105A9F12B813C8178
:10175000223031052CF48B819C81009769F072C096
:101760002B813C8122303105D9F18B819C818330E2
:10177000910509F454C066C0E2E5F0E0818180681B
:101780008183E2E5F0E08181877F8183E2E5F0E01B
:1017900081818F7B8183A2E5B0E0E981FA8181813B
:1017A0008295807F11968C93A2E5B0E0E981FA8161
:1017B00085818C9347C0E2E5F0E08181877F81835A
:1017C000E2E5F0E0818180648183A2E5B0E0E98117
:1017D000FA8183818295807F11968C93119732C014
:1017E000E2E5F0E0818180688183E2E5F0E08181DB
:1017F00088608183E2E5F0E081818F7B8183A2E5CF
:10180000B0E0E981FA8181818295807F11968C9385
:10181000A2E5B0E0E981FA8185818C9313C0E2E50D
:10182000F0E0818188608183E2E5F0E0818180647D
:101830008183A2E5B0E0E981FA8182818295807F8F
:1018400011968C93A2E5B0E0E2E5F0E08181982F5B
:10185000987FE981FA8184818770892B11968C9316
:1018600011970F900F900F900F90CF91DF910895E7
:10187000DF93CF9300D0CDB7DEB79A838983A2E5FB
:10188000B0E0E2E5F0E08181982F987FE981FA816C
:1018900084818770892B11968C9311970F900F90EC
:1018A000CF91DF910895DF93CF9300D0CDB7DEB70E
:1018B0009A838983A2E5B0E0E2E5F0E08181887F48
:1018C00011968C9311970F900F90CF91DF910895FF
:1018D000DF93CF9300D0CDB7DEB79A838983E2E55B
:1018E000F0E08081E981FA818583E981FA8185814F
:1018F0000F900F90CF91DF9108950F931F93DF9377
:10190000CF93CDB7DEB7CE55D0400FB6F894DEBF3B
:101910000FBECDBF89E390E063E041E00E9479070C
:1019200089E390E062E041E00E94790786E390E07D
:1019300060E041E00E94790786E390E061E041E0E9
:101940000E94790786E390E062E041E00E94790717
:1019500086E390E064E041E00E947907FE01E55AE9
:10196000FF4F80E090E0A8E4B2E480839183A283FB
:10197000B3838E01095A1F4FFE01E55AFF4F608164
:1019800071818281938120E030E04AE755E40E9432
:101990001F02DC01CB01F80180839183A283B38312
:1019A000FE01E95AFF4F608171818281938120E0BD
:1019B00030E040E85FE30E942504882344F4FE0100
:1019C000EB5AFF4F81E090E09183808364C0FE0179
:1019D000E95AFF4F608171818281938120E03FEF5E
:1019E0004FE757E40E94C50318160CF043C0FE01F0
:1019F000E55AFF4F608171818281938120E030E060
:101A000040E251E40E941F02DC01CB018E010B5A1F
:101A10001F4FBC01CD010E944900DC01CB01F80140
:101A2000918380831FC0FE01ED5AFF4F80E991E052
:101A300091838083FE01ED5AFF4F80819181019750
:101A4000F1F7FE01ED5AFF4F91838083DE01AB5A1F
:101A5000BF4FFE01EB5AFF4F808191810197119694
:101A60009C938E93FE01EB5AFF4F808191810097EA
:101A7000D1F627C08E010B5A1F4FFE01E95AFF4FC6
:101A800060817181828193810E944900DC01CB01D8
:101A9000F80191838083DE01AF5ABF4FFE01EB5AFC
:101AA000FF4F808191818D939C93FE01EF5AFF4FF0
:101AB000808191810197F1F7FE01EF5AFF4F9183E9
:101AC000808389E390E063E040E00E942D0886E394
:101AD00090E060E040E00E942D0886E390E061E045
:101AE00041E00E942D0886E390E062E040E00E9421
:101AF0002D0886E390E064E040E00E942D08FE019E
:101B0000E35BFF4F80E090E0A0E8BFE38083918338
:101B1000A283B3838E01075B1F4FFE01E35BFF4F80
:101B2000608171818281938120E030E04AE755E451
:101B30000E941F02DC01CB01F80180839183A28304
:101B4000B383FE01E75BFF4F6081718182819381E6
:101B500020E030E040E85FE30E942504882344F45D
:101B6000FE01E95BFF4F81E090E09183808364C0D8
:101B7000FE01E75BFF4F608171818281938120E0EC
:101B80003FEF4FE757E40E94C50318160CF043C01F
:101B9000FE01E35BFF4F608171818281938120E0D0
:101BA00030E040E251E40E941F02DC01CB018E01D3
:101BB000095B1F4FBC01CD010E944900DC01CB0134
:101BC000F801918380831FC0FE01EB5BFF4F80E92A
:101BD00091E091838083FE01EB5BFF4F80819181D7
:101BE0000197F1F7FE01EB5BFF4F91838083DE01EC
:101BF000A95BBF4FFE01E95BFF4F80819181019797
:101C000011969C938E93FE01E95BFF4F8081918139
:101C10000097D1F627C08E01095B1F4FFE01E75BDD
:101C2000FF4F60817181828193810E944900DC01B4
:101C3000CB01F80191838083DE01AD5BBF4FFE01D4
:101C4000E95BFF4F808191818D939C93FE01ED5B59
:101C5000FF4F808191810197F1F7FE01ED5BFF4F0E
:101C60009183808388E20E948613FE01FF9680E0C4
:101C700090E0A0EAB0E480839183A283B383FE0165
:101C8000FF9660817181828193812BEA3AEA4AEA68
:101C900050E40E941F02DC01CB018BAF9CAFADAFC3
:101CA000BEAF6BAD7CAD8DAD9EAD20E030E040E8C9
:101CB0005FE30E94250488231CF481E08AAF93C06F
:101CC0006BAD7CAD8DAD9EAD20E030E04FE753E4D1
:101CD0000E94C50318160CF07DC0FE01FF966081BE
:101CE00071818281938120E030E04AE754E40E94D0
:101CF0001903DC01CB018EAB9FABA8AFB9AF6EA9C6
:101D00007FA988AD99AD20E030E04AE755E40E9414
:101D10001F02DC01CB018AAB9BABACABBDAB6AA9AC
:101D20007BA98CA99DA920E030E040E85FE30E94F8
:101D3000250488232CF481E090E099AB88AB3FC068
:101D40006AA97BA98CA99DA920E03FEF4FE757E442
:101D50000E94C50318164CF56EA97FA988AD99ADF0
:101D600020E030E040E251E40E941F02DC01CB01A0
:101D7000BC01CD010E944900DC01CB0199AB88ABCD
:101D80000FC080E991E09FA78EA78EA59FA5019720
:101D9000F1F79FA78EA788A999A9019799AB88AB5E
:101DA00088A999A9009769F724C06AA97BA98CA979
:101DB0009DA90E944900DC01CB0199AB88AB88A9A1
:101DC00099A99DA78CA78CA59DA50197F1F79DA723
:101DD0008CA70FC06BAD7CAD8DAD9EAD0E94490050
:101DE000DC01CB018AAF8AAD8BA78BA58A95F1F771
:101DF0008BA78CE00E94861380E090E0A0E8BFE310
:101E00008FA398A7A9A7BAA76FA178A589A59AA516
:101E100020E030E04AE755E40E941F02DC01CB01DC
:101E20008BA39CA3ADA3BEA36BA17CA18DA19EA1FE
:101E300020E030E040E85FE30E94250488232CF492
:101E400081E090E09AA389A33FC06BA17CA18DA102
:101E50009EA120E03FEF4FE757E40E94C50318160C
:101E60004CF56FA178A589A59AA520E030E040E265
:101E700051E40E941F02DC01CB01BC01CD010E9494
:101E80004900DC01CB019AA389A30FC080E991E04E
:101E900098A38F8F8F8D98A10197F1F798A38F8FBB
:101EA00089A19AA101979AA389A389A19AA10097D0
:101EB00069F714C06BA17CA18DA19EA10E9449006D
:101EC000DC01CB019AA389A389A19AA19E8F8D8F52
:101ED0008D8D9E8D0197F1F79E8F8D8F81E00E94F1
:101EE000861380E090E0A0EAB0E4898F9A8FAB8FF0
:101EF000BC8F698D7A8D8B8D9C8D20E030E04AE718
:101F000055E40E941F02DC01CB018D8B9E8BAF8BB1
:101F1000B88F6D897E898F89988D20E030E040E808
:101F20005FE30E94250488232CF481E090E09C8BE1
:101F30008B8B3FC06D897E898F89988D20E03FEF24
:101F40004FE757E40E94C50318164CF5698D7A8D4A
:101F50008B8D9C8D20E030E040E251E40E941F0216
:101F6000DC01CB01BC01CD010E944900DC01CB01A9
:101F70009C8B8B8B0FC080E991E09A8B898B898930
:101F80009A890197F1F79A8B898B8B899C890197A4
:101F90009C8B8B8B8B899C89009769F714C06D890A
:101FA0007E898F89988D0E944900DC01CB019C8B32
:101FB0008B8B8B899C89988B8F878F8598890197CC
:101FC000F1F7988B8F8782E00E94861380E090E083
:101FD000A0E8BFE38B879C87AD87BE876B857C8538
:101FE0008D859E8520E030E04AE755E40E941F027F
:101FF000DC01CB018F839887A987BA876F817885A9
:1020000089859A8520E030E040E85FE30E9425045E
:1020100088232CF481E090E09E838D833FC06F8104
:10202000788589859A8520E03FEF4FE757E40E9445
:10203000C50318164CF56B857C858D859E8520E043
:1020400030E040E251E40E941F02DC01CB01BC0100
:10205000CD010E944900DC01CB019E838D830FC01E
:1020600080E991E09C838B838B819C810197F1F7C0
:102070009C838B838D819E8101979E838D838D812F
:102080009E81009769F714C06F81788589859A854C
:102090000E944900DC01CB019E838D838D819E814E
:1020A0009A83898389819A810197F1F79A83898339
:1020B000C25ADF4F0FB6F894DEBF0FBECDBFCF912F
:1020C000DF911F910F9108950F931F93DF93CF938B
:1020D000CDB7DEB7C754D0400FB6F894DEBF0FBE01
:1020E000CDBFFE01E95BFF4F808389E390E062E0B2
:1020F00040E00E942D08FE01ED5BFF4F80E090E084
:10210000A0E8BFE380839183A283B3838E01015C47
:102110001F4FFE01ED5BFF4F6081718182819381D2
:1021200020E030E04AE755E40E941F02DC01CB01C9
:10213000F80180839183A283B383FE01FF966081BF
:1021400071818281938120E030E040E85FE30E946A
:10215000250488232CF481E090E09EAF8DAF46C02B
:10216000FE01FF96608171818281938120E03FEFC3
:102170004FE757E40E94C503181664F5FE01ED5BB6
:10218000FF4F608171818281938120E030E040E2E5
:1021900051E40E941F02DC01CB01BC01CD010E9471
:1021A0004900DC01CB019EAF8DAF0FC080E991E00B
:1021B0009CAF8BAF8BAD9CAD0197F1F79CAF8BAF14
:1021C0008DAD9EAD01979EAF8DAF8DAD9EAD00974D
:1021D00069F716C0FE01FF9660817181828193814B
:1021E0000E944900DC01CB019EAF8DAF8DAD9EAD4D
:1021F0009AAF89AF89AD9AAD0197F1F79AAF89AFE0
:10220000FE01E95BFF4F8081882F90E08071907024
:1022100095958795959587959595879595958795A6
:10222000282F86E390E060E0422F0E942D08FE01F7
:10223000E95BFF4F8081882F90E0807290709595C8
:102240008795959587959595879595958795959576
:102250008795282F86E390E061E0422F0E942D08A9
:10226000FE01E95BFF4F8081882F90E080749070C1
:10227000082E892F000C881F990B000C881F991FAE
:10228000282F86E390E062E0422F0E942D08FE0195
:10229000E95BFF4F8081282F221F2227221F86E320
:1022A00090E064E0422F0E942D0889E390E062E014
:1022B00041E00E942D0880E090E0A0E8BFE38DABF4
:1022C0009EABAFABB8AF6DA97EA98FA998AD20E04A
:1022D00030E04AE755E40E941F02DC01CB0189ABE4
:1022E0009AABABABBCAB69A97AA98BA99CA920E03E
:1022F00030E040E85FE30E94250488232CF481E06D
:1023000090E098AB8FA73FC069A97AA98BA99CA937
:1023100020E03FEF4FE757E40E94C50318164CF545
:102320006DA97EA98FA998AD20E030E040E251E48C
:102330000E941F02DC01CB01BC01CD010E944900BB
:10234000DC01CB0198AB8FA70FC080E991E09EA77D
:102350008DA78DA59EA50197F1F79EA78DA78FA5A7
:1023600098A9019798AB8FA78FA598A9009769F7AF
:1023700014C069A97AA98BA99CA90E944900DC0113
:10238000CB0198AB8FA78FA598A99CA78BA78BA5EE
:102390009CA50197F1F79CA78BA789E390E062E0E9
:1023A00040E00E942D0880E090E0A0E8BFE38FA30A
:1023B00098A7A9A7BAA76FA178A589A59AA520E093
:1023C00030E04AE755E40E941F02DC01CB018BA3F9
:1023D0009CA3ADA3BEA36BA17CA18DA19EA120E077
:1023E00030E040E85FE30E94250488232CF481E07C
:1023F00090E09AA389A33FC06BA17CA18DA19EA16F
:1024000020E03FEF4FE757E40E94C50318164CF554
:102410006FA178A589A59AA520E030E040E251E4BB
:102420000E941F02DC01CB01BC01CD010E944900CA
:10243000DC01CB019AA389A30FC080E991E098A3A6
:102440008F8F8F8D98A10197F1F798A38F8F89A116
:102450009AA101979AA389A389A19AA1009769F7E4
:1024600014C06BA17CA18DA19EA10E944900DC013A
:10247000CB019AA389A389A19AA19E8F8D8F8D8D5F
:102480009E8D0197F1F79E8F8D8FFE01E95BFF4FC7
:102490008081282F217086E390E060E0422F0E9427
:1024A0002D08FE01E95BFF4F8081882F90E082704C
:1024B000907095958795282F86E390E061E0422FF4
:1024C0000E942D08FE01E95BFF4F8081882F90E07C
:1024D000847090709595879595958795282F86E3BC
:1024E00090E062E0422F0E942D08FE01E95BFF4F61
:1024F0008081882F90E0887090709595879595954C
:10250000879595958795282F86E390E064E0422F84
:102510000E942D0889E390E062E041E00E942D08CE
:1025200080E090E0A0E8BFE3898F9A8FAB8FBC8FEB
:10253000698D7A8D8B8D9C8D20E030E04AE755E4E3
:102540000E941F02DC01CB018D8B9E8BAF8BB88F5D
:102550006D897E898F89988D20E030E040E85FE3C7
:102560000E94250488232CF481E090E09C8B8B8BC7
:102570003FC06D897E898F89988D20E03FEF4FE7BE
:1025800057E40E94C50318164CF5698D7A8D8B8D22
:102590009C8D20E030E040E251E40E941F02DC010B
:1025A000CB01BC01CD010E944900DC01CB019C8B19
:1025B0008B8B0FC080E991E09A8B898B89899A89EE
:1025C0000197F1F79A8B898B8B899C8901979C8B5A
:1025D0008B8B8B899C89009769F714C06D897E89E4
:1025E0008F89988D0E944900DC01CB019C8B8B8BDD
:1025F0008B899C89988B8F878F8598890197F1F7B4
:10260000988B8F8789E390E062E040E00E942D087C
:1026100080E090E0A0EAB0E48B879C87AD87BE871E
:102620006B857C858D859E8520E030E04AE755E40A
:102630000E941F02DC01CB018F839887A987BA878C
:102640006F81788589859A8520E030E040E85FE3F6
:102650000E94250488232CF481E090E09E838D83E2
:102660003FC06F81788589859A8520E03FEF4FE7ED
:1026700057E40E94C50318164CF56B857C858D8543
:102680009E8520E030E040E251E40E941F02DC0120
:10269000CB01BC01CD010E944900DC01CB019E832E
:1026A0008D830FC080E991E09C838B838B819C811B
:1026B0000197F1F79C838B838D819E8101979E8387
:1026C0008D838D819E81009769F714C06F81788515
:1026D00089859A850E944900DC01CB019E838D8308
:1026E0008D819E819A83898389819A810197F1F7EF
:1026F0009A838983C95BDF4F0FB6F894DEBF0FBEA4
:10270000CDBFCF91DF911F910F910895DF93CF93AC
:10271000CDB7DEB72F970FB6F894DEBF0FBECDBF93
:102720008F8789E390E063E040E00E942D0880E01D
:1027300090E0A0E8BFE38B879C87AD87BE876B8561
:102740007C858D859E8520E030E04AE755E40E9437
:102750001F02DC01CB018F839887A987BA876F811D
:10276000788589859A8520E030E040E85FE30E9423
:10277000250488232CF481E090E09E838D833FC064
:102780006F81788589859A8520E03FEF4FE757E490
:102790000E94C50318164CF56B857C858D859E853A
:1027A00020E030E040E251E40E941F02DC01CB0156
:1027B000BC01CD010E944900DC01CB019E838D83C9
:1027C0000FC080E991E09C838B838B819C81019772
:1027D000F1F79C838B838D819E8101979E838D83EE
:1027E0008D819E81009769F714C06F8178858985F6
:1027F0009A850E944900DC01CB019E838D838D81E7
:102800009E819A83898389819A810197F1F79A83BE
:1028100089838F850E9464102F960FB6F894DEBFCF
:102820000FBECDBFCF91DF910895DF93CF93CDB78A
:10283000DEB72F970FB6F894DEBF0FBECDBF8F87E0
:1028400089E390E063E041E00E942D0880E090E0A1
:10285000A0E8BFE38B879C87AD87BE876B857C85AF
:102860008D859E8520E030E04AE755E40E941F02F6
:10287000DC01CB018F839887A987BA876F81788520
:1028800089859A8520E030E040E85FE30E942504D6
:1028900088232CF481E090E09E838D833FC06F817C
:1028A000788589859A8520E03FEF4FE757E40E94BD
:1028B000C50318164CF56B857C858D859E8520E0BB
:1028C00030E040E251E40E941F02DC01CB01BC0178
:1028D000CD010E944900DC01CB019E838D830FC096
:1028E00080E991E09C838B838B819C810197F1F738
:1028F0009C838B838D819E8101979E838D838D81A7
:102900009E81009769F714C06F81788589859A85C3
:102910000E944900DC01CB019E838D838D819E81C5
:102920009A83898389819A810197F1F79A838983B0
:102930008F850E9464102F960FB6F894DEBF0FBEED
:10294000CDBFCF91DF910895DF93CF9300D00F9249
:10295000CDB7DEB79B838A8319820EC08981282F69
:1029600030E08A819B81FC01E20FF31F80810E948D
:10297000151489818F5F89838981282F30E08A81AE
:102980009B81FC01E20FF31F8081882339F70F90B0
:102990000F900F90CF91DF910895DF93CF9300D0E8
:1029A00000D00F92CDB7DEB78A836B838A81282F40
:1029B00030E03D832C838C819D8181309105C1F075
:1029C0002C813D81223031052CF48C819D81009732
:1029D00061F019C02C813D812230310569F08C8174
:1029E0009D818330910561F00EC08B8189830BC07E
:1029F0008B81805C898307C08B81805F898303C062
:102A00008B81805B8983898180680E9486130F9007
:102A10000F900F900F900F90CF91DF910895DF935B
:102A2000CF9300D000D0CDB7DEB789836A835C83B3
:102A30004B8389816A810E94CD148B819C810E9485
:102A4000A4140F900F900F900F90CF91DF910895E5
:102A5000DF93CF93CDB7DEB764970FB6F894DEBFA0
:102A60000FBECDBF698B7A8B8B8B9C8B89899A89A2
:102A70009E012F5F3F4FB9014AE050E00E94E518E8
:102A8000CE0101960E94A41464960FB6F894DEBF9E
:102A90000FBECDBFCF91DF910895DF93CF93CDB718
:102AA000DEB781E00E948613CF91DF910895DF9316
:102AB000CF9300D00F92CDB7DEB7898386E390E045
:102AC00060E041E00E94790786E390E061E041E048
:102AD0000E94790786E390E062E041E00E94790776
:102AE00086E390E064E041E00E94790789E390E0AA
:102AF00063E041E00E94790789E390E062E041E011
:102B00000E94790786E390E065E041E00E94790742
:102B100086E390E066E041E00E94790786E390E07A
:102B200060E040E00E942D0886E390E061E040E034
:102B30000E942D0886E390E062E040E00E942D08AC
:102B400086E390E064E040E00E942D088981282F10
:102B500030E03B832A838A819B818130910579F122
:102B60002A813B81223031052CF48A819B81009798
:102B700069F06FC02A813B8122303105C9F18A8119
:102B80009B818330910509F44CC063C089E390E0D8
:102B900063E040E00E942D0889E390E062E041E0BC
:102BA0000E942D0886E390E065E041E00E942D0838
:102BB00086E390E066E041E00E942D084AC089E388
:102BC00090E063E040E00E942D0889E390E062E03D
:102BD00040E00E942D0886E390E065E041E00E941D
:102BE0002D0886E390E066E041E00E942D0831C0A8
:102BF00089E390E063E040E00E942D0889E390E0E3
:102C000062E040E00E942D0886E390E065E040E04D
:102C10000E942D0886E390E066E041E00E942D08C6
:102C200018C089E390E063E040E00E942D0889E34A
:102C300090E062E040E00E942D0886E390E065E0CD
:102C400040E00E942D0886E390E066E040E00E94AC
:102C50002D080F900F900F90CF91DF910895DF9383
:102C6000CF9300D00F92CDB7DEB789838981282F0B
:102C700030E03B832A838A819B818430910509F46B
:102C8000ABC02A813B8125303105ECF48A819B81E0
:102C90008130910509F455C02A813B8122303105EC
:102CA0002CF48A819B81009799F12BC12A813B8169
:102CB0002230310509F45EC08A819B818330910501
:102CC00009F471C01EC12A813B812730310509F406
:102CD000CEC08A819B81883091056CF42A813B812A
:102CE0002530310509F491C08A819B818630910598
:102CF00009F4A4C006C12A813B812830310509F4BA
:102D0000CFC08A819B818930910509F4E2C0F9C066
:102D100086E390E060E040E00E942D0886E390E0CA
:102D200061E040E00E942D0886E390E062E040E030
:102D30000E942D0886E390E064E040E00E942D08A8
:102D4000E0C086E390E060E041E00E942D0886E369
:102D500090E061E040E00E942D0886E390E062E0B0
:102D600040E00E942D0886E390E064E040E00E948D
:102D70002D08C7C086E390E060E040E00E942D0887
:102D800086E390E061E041E00E942D0886E390E058
:102D900062E040E00E942D0886E390E064E040E0BD
:102DA0000E942D08AEC086E390E060E041E00E9402
:102DB0002D0886E390E061E041E00E942D0886E363
:102DC00090E062E040E00E942D0886E390E064E03D
:102DD00040E00E942D0895C086E390E060E040E06E
:102DE0000E942D0886E390E061E040E00E942D08FB
:102DF00086E390E062E041E00E942D0886E390E0E7
:102E000064E040E00E942D087CC086E390E060E032
:102E100041E00E942D0886E390E061E040E00E94DE
:102E20002D0886E390E062E041E00E942D0886E3F1
:102E300090E064E040E00E942D0863C086E390E0EB
:102E400060E040E00E942D0886E390E061E041E010
:102E50000E942D0886E390E062E041E00E942D0888
:102E600086E390E064E040E00E942D084AC086E3DB
:102E700090E060E041E00E942D0886E390E061E090
:102E800041E00E942D0886E390E062E041E00E946C
:102E90002D0886E390E064E040E00E942D0831C0F8
:102EA00086E390E060E040E00E942D0886E390E039
:102EB00061E040E00E942D0886E390E062E040E09F
:102EC0000E942D0886E390E064E041E00E942D0816
:102ED00018C086E390E060E041E00E942D0886E3A0
:102EE00090E061E040E00E942D0886E390E062E01F
:102EF00040E00E942D0886E390E064E041E00E94FB
:102F00002D080F900F900F90CF91DF910895DF93D0
:102F1000CF93CDB7DEB76C970FB6F894DEBF0FBE78
:102F2000CDBF89E390E066E041E00E942D0880E09B
:102F300090E0AAE7B4E4898F9A8FAB8FBC8F698D3C
:102F40007A8D8B8D9C8D20E030E04AE755E40E941D
:102F50001F02DC01CB018D8B9E8BAF8BB88F6D89EF
:102F60007E898F89988D20E030E040E85FE30E9401
:102F7000250488232CF481E090E09C8B8B8B3FC050
:102F80006D897E898F89988D20E03FEF4FE757E468
:102F90000E94C50318164CF5698D7A8D8B8D9C8D1A
:102FA00020E030E040E251E40E941F02DC01CB014E
:102FB000BC01CD010E944900DC01CB019C8B8B8BB5
:102FC0000FC080E991E09A8B898B89899A89019752
:102FD000F1F79A8B898B8B899C8901979C8B8B8BC2
:102FE0008B899C89009769F714C06D897E898F89C8
:102FF000988D0E944900DC01CB019C8B8B8B8B89C7
:103000009C89988B8F878F8598890197F1F7988B8A
:103010008F8789E390E066E040E00E942D0880E021
:1030200090E0AAE7B4E48B879C87AD87BE876B8569
:103030007C858D859E8520E030E04AE755E40E943E
:103040001F02DC01CB018F839887A987BA876F8124
:10305000788589859A8520E030E040E85FE30E942A
:10306000250488232CF481E090E09E838D833FC06B
:103070006F81788589859A8520E03FEF4FE757E497
:103080000E94C50318164CF56B857C858D859E8541
:1030900020E030E040E251E40E941F02DC01CB015D
:1030A000BC01CD010E944900DC01CB019E838D83D0
:1030B0000FC080E991E09C838B838B819C81019779
:1030C000F1F79C838B838D819E8101979E838D83F5
:1030D0008D819E81009769F714C06F8178858985FD
:1030E0009A850E944900DC01CB019E838D838D81EE
:1030F0009E819A83898389819A810197F1F79A83C6
:1031000089836C960FB6F894DEBF0FBECDBFCF910A
:10311000DF910895DF93CF93CDB7DEB727970FB632
:10312000F894DEBF0FBECDBF0E947D0C83E08B8381
:1031300087E08C831D82CE0103960E944F061A827F
:10314000198289E390E066E041E00E94790727E870
:1031500037E181E0B9010E940907F9CF2F923F9230
:103160004F925F926F927F928F929F92AF92BF9297
:10317000CF92DF92EF92FF920F931F93CF93DF9343
:10318000CDB7DEB7CA1BDB0B0FB6F894DEBF0FBEA0
:10319000CDBF09942A88398848885F846E847D84ED
:1031A0008C849B84AA84B984C884DF80EE80FD80EF
:1031B0000C811B81AA81B981CE0FD11D0FB6F89465
:1031C000DEBF0FBECDBFED010895FB019F01E89466
:1031D0004230C4F04532B4F44A3029F497FB1EF46F
:1031E000909581959F4F642F77270E941619805DD7
:1031F0008A330CF0895D8193CB010097A1F716F417
:103200005DE251931082C9010C940619DC01FC01A6
:10321000672F71917723E1F7329704C07C916D930A
:1032200070836291AE17BF07C8F30895AA1BBB1B3A
:1032300051E107C0AA1FBB1FA617B70710F0A61BB6
:10324000B70B881F991F5A95A9F780959095BC01D7
:08325000CD010895F894FFCFB1
:0832580000000000000000006E
:00000001FF
