:100000000C942A000C9447000C9447000C94470071
:100010000C9447000C9447000C9447000C94400843
:100020000C9447000C9447000C9447000C94470034
:100030000C9447000C9447000C9447000C94470024
:100040000C9447000C9447000C9447000C94470014
:100050000C94470011241FBECFE5D8E0DEBFCDBF12
:1000600010E0A0E6B0E0EEEEF7E202C005900D92DF
:10007000AA37B107D9F713E0AAE7B0E001C01D9293
:10008000A137B107E1F70E9449000C94F5130C94D5
:100090000000AF92BF92CF92DF92EF92FF920F9348
:1000A000DF93CF9300D000D0CDB7DEB71A8219828C
:1000B00020E630E086EA90E0B90145E550E020E036
:1000C00030E001E0FE0131967F01CC24DD24AA243A
:1000D000BB240E94EB0C1C821B822CE630E08AECD5
:1000E00090E0FE013396B90145E550E020E030E0B4
:1000F00002E07F01CC24DD24AA24BB240E94EB0C67
:100100000E9494000E94E40E80E090E00F900F9017
:100110000F900F90CF91DF910F91FF90EF90DF90B4
:10012000CF90BF90AF900895DF93CF93CDB7DEB758
:10013000E7E3F0E08FEF8083E4E3F0E01082E5E3B3
:10014000F0E08FEF8083CF91DF910895DF93CF931D
:1001500000D000D000D0CDB7DEB79E838D8382E380
:1001600090E09A8389830E94BB0F9C838B83E3E397
:10017000F0E08081882F90E081709070009711F4FA
:1001800010927600CE01039629813A81B9010E942E
:100190003B0EEDCFDF93CF9300D000D000D0CDB792
:1001A000DEB79E838D8382E390E09A8389830E94E9
:1001B000BB0F9C838B8380917600882359F4A8E33E
:1001C000B0E0E8E3F0E0908181E089278C9381E062
:1001D00080937600CE01039629813A81B9010E946D
:1001E0003B0EE9CFDF93CF93CDB7DEB727970FB69E
:1001F000F894DEBF0FBECDBF9D838C836E834F838B
:100200008AE190E00E94CA039A83898389819A8156
:10021000009709F46FC080917A0090917B0000975D
:1002200041F489819A8190937B0080937A000E94A7
:1002300059038E81823010F081E08E83E981FA814A
:10024000118E108EE981FA818E81868BE981FA8187
:100250008F81878BE981FA818C819D819183808355
:1002600089819A8102960E94600489819A810C9604
:100270000E946004E981FA8189819A81918780874F
:10028000E981FA8189819A81938B828B8E81282FD3
:1002900030E085E090E0821B930BE981FA8195873D
:1002A0008487E981FA81968980917C00891728F4F6
:1002B000E981FA81868980937C00E981FA818689C7
:1002C000282F30E0C901880F991F880F991F880FC8
:1002D000991F820F931FAC014D575F4F89819A81FF
:1002E0009C012E5F3F4FCA01B9010E94700481E05A
:1002F0008B8302C08FEF8B838B8127960FB6F89488
:10030000DEBF0FBECDBFCF91DF910895DF93CF93B6
:1003100000D000D000D0CDB7DEB79C838B837E8326
:100320006D8320917D0030917E008B819C81820FB6
:10033000931F9A83898380917A0090917B00029623
:100340000E942805E0917A00F0917B0089819A81D2
:100350009383828320917D0030917E0089819A81F0
:100360008217930770F48091A9009091AA002091C0
:100370007A0030917B002E5F3F4FB9010E94BC0490
:100380000DC08091A7009091A80020917A00309133
:100390007B002E5F3F4FB9010E94BC048D819E817E
:1003A000009761F080917A0090917B009C01245F1E
:1003B0003F4F8D819E81B9010E94BC0426960FB6E5
:1003C000F894DEBF0FBECDBFCF91DF910895DF93CC
:1003D000CF9300D0CDB7DEB73AC0F894E091B0002B
:1003E000F091B100868197819A83898389819A816E
:1003F0000C960E942805789489819A8102960E9421
:100400002805E981FA81968980917C00891728F472
:10041000E981FA81868980937C00E981FA81868965
:10042000282F30E0C901880F991F880F991F880F66
:10043000991F820F931FAC014D575F4F89819A819D
:100440009C012E5F3F4FCA01B9010E947004809148
:10045000AB00882309F0C1CF0F900F90CF91DF91AF
:100460000895DF93CF9300D000D0CDB7DEB70E94C0
:10047000BB0F20917F0030918000821B930B9093E3
:1004800082008093810085C080917D0090917E00E4
:10049000019690937E0080937D00809181009091E1
:1004A00082000197909382008093810080917D006B
:1004B00090917E00009709F064C08091A700909110
:1004C000A8009A8389838091A9009091AA009093B3
:1004D000A8008093A70089819A819093AA008093B5
:1004E000A9004FC0E091A700F091A8000580F68117
:1004F000E02D868197819C838B83EB81FC81228117
:10050000338180917D0090917E008217930708F4DB
:1005100040C0F8948B819C8102960E942805EB8153
:10052000FC8184899589009729F08B819C810C96A8
:100530000E9428057894EB81FC81968980917C004B
:10054000891728F4EB81FC81868980937C00EB81FC
:10055000FC818689282F30E0C901880F991F880FF8
:10056000991F880F991F820F931FAC014D575F4F42
:100570008B819C819C012E5F3F4FCA01B9010E9473
:100580007004E091A700F091A8008081882309F011
:10059000A9CF8091810090918200009709F074CFDB
:1005A00080917D0090917E009093800080937F00E9
:1005B0000F900F900F900F90CF91DF910895DF93E0
:1005C000CF9300D0CDB7DEB70E94E7010E94310281
:1005D0000AC080917C00882309F466C080917C0069
:1005E000815080937C0080917C00282F30E0C901ED
:1005F000880F991F880F991F880F991F820F931FCB
:10060000FC01ED57FF4F8081882319F380917C0016
:10061000282F30E0C901880F991F880F991F880F74
:10062000991F820F931F8D579F4F9A838983E9816A
:10063000FA810180F281E02D82819381E981FA8142
:1006400092838183E981FA812181328189819A8132
:1006500003962817390759F4E981FA810180F2815C
:10066000E02D82819381E981FA8192838183E981FE
:10067000FA810180F281E02D8681978190937B0041
:1006800080937A00E0917A00F0917B004081518163
:1006900080917A0090917B00E0917A00F0917B004C
:1006A0002789622FFA0109950F900F90CF91DF9162
:1006B0000895DF93CF930F92CDB7DEB7198213C0A1
:1006C0008981282F30E0C901880F991F880F991F51
:1006D000880F991F820F931F8D579F4F0E943604DA
:1006E00089818F5F89838981823050F385E990E029
:1006F0000E9436048EE990E00E9436048BEA90E076
:100700000E94360485E990E09093A8008093A700AA
:100710008EE990E09093AA008093A9000F90CF916A
:10072000DF910895DF93CF9300D000D00F92CDB723
:10073000DEB79D838C83EC81FD810580F681E02D01
:10074000868197819B838A838A819B810C960E94F4
:1007500028058A819B819C01245F3F4F8BEA90E0B2
:10076000B9010E947004EA81FB819689E0917A00C8
:10077000F0917B008689981718F081E0898301C089
:10078000198289810F900F900F900F900F90CF9149
:10079000DF910895DF93CF9300D000D0CDB7DEB7BF
:1007A0009C838B831A8219820E94270F8091B40048
:1007B0009091B5002B813C81820F931F22E08835F8
:1007C000920718F52091B4003091B5008B819C817F
:1007D000280F391F8091B4009091B50082179307BC
:1007E000A0F48091B4009091B5008A549F4F9A83F1
:1007F00089832091B4003091B5008B819C81820F58
:10080000931F9093B5008093B4000E94330F8981A9
:100810009A810F900F900F900F90CF91DF910895D4
:10082000DF93CF9300D0CDB7DEB79A8389830F9043
:100830000F90CF91DF910895DF93CF93CDB7DEB7BF
:100840001092B5001092B400CF91DF910895DF931C
:10085000CF93CDB7DEB72091B4003091B50088E5D5
:1008600092E0821B930BCF91DF910895DF93CF939A
:1008700000D0CDB7DEB79A83898389819A810396A8
:10088000E981FA8192838183E981FA818FEF9FEF79
:100890009483838389819A810396E981FA8196837F
:1008A000858389819A810396E981FA81908787837C
:1008B000E981FA8110820F900F90CF91DF91089516
:1008C000DF93CF9300D0CDB7DEB79A838983E981D8
:1008D000FA81118610860F900F90CF91DF910895C5
:1008E000DF93CF9300D000D000D0CDB7DEB79C838C
:1008F0008B837E836D83EB81FC81818192819A83DE
:100900008983E981FA8182819381ED81FE819383DC
:100910008283EB81FC8181819281ED81FE819583CF
:100920008483E981FA810280F381E02D8D819E81AB
:10093000958384838D819E81E981FA81938382836B
:100940008D819E81EB81FC8192838183ED81FE818B
:100950008B819C8191878087EB81FC8180818F5F77
:10096000EB81FC81808326960FB6F894DEBF0FBE24
:10097000CDBFCF91DF910895DF93CF93CDB7DEB791
:1009800028970FB6F894DEBF0FBECDBF9E838D8330
:1009900078876F83EF81F885808191819A8389833D
:1009A00089819A812FEF8F3F920739F4ED81FE8183
:1009B000878190859C838B8318C08D819E8103964F
:1009C0009C838B8306C0EB81FC81828193819C8315
:1009D0008B83EB81FC810280F381E02D20813181CA
:1009E00089819A818217930770F7EB81FC8182815C
:1009F0009381EF81F88593838283EF81F88502806C
:100A0000F381E02D8F81988595838483EF81F8852C
:100A10008B819C81958384838F819885EB81FC8178
:100A200093838283EF81F8858D819E819187808772
:100A3000ED81FE8180818F5FED81FE81808328962C
:100A40000FB6F894DEBF0FBECDBFCF91DF910895F2
:100A5000DF93CF9300D000D0CDB7DEB79C838B83DC
:100A6000EB81FC81A281B381EB81FC818481958142
:100A700015969C938E931497EB81FC81A481B5818C
:100A8000EB81FC818281938113969C938E931297C4
:100A9000EB81FC81808591859A838983E981FA8144
:100AA000218132818B819C812817390741F4EB81A8
:100AB000FC8184819581E981FA8192838183EB8134
:100AC000FC8111861086E981FA8180818150E9815B
:100AD000FA8180830F900F900F900F90CF91DF914C
:100AE0000895DF93CF93CDB7DEB728970FB6F8946C
:100AF000DEBF0FBECDBF9C838B837E836D83588703
:100B00004F83EB81FC8181E180838B819C81019704
:100B10009C838B83EB81FC8182E280838B819C812F
:100B200001979C838B83EB81FC8183E380838B81A2
:100B30009C8101979C838B838D819E819A8389837D
:100B40008981EB81FC8180838B819C8101979C83CF
:100B50008B8389819A81892F99279A8389838981B7
:100B6000EB81FC8180838B819C8101979C838B83AB
:100B7000EB81FC8110828B819C8101979C838B830C
:100B8000EB81FC8180E880838B819C8101979C8331
:100B90008B83EB81FC8110828B819C8101979C83EC
:100BA0008B83EB81FC8182E080838B819C81019728
:100BB0009C838B83EB81FC8183E080838B819C8190
:100BC00001979C838B83EB81FC8184E080838B8104
:100BD0009C8101979C838B83EB81FC8185E08083E2
:100BE0008B819C8101979C838B83EB81FC8186E0C8
:100BF00080838B819C8101979C838B83EB81FC811B
:100C000087E080838B819C8101979C838B83EB8120
:100C1000FC8188E080838B819C8101979C838B83FE
:100C2000EB81FC8189E080838B819C8101979C838F
:100C30008B83EB81FC8180E180838B819C81019798
:100C40009C838B83EB81FC8181E180838B819C8100
:100C500001979C838B83EB81FC8182E180838B8174
:100C60009C8101979C838B83EB81FC8183E1808352
:100C70008B819C8101979C838B83EB81FC8184E138
:100C800080838B819C8101979C838B83EB81FC818A
:100C900085E180838B819C8101979C838B83EB8191
:100CA000FC8186E180838B819C8101979C838B836F
:100CB000EB81FC8187E180838B819C8101979C8300
:100CC0008B83EB81FC8188E180838B819C81019700
:100CD0009C838B83EB81FC8189E180838B819C8168
:100CE00001979C838B83EB81FC8180E280838B81E5
:100CF0009C8101979C838B83EB81FC8181E28083C3
:100D00008B819C8101979C838B83EB81FC8182E2A8
:100D100080838B819C8101979C838B83EB81FC81F9
:100D200083E280838B819C8101979C838B838F815D
:100D300098859A8389838981EB81FC8180838B816B
:100D40009C8101979C838B8389819A81892F992724
:100D50009A8389838981EB81FC8180838B819C814B
:100D600001979C838B83EB81FC8186E280838B815E
:100D70009C8101979C838B83EB81FC8187E280833C
:100D80008B819C8101979C838B83EB81FC8188E222
:100D900080838B819C8101979C838B83EB81FC8179
:100DA00089E280838B819C8101979C838B83EB817B
:100DB000FC8180E380838B819C8101979C838B8362
:100DC000EB81FC8181E380838B819C8101979C83F3
:100DD0008B838B819C8128960FB6F894DEBF0FBE63
:100DE000CDBFCF91DF910895DF93CF93CDB7DEB71D
:100DF0000E94E407A0910E03B0910F03CD91CDBFE7
:100E0000DD91DEBFFF91EF91DF91CF91BF91AF9167
:100E10009F918F917F916F915F914F913F912F9112
:100E20001F910F91FF90EF90DF90CF90BF90AF9008
:100E30009F908F907F906F905F904F903F902F90FA
:100E40001F900F900FBE0F90089581E0CF91DF911A
:100E50000895DF93CF93CDB7DEB7CF91DF9108959B
:100E60000F920FB6F8940F921F9211242F923F9277
:100E70004F925F926F927F928F929F92AF92BF92AA
:100E8000CF92DF92EF92FF920F931F932F933F9396
:100E90004F935F936F937F938F939F93AF93BF9382
:100EA000CF93DF93EF93FF93A0910E03B0910F03C5
:100EB0000DB60D920EB60D920E94C510A0910E03B4
:100EC000B0910F03CD91CDBFDD91DEBFFF91EF91CA
:100ED000DF91CF91BF91AF919F918F917F916F9152
:100EE0005F914F913F912F911F910F91FF90EF9044
:100EF000DF90CF90BF90AF909F908F907F906F903A
:100F00005F904F903F902F901F900F900FBE0F90CB
:100F100008950F920FB6F8940F921F9211242F92FA
:100F20003F924F925F926F927F928F929F92AF9279
:100F3000BF92CF92DF92EF92FF920F931F932F9366
:100F40003F934F935F936F937F938F939F93AF9351
:100F5000BF93CF93DF93EF93FF93A0910E03B091D4
:100F60000F030DB60D920EB60D920E94F00F0E9467
:100F7000C510A0910E03B0910F03CD91CDBFDD91AF
:100F8000DEBFFF91EF91DF91CF91BF91AF919F9124
:100F90008F917F916F915F914F913F912F911F9111
:100FA0000F91FF90EF90DF90CF90BF90AF909F9008
:100FB0008F907F906F905F904F903F902F901F90F9
:100FC0000F900FBE0F900895DF93CF9300D000D005
:100FD00000D0CDB7DEB780E49FE1A0E0B0E08B8326
:100FE0009C83AD83BE838B819C81AD81BE816894DF
:100FF00015F8B695A795979587951694D1F78B8395
:101000009C83AD83BE838B819C81AD81BE81019722
:10101000A109B1098B839C83AD83BE838B818983B6
:101020008B819C81AD81BE81892F9A2FAB2FBB27ED
:101030008B839C83AD83BE838B818A83EBE4F0E05A
:101040008A818083EAE4F0E0898180838BE0898370
:10105000EEE4F0E089818083E9E5F0E08081898336
:10106000898180618983E9E5F0E089818083269622
:101070000FB6F894DEBF0FBECDBFCF91DF910895BC
:101080001F920F920FB60F9211242F933F934F93FD
:101090005F936F937F938F939F93AF93BF93EF93E0
:1010A000FF93DF93CF93CDB7DEB70E94F00FCF91C0
:1010B000DF91FF91EF91BF91AF919F918F917F91C0
:1010C0006F915F914F913F912F910F900FBE0F90B5
:1010D0001F901895DF93CF93CDB7DEB728970FB643
:1010E000F894DEBF0FBECDBF8F8368871A82198246
:1010F0008F81882309F48CC08FE190E00E94CA039D
:101100009E838D838D819E81009709F481C08F819C
:10111000282F30E08885882F90E0AC01249FC00103
:10112000259F900D349F900D112401969C838B83F5
:101130008B819C810E94CA03ED81FE819183808313
:10114000ED81FE8180819181009709F45DC0ED8180
:10115000FE81408151818F81282F30E08885882F42
:1011600090E0BC01269FC001279F900D369F900DF7
:101170001124840F951FED81FE8193838283ED817D
:10118000FE81128EED81FE8180819181ED81FE8153
:1011900095838483ED81FE81408151818F81882FE9
:1011A00090E09C01215030408885882F90E0BC0160
:1011B000269FC001279F900D369F900D1124840F0C
:1011C000951FED81FE8197838683ED81FE818F815E
:1011D000838FED81FE818885848FED81FE818FEF85
:1011E000858FED81FE818FEF868F8D819E810896A0
:1011F0000E9436048D819E8141960E9436048D8125
:101200009E819A83898304C08D819E810E941004EF
:1012100089819A8128960FB6F894DEBF0FBECDBFA4
:10122000CF91DF910895DF93CF93CDB7DEB72C97A1
:101230000FB6F894DEBF0FBECDBF9E838D83788737
:101240006F835A8749872B8719820FB6F8940F92BC
:10125000ED81FE81928DED81FE81838D9817D8F40A
:101260008D819E812F813885B9014B850E944E0B5F
:10127000ED81FE818189882349F08D819E8141968F
:101280000E946111813011F40E9430070F900FBE4F
:1012900081E08C875CC089859A85009721F40F9046
:1012A0000FBE1C8654C08981882331F4CE0102967A
:1012B0000E94C91181E089830F900FBE0E94270F01
:1012C0000FB6F8940F92ED81FE81858D8F3F19F452
:1012D000ED81FE81158EED81FE81868D8F3F19F4A3
:1012E000ED81FE81168E0F900FBECE0102969E01FB
:1012F000275F3F4FB9010E94E211882309F58D81D4
:101300009E810E94B20C8823A1F08D819E81089657
:1013100029853A85B9010E942B118D819E810E94F9
:101320002B0C0E94330F882309F08FCF0E943007C7
:101330008CCF8D819E810E942B0C0E94330F85CF14
:101340008D819E810E942B0C0E94330F1C868C8500
:101350002C960FB6F894DEBF0FBECDBFCF91DF91B4
:101360000895DF93CF93CDB7DEB729970FB6F894E2
:10137000DEBF0FBECDBF9C838B837E836D8358877A
:101380004F8329871982EB81FC81928DEB81FC814F
:10139000838D981740F58B819C812D813E81B90109
:1013A00049850E944E0BEB81FC81868D8F3F89F42D
:1013B000EB81FC818189882399F08B819C81419606
:1013C0000E946111882361F0EF81F88581E08083BC
:1013D00007C0EB81FC81868D8F5FEB81FC81868F5E
:1013E00081E08A8301C01A828A8129960FB6F89417
:1013F000DEBF0FBECDBFCF91DF910895DF93CF93B6
:10140000CDB7DEB72E970FB6F894DEBF0FBECDBFB7
:1014100098878F837A8769875C874B872D871B82A4
:101420000FB6F8940F92EF81F885828D882309F426
:101430003FC0EF81F885868197819A8389838F8168
:10144000988529853A85B9010E94E30B8D8588230B
:10145000B1F4EF81F885828D8150EF81F885828F1C
:10146000EF81F88580858823F1F08F819885089633
:101470000E9461118130B9F40E94300714C0EF81DD
:10148000F88589819A8197838683EF81F8858189A0
:10149000882349F08F81988541960E9461118823A5
:1014A00011F00E9430070F900FBE81E08E875CC064
:1014B0008B859C85009721F40F900FBE1E8654C02B
:1014C0008B81882331F4CE0104960E94C91181E0FA
:1014D0008B830F900FBE0E94270F0FB6F8940F92C8
:1014E000EF81F885858D8F3F19F4EF81F885158E92
:1014F000EF81F885868D8F3F19F4EF81F885168E80
:101500000F900FBECE0104969E01255F3F4FB9019B
:101510000E94E211882309F58F8198850E947F0C33
:101520008823A1F08F81988541962B853C85B90150
:101530000E942B118F8198850E942B0C0E94330FE3
:10154000882309F06DCF0E9430076ACF8F8198857C
:101550000E942B0C0E94330F63CF8F8198850E94CD
:101560002B0C0E94330F1E868E852E960FB6F89494
:10157000DEBF0FBECDBFCF91DF910895DF93CF9334
:10158000CDB7DEB728970FB6F894DEBF0FBECDBF3C
:101590009C838B837E836D8358874F831982EB8175
:1015A000FC81828D882371F18B819C812D813E810C
:1015B000B9010E94E30BEB81FC81828D8150EB81AC
:1015C000FC81828FEB81FC81858D8F3F89F4EB81DB
:1015D000FC818085882399F08B819C8108960E94EC
:1015E0006111882361F0EF81F88581E0808307C075
:1015F000EB81FC81858D8F5FEB81FC81858F81E0A4
:101600008A8301C01A828A8128960FB6F894DEBFB9
:101610000FBECDBFCF91DF910895DF93CF9300D060
:101620000F92CDB7DEB79B838A830FB6F8940F92E3
:10163000EA81FB81828D89830F900FBE89810F9093
:101640000F900F90CF91DF910895DF93CF9300D04B
:101650000F92CDB7DEB79B838A83EA81FB81828DAF
:10166000898389810F900F900F90CF91DF9108951A
:10167000DF93CF9300D0CDB7DEB79A838983E9811A
:10168000FA81808191810E94100489819A810E944F
:1016900010040F900F90CF91DF910895DF93CF93B7
:1016A00000D000D00F92CDB7DEB79A8389837C83B8
:1016B0006B834D83E981FA81848D882309F474C09A
:1016C0008D81882399F5E981FA8164817581E981A9
:1016D000FA81848D482F50E02B813C81CB01B901E8
:1016E0000E94D613E981FA8124813581E981FA814A
:1016F000848D882F90E0820F931FE981FA81958372
:101700008483E981FA8124813581E981FA818281AA
:1017100093812817390708F447C0E981FA8180814D
:101720009181E981FA81958384833EC0E981FA81C0
:1017300066817781E981FA81848D482F50E02B8181
:101740003C81CB01B9010E94D613E981FA8126813F
:101750003781E981FA81848D882F90E09095819579
:101760009F4F820F931FE981FA8197838683E981D6
:10177000FA8126813781E981FA8180819181281758
:10178000390790F4E981FA8122813381E981FA8174
:10179000848D882F90E0909581959F4F820F931FA5
:1017A000E981FA8197838683E981FA81828D8F5F4F
:1017B000E981FA81828F0F900F900F900F900F9018
:1017C000CF91DF910895DF93CF9300D000D0CDB7B4
:1017D000DEB79A8389837C836B83E981FA81808178
:1017E0009181009789F1E981FA8126813781E98128
:1017F000FA81848D882F90E0820F931FE981FA810E
:1018000097838683E981FA8126813781E981FA818C
:10181000828193812817390740F0E981FA8180811C
:101820009181E981FA8197838683E981FA814681F2
:101830005781E981FA81848D282F30E08B819C814A
:10184000BA01A9010E94D6130F900F900F900F902C
:10185000CF91DF910895DF93CF9300D0CDB7DEB75E
:101860009A8389830FB6F8940F9215C0E981FA81A3
:1018700081898823A9F089819A8141960E9461110A
:10188000882311F00E943F12E981FA81868D8150F0
:10189000E981FA81868FE981FA81868D181634F301
:1018A000E981FA818FEF868F0F900FBE0FB6F89403
:1018B0000F9215C0E981FA8180858823A9F089817A
:1018C0009A8108960E946111882311F00E943F12AC
:1018D000E981FA81858D8150E981FA81858FE981DD
:1018E000FA81858D181634F3E981FA818FEF858F9F
:1018F0000F900FBE0F900F90CF91DF910895DF935F
:10190000CF9300D00F92CDB7DEB79B838A830FB6FB
:10191000F8940F92EA81FB81828D1982882311F459
:1019200081E089830F900FBE89810F900F900F90F7
:10193000CF91DF910895DF93CF9300D00F92CDB771
:10194000DEB79B838A83EA81FB81828D198288239B
:1019500011F481E0898389810F900F900F90CF91CE
:10196000DF910895DF93CF9300D00F92CDB7DEB70C
:101970009B838A830FB6F8940F92EA81FB81928D44
:10198000EA81FB81838D1982981711F481E08983A4
:101990000F900FBE89810F900F900F90CF91DF9124
:1019A0000895DF93CF9300D00F92CDB7DEB79B831E
:1019B0008A83EA81FB81928DEA81FB81838D198282
:1019C000981711F481E0898389810F900F900F900F
:1019D000CF91DF910895AF92BF92CF92DF92EF92B5
:1019E000FF920F931F93DF93CF93CDB7DEB764972A
:1019F0000FB6F894DEBF0FBECDBF9F838E8379876D
:101A000068875B874A873D872C870E87F88AEF8631
:101A1000DA8AC98ABC8AAB8A8A859B8529893A89F0
:101A2000B9010E9470139C838B838B819C810097EA
:101A300009F499C0EB81FC812789308D8A859B85CB
:101A40000197820F931F9A8389838B819C812885BC
:101A50003985EB89FC89AA85BB85B9014E859F0133
:101A60008D010E94551289819A812E813F814C857A
:101A70005D85B9010E947105EB81FC8191838083B2
:101A80008F859889009731F0EF85F8898B819C814B
:101A9000918380830FB6F8940F92809111038F5F2A
:101AA0008093110380910E0390910F03009769F4C6
:101AB0008B819C8190930F0380930E03809111037F
:101AC0008130A9F40E94AC1212C0809116038823C1
:101AD00071F4E0910E03F0910F0396898E858917BA
:101AE00030F08B819C8190930F0380930E03EB81E8
:101AF000FC81968980911403891728F4EB81FC817D
:101B000086898093140380911B038F5F80931B034E
:101B1000EB81FC81968980911503891728F4EB816C
:101B2000FC81868980931503EB81FC818689282FAF
:101B300030E0C901880F991F880F991F880F991FDE
:101B4000820F931FAC01445E5C4F8B819C819C0192
:101B50002E5F3F4FCA01B9010E94700481E08D835E
:101B60000F900FBE02C08FEF8D838D81813071F495
:101B700080911603882351F0E0910E03F0910F033A
:101B800096898E85981710F40E9430078D8164968F
:101B90000FB6F894DEBF0FBECDBFCF91DF911F917E
:101BA0000F91FF90EF90DF90CF90BF90AF9008958E
:101BB000DF93CF9300D000D000D0CDB7DEB79C83A9
:101BC0008B830FB6F8940F9220910E0330910F0380
:101BD0008B819C818217930711F41C821B828B815D
:101BE0009C81009739F480910E0390910F039E839E
:101BF0008D8304C08B819C819E838D838D819E818A
:101C00009A83898389819A8102960E942805E981B5
:101C1000FA8184899589009729F089819A810C96A7
:101C20000E94280589819A819C012E5F3F4F88E69A
:101C300093E0B9010E947004809110038F5F80933C
:101C4000100380911B038F5F80931B030F900FBEC7
:101C500080911603882331F08B819C81009711F4C9
:101C60000E94300726960FB6F894DEBF0FBECDBF98
:101C7000CF91DF910895DF93CF93CDB7DEB728974B
:101C80000FB6F894DEBF0FBECDBF9E838D837887DD
:101C90006F8319820E94270FED81FE81208131819F
:101CA0008F819885820F931F9C838B83ED81FE81AA
:101CB0002081318180911203909113038217930741
:101CC000A8F4ED81FE81208131818B819C81821776
:101CD000930700F520911203309113038B819C81AF
:101CE00028173907B8F481E0898314C0ED81FE819B
:101CF000208131818B819C818217930748F020914C
:101D00001203309113038B819C812817390710F43B
:101D100081E08983ED81FE818B819C819183808329
:101D20008981882359F080910E0390910F030296C8
:101D30000E9428058B819C810E9427130E94330FEB
:101D40008A838A81882311F40E94300728960FB66F
:101D5000F894DEBF0FBECDBFCF91DF910895DF9322
:101D6000CF9300D000D00F92CDB7DEB79D838C8388
:101D700019828C819D810097D1F00E94270F2091BC
:101D80001203309113038C819D81820F931F9B83DB
:101D90008A8380910E0390910F0302960E9428057A
:101DA0008A819B810E9427130E94330F8983898136
:101DB000882311F40E9430070F900F900F900F901E
:101DC0000F90CF91DF910895AF92BF92CF92DF92A3
:101DD000EF92FF920F93DF93CF930F92CDB7DEB7C1
:101DE00021E730E089E492E1B90145E550E020E0E7
:101DF00030E000E0EE24FF24CC24DD24AA24BB2420
:101E00000E94EB0C89838981813051F4F89481E040
:101E10008093160310921303109212030E94F4068B
:101E20000F90CF91DF910F91FF90EF90DF90CF90C7
:101E3000BF90AF900895DF93CF93CDB7DEB7F894FE
:101E4000109216030E942907CF91DF910895DF9326
:101E5000CF93CDB7DEB7809117038F5F80931703C1
:101E6000CF91DF910895DF93CF9300D000D0CDB70D
:101E7000DEB71A820FB6F8940F9280911703815043
:101E80008093170380911703882309F06AC080911B
:101E90001103882309F465C0198241C0E0916403ED
:101EA000F0916503868197819C838B838B819C81D4
:101EB0000C960E9428058B819C8102960E94280521
:101EC000EB81FC81968980911503891728F4EB81B9
:101ED000FC81868980931503EB81FC818689282FFC
:101EE00030E0C901880F991F880F991F880F991F2B
:101EF000820F931F845E9C4F2B813C812E5F3F4F4E
:101F0000B9010E947004EB81FC819689E0910E0377
:101F1000F0910F038689981710F081E089838091F2
:101F20005F03882309F0BACF80911803882361F0FA
:101F300007C00E94F00F809118038150809318030E
:101F4000809118038823A9F78981813021F080913D
:101F50001903813031F481E08A83109219030E94C1
:101F600030070F900FBE8A810F900F900F900F9047
:101F7000CF91DF910895DF93CF9300D0CDB7DEB737
:101F80000FB6F8940F9280911203909113039A83E5
:101F900089830F900FBE89819A810F900F90CF9106
:101FA000DF910895DF93CF9300D00F92CDB7DEB7C6
:101FB000198280911203909113039B838A838A81F3
:101FC0009B810F900F900F90CF91DF910895DF9339
:101FD000CF93CDB7DEB780911103CF91DF910895F4
:101FE000DF93CF9300D000D000D0CDB7DEB7809183
:101FF0001703882309F0BBC080911203909113034B
:102000000196909313038093120380911203909191
:1020100013030097D1F580915B0390915C039C833F
:102020008B8380915D0390915E0390935C0380931A
:102030005B038B819C8190935E0380935D03809111
:102040001A038F5F80931A03E0915B03F0915C03A6
:102050008081882339F48FEF9FEF909378008093ED
:10206000770013C0E0915B03F0915C030580F6817B
:10207000E02D868197819E838D83ED81FE81828113
:102080009381909378008093770020911203309190
:10209000130380917700909178002817390708F48E
:1020A0006BC0E0915B03F0915C038081882339F47D
:1020B0008FEF9FEF90937800809377005DC0E09161
:1020C0005B03F0915C030580F681E02D86819781AA
:1020D0009E838D83ED81FE81828193819A838983A2
:1020E000209112033091130389819A8128173907AF
:1020F00038F489819A8190937800809377003CC06E
:102100008D819E8102960E942805ED81FE81848941
:102110009589009729F08D819E810C960E94280553
:10212000ED81FE81968980911503891728F4ED8150
:10213000FE81868980931503ED81FE818689282F93
:1021400030E0C901880F991F880F991F880F991FC8
:10215000820F931FAC01445E5C4F8D819E819C0178
:102160002E5F3F4FCA01B9010E9470049ACF80913F
:1021700018038F5F8093180326960FB6F894DEBF7E
:102180000FBECDBFCF91DF910895DF93CF9300D0E5
:10219000CDB7DEB780911703882349F081E08093A3
:1021A000190354C0809115038150809315038091C9
:1021B0001503282F30E0C901880F991F880F991F38
:1021C000880F991F820F931FFC01E45EFC4F8081F2
:1021D000882341F380911503282F30E0C901880F2F
:1021E000991F880F991F880F991F820F931F845E74
:1021F0009C4F9A838983E981FA810180F281E02DE5
:1022000082819381E981FA8192838183E981FA81D4
:102210002181328189819A8103962817390759F4DF
:10222000E981FA810180F281E02D82819381E98147
:10223000FA8192838183E981FA810180F281E02D24
:102240008681978190930F0380930E030F900F90D8
:10225000CF91DF910895DF93CF9300D000D000D0CD
:10226000CDB7DEB79C838B837E836D834B815C818E
:1022700080910E0390910F039C01245F3F4FCA0190
:10228000B9010E94BC0480910E0390910F03029645
:102290000E94280520911203309113038D819E81A5
:1022A000820F931F9A83898389819A810E942713C1
:1022B00026960FB6F894DEBF0FBECDBFCF91DF914B
:1022C0000895DF93CF9300D000D00F92CDB7DEB743
:1022D0009D838C83EC81FD810580F681E02D8681D4
:1022E00097819B838A838A819B810C960E94280513
:1022F00080911703882361F58A819B8102960E9451
:102300002805EA81FB81968980911503891728F4B5
:10231000EA81FB81868980931503EA81FB818689A6
:10232000282F30E0C901880F991F880F991F880F47
:10233000991F820F931FAC01445E5C4F8A819B8181
:102340009C012E5F3F4FCA01B9010E9470040AC070
:102350008A819B819C01245F3F4F8FE593E0B90107
:102360000E947004EA81FB819689E0910E03F0914E
:102370000F038689981718F081E0898301C01982BC
:1023800089810F900F900F900F900F90CF91DF9158
:102390000895DF93CF9300D0CDB7DEB79A838983BA
:1023A00080911A03E981FA818083809112039091D0
:1023B0001303E981FA81928381830F900F90CF916B
:1023C000DF910895DF93CF9300D000D00F92CDB767
:1023D000DEB79B838A837D836C830FB6F8940F925C
:1023E000EA81FB81908180911A03981771F0EA814C
:1023F000FB81218132818091120390911303821716
:10240000930718F081E089832FC020911203309147
:102410001303EA81FB8181819281281B390BEC81B6
:10242000FD818081918128173907E0F4EC81FD81DD
:1024300040815181EA81FB812181328180911203A7
:1024400090911303B901681B790BCB01840F951F81
:10245000EC81FD81918380838A819B810E94C911D7
:10246000198202C081E089830F900FBE89810F908D
:102470000F900F900F900F90CF91DF910895DF9301
:10248000CF93CDB7DEB781E080931903CF91DF9171
:102490000895DF93CF9300D0CDB7DEB79A838983B9
:1024A0000E94E9120E943007FBCF0F931F93DF9326
:1024B000CF93CDB7DEB729970FB6F894DEBF0FBE26
:1024C000CDBF9A8389837C836B834D833F832E8327
:1024D0001987088789819A8149962B813C81B901A6
:1024E00044E150E00E94E613E981FA8114A68D814F
:1024F000853010F084E08D83E981FA818D81868BAF
:1025000089819A8102960E94600489819A810C9641
:102510000E946004E981FA8189819A81918780878C
:102520008D81282F30E085E090E0821B930BE981BC
:10253000FA8195878487E981FA8189819A81938BD1
:10254000828B29960FB6F894DEBF0FBECDBFCF9118
:10255000DF911F910F910895DF93CF930F92CDB725
:10256000DEB7198213C08981282F30E0C901880F96
:10257000991F880F991F880F991F820F931F845EE0
:102580009C4F0E94360489818F5F898389818530C1
:1025900050F389E493E00E94360482E593E00E94C0
:1025A00036048FE593E00E94360488E693E00E94AB
:1025B000360489E493E090935C0380935B0382E5A7
:1025C00093E090935E0380935D030F90CF91DF9132
:1025D0000895DF93CF9300D00F92CDB7DEB78091EF
:1025E0001003882371F10E94270F809168031B82DA
:1025F000882311F481E08B830E94330F8B81882321
:1026000001F50FB6F8940F92E0916D03F0916E030F
:10261000868197819A83898389819A8102960E9413
:10262000280580911103815080931103809110033C
:102630008150809310030F900FBE89819A810E9470
:10264000C0130F900F900F90CF91DF910895DF93FB
:10265000CF9300D0CDB7DEB79A838983E0910E0384
:10266000F0910F0389819A819383828320911203D1
:102670003091130389819A818217930770F48091B6
:102680005D0390915E0320910E0330910F032E5F46
:102690003F4FB9010E94BC041EC040915B035091A2
:1026A0005C0380910E0390910F039C012E5F3F4FBE
:1026B000CA01B9010E94BC042091770030917800D2
:1026C00089819A818217930730F489819A81909346
:1026D0007800809377000F900F90CF91DF9108954D
:1026E000DF93CF93CDB7DEB728970FB6F894DEBF50
:1026F0000FBECDBF9C838B837E836D838DE290E084
:102700000E94CA039A83898389819A81009769F11B
:102710008D819E81009739F48B819C810E94CA0330
:1027200098878F8304C08D819E8198878F83E981EC
:10273000FA818F819885908F878BE981FA818789CB
:10274000908D009739F489819A810E9410041A8231
:1027500019820BC0E981FA818789908D2B813C8198
:1027600065EA70E0A9010E94DF1389819A812896A9
:102770000FB6F894DEBF0FBECDBFCF91DF910895A5
:10278000DF93CF9300D0CDB7DEB79A838983E981F9
:10279000FA818789908D0E94100489819A810E9414
:1027A00010040F900F90CF91DF910895FB01DC0191
:1027B00002C001900D9241505040D8F70895DC01BD
:1027C00001C06D9341505040E0F70895FB01DC01DA
:1027D0004150504048F001900D920020C9F701C0CF
:0E27E0001D9241505040E0F70895F894FFCF4D
:1027EE005075736820427574746F6E004C6564206A
:0A27FE000049444C450001FFFF00B4
:00000001FF
