:100000000C942A000C9447000C9447000C94470071
:100010000C9447000C9447000C9447000C94FF0785
:100020000C9447000C9447000C9447000C94470034
:100030000C9447000C9447000C9447000C94470024
:100040000C9447000C9447000C9447000C94470014
:100050000C94470011241FBECFE5D8E0DEBFCDBF12
:1000600010E0A0E6B0E0ECE6F7E202C005900D92E9
:10007000A437B107D9F713E0A4E7B0E001C01D929F
:10008000AF36B107E1F70E9449000C94B4130C9409
:100090000000AF92BF92CF92DF92EF92FF920F9348
:1000A000DF93CF93CDB7DEB7A7E3B0E0E7E3F0E0AF
:1000B000808181608C9320E630E08FE890E0E4E777
:1000C000F0E0B90145E550E020E030E002E07F01DA
:1000D000CC24DD24AA24BB240E94AA0C26E630E00E
:1000E0008EE990E0E6E7F0E0B90145E550E020E078
:1000F00030E003E07F01CC24DD24AA24BB240E944D
:10010000AA0C0E94A30E80E090E0CF91DF910F91A6
:10011000FF90EF90DF90CF90BF90AF900895DF9366
:10012000CF9300D0CDB7DEB79A838983A8E3B0E040
:10013000E8E3F0E0808181608C93F8CFDF93CF9388
:1001400000D0CDB7DEB79A83898380ED97E00E9417
:100150006E0EA8E3B0E0E8E3F0E080818E7F8C9340
:10016000F8CFDF93CF93CDB7DEB727970FB6F894CC
:10017000DEBF0FBECDBF9D838C836E834F838AE12C
:1001800090E00E9489039A83898389819A810097EC
:1001900009F46FC08091780090917900009741F444
:1001A00089819A8190937900809378000E94180346
:1001B0008E81823010F081E08E83E981FA81118E88
:1001C000108EE981FA818E81868BE981FA818F8197
:1001D000878BE981FA818C819D81918380838981DC
:1001E0009A8102960E941F0489819A810C960E942E
:1001F0001F04E981FA8189819A8191878087E98149
:10020000FA8189819A81938B828B8E81282F30E0AD
:1002100085E090E0821B930BE981FA8195878487C2
:10022000E981FA81968980917A00891728F4E98119
:10023000FA81868980937A00E981FA818689282F5C
:1002400030E0C901880F991F880F991F880F991FE7
:10025000820F931FAC014F575F4F89819A819C0198
:100260002E5F3F4FCA01B9010E942F0481E08B83AA
:1002700002C08FEF8B838B8127960FB6F894DEBF79
:100280000FBECDBFCF91DF910895DF93CF9300D004
:1002900000D000D0CDB7DEB79C838B837E836D8387
:1002A00020917B0030917C008B819C81820F931F79
:1002B0009A838983809178009091790002960E94B8
:1002C000E704E0917800F091790089819A81938325
:1002D000828320917B0030917C0089819A818217F2
:1002E000930770F48091A7009091A8002091780066
:1002F000309179002E5F3F4FB9010E947B040DC001
:100300008091A5009091A60020917800309179000D
:100310002E5F3F4FB9010E947B048D819E81009723
:1003200061F080917800909179009C01245F3F4FAB
:100330008D819E81B9010E947B0426960FB6F894A8
:10034000DEBF0FBECDBFCF91DF910895DF93CF9376
:1003500000D0CDB7DEB73AC0F894E091AE00F0918E
:10036000AF00868197819A83898389819A810C96CF
:100370000E94E704789489819A8102960E94E7049A
:10038000E981FA81968980917A00891728F4E981B8
:10039000FA81868980937A00E981FA818689282FFB
:1003A00030E0C901880F991F880F991F880F991F86
:1003B000820F931FAC014F575F4F89819A819C0137
:1003C0002E5F3F4FCA01B9010E942F048091A900FE
:1003D000882309F0C1CF0F900F90CF91DF9108953E
:1003E000DF93CF9300D000D0CDB7DEB70E947A0F55
:1003F00020917D0030917E00821B930B90938000B2
:1004000080937F0085C080917B0090917C00019655
:1004100090937C0080937B0080917F00909180007E
:1004200001979093800080937F0080917B00909152
:100430007C00009709F064C08091A5009091A6000F
:100440009A8389838091A7009091A8009093A60039
:100450008093A50089819A819093A8008093A7003A
:100460004FC0E091A500F091A6000580F681E02D37
:10047000868197819C838B83EB81FC8122813381F0
:1004800080917B0090917C008217930708F440C014
:10049000F8948B819C8102960E94E704EB81FC8199
:1004A00084899589009729F08B819C810C960E9404
:1004B000E7047894EB81FC81968980917A00891712
:1004C00028F4EB81FC81868980937A00EB81FC81A2
:1004D0008689282F30E0C901880F991F880F991F3E
:1004E000880F991F820F931FAC014F575F4F8B816D
:1004F0009C819C012E5F3F4FCA01B9010E942F04CD
:10050000E091A500F091A6008081882309F0A9CF91
:1005100080917F0090918000009709F074CF8091C6
:100520007B0090917C0090937E0080937D000F90E3
:100530000F900F900F90CF91DF910895DF93CF939D
:1005400000D0CDB7DEB70E94A6010E94F0010AC01C
:1005500080917A00882309F466C080917A008150E6
:1005600080937A0080917A00282F30E0C901880FAB
:10057000991F880F991F880F991F820F931FFC01E5
:10058000EF57FF4F8081882319F380917A00282F3D
:1005900030E0C901880F991F880F991F880F991F94
:1005A000820F931F8F579F4F9A838983E981FA8126
:1005B0000180F281E02D82819381E981FA81928329
:1005C0008183E981FA812181328189819A8103962F
:1005D0002817390759F4E981FA810180F281E02D69
:1005E00082819381E981FA8192838183E981FA8111
:1005F0000180F281E02D868197819093790080932C
:100600007800E0917800F0917900408151818091EB
:10061000780090917900E0917800F0917900278935
:10062000622FFA0109950F900F90CF91DF910895F5
:10063000DF93CF930F92CDB7DEB7198213C08981B4
:10064000282F30E0C901880F991F880F991F880F44
:10065000991F820F931F8F579F4F0E94F503898127
:100660008F5F89838981823050F383E990E00E9413
:10067000F5038CE990E00E94F50389EA90E00E947E
:10068000F50383E990E09093A6008093A5008CE9A0
:1006900090E09093A8008093A7000F90CF91DF91F6
:1006A0000895DF93CF9300D000D00F92CDB7DEB77F
:1006B0009D838C83EC81FD810580F681E02D868110
:1006C00097819B838A838A819B810C960E94E70491
:1006D0008A819B819C01245F3F4F89EA90E0B901A8
:1006E0000E942F04EA81FB819689E0917800F091C5
:1006F00079008689981718F081E0898301C01982F2
:1007000089810F900F900F900F900F90CF91DF91F4
:100710000895DF93CF9300D000D0CDB7DEB79C8390
:100720008B831A8219820E94E60E8091B20090910A
:10073000B3002B813C81820F931F22E08835920702
:1007400018F52091B2003091B3008B819C81280F65
:10075000391F8091B2009091B30082179307A0F4E3
:100760008091B2009091B3008C549F4F9A838983FB
:100770002091B2003091B3008B819C81820F931F36
:100780009093B3008093B2000E94F20E89819A8107
:100790000F900F900F900F90CF91DF910895DF93FE
:1007A000CF9300D0CDB7DEB79A8389830F900F9097
:1007B000CF91DF910895DF93CF93CDB7DEB710923D
:1007C000B3001092B200CF91DF910895DF93CF93E1
:1007D000CDB7DEB72091B2003091B30088E592E04A
:1007E000821B930BCF91DF910895DF93CF9300D0BD
:1007F000CDB7DEB79A83898389819A810396E9818F
:10080000FA8192838183E981FA818FEF9FEF94834C
:10081000838389819A810396E981FA81968385830E
:1008200089819A810396E981FA8190878783E9819A
:10083000FA8110820F900F90CF91DF910895DF938E
:10084000CF9300D0CDB7DEB79A838983E981FA814F
:10085000118610860F900F90CF91DF910895DF934E
:10086000CF9300D000D000D0CDB7DEB79C838B8370
:100870007E836D83EB81FC81818192819A83898360
:10088000E981FA8182819381ED81FE819383828364
:10089000EB81FC8181819281ED81FE81958384834E
:1008A000E981FA810280F381E02D8D819E8195831B
:1008B00084838D819E81E981FA81938382838D81F6
:1008C0009E81EB81FC8192838183ED81FE818B810E
:1008D0009C8191878087EB81FC8180818F5FEB8198
:1008E000FC81808326960FB6F894DEBF0FBECDBF85
:1008F000CF91DF910895DF93CF93CDB7DEB72897DF
:100900000FB6F894DEBF0FBECDBF9E838D83788770
:100910006F83EF81F885808191819A8389838981B2
:100920009A812FEF8F3F920739F4ED81FE81878105
:1009300090859C838B8318C08D819E8103969C83B8
:100940008B8306C0EB81FC81828193819C838B83A6
:10095000EB81FC810280F381E02D2081318189814E
:100960009A818217930770F7EB81FC8182819381D2
:10097000EF81F88593838283EF81F8850280F3818C
:10098000E02D8F81988595838483EF81F8858B8115
:100990009C81958384838F819885EB81FC819383EF
:1009A0008283EF81F8858D819E8191878087ED819B
:1009B000FE8180818F5FED81FE81808328960FB656
:1009C000F894DEBF0FBECDBFCF91DF910895DF93C6
:1009D000CF9300D000D0CDB7DEB79C838B83EB8163
:1009E000FC81A281B381EB81FC8184819581159684
:1009F0009C938E931497EB81FC81A481B581EB814C
:100A0000FC818281938113969C938E931297EB8144
:100A1000FC81808591859A838983E981FA8121818E
:100A200032818B819C812817390741F4EB81FC814D
:100A300084819581E981FA8192838183EB81FC81B4
:100A400011861086E981FA8180818150E981FA81DD
:100A500080830F900F900F900F90CF91DF910895AA
:100A6000DF93CF93CDB7DEB728970FB6F894DEBFEC
:100A70000FBECDBF9C838B837E836D8358874F834E
:100A8000EB81FC8181E180838B819C8101979C8338
:100A90008B83EB81FC8182E280838B819C81019737
:100AA0009C838B83EB81FC8183E380838B819C819E
:100AB00001979C838B838D819E819A838983898111
:100AC000EB81FC8180838B819C8101979C838B834C
:100AD00089819A81892F99279A8389838981EB81DA
:100AE000FC8180838B819C8101979C838B83EB812C
:100AF000FC8110828B819C8101979C838B83EB818D
:100B0000FC8180E880838B819C8101979C838B830F
:100B1000EB81FC8110828B819C8101979C838B836C
:100B2000EB81FC8182E080838B819C8101979C8397
:100B30008B83EB81FC8183E080838B819C81019797
:100B40009C838B83EB81FC8184E080838B819C81FF
:100B500001979C838B83EB81FC8185E080838B8173
:100B60009C8101979C838B83EB81FC8186E0808351
:100B70008B819C8101979C838B83EB81FC8187E037
:100B800080838B819C8101979C838B83EB81FC818B
:100B900088E080838B819C8101979C838B83EB8190
:100BA000FC8189E080838B819C8101979C838B836E
:100BB000EB81FC8180E180838B819C8101979C8308
:100BC0008B83EB81FC8181E180838B819C81019708
:100BD0009C838B83EB81FC8182E180838B819C8170
:100BE00001979C838B83EB81FC8183E180838B81E4
:100BF0009C8101979C838B83EB81FC8184E18083C2
:100C00008B819C8101979C838B83EB81FC8185E1A7
:100C100080838B819C8101979C838B83EB81FC81FA
:100C200086E180838B819C8101979C838B83EB8100
:100C3000FC8187E180838B819C8101979C838B83DE
:100C4000EB81FC8188E180838B819C8101979C836F
:100C50008B83EB81FC8189E180838B819C8101976F
:100C60009C838B83EB81FC8180E280838B819C81E0
:100C700001979C838B83EB81FC8181E280838B8154
:100C80009C8101979C838B83EB81FC8182E2808332
:100C90008B819C8101979C838B83EB81FC8183E218
:100CA00080838B819C8101979C838B838F81988526
:100CB0009A8389838981EB81FC8180838B819C81EC
:100CC00001979C838B8389819A81892F99279A83A5
:100CD00089838981EB81FC8180838B819C81019751
:100CE0009C838B83EB81FC8186E280838B819C815A
:100CF00001979C838B83EB81FC8187E280838B81CE
:100D00009C8101979C838B83EB81FC8188E28083AB
:100D10008B819C8101979C838B83EB81FC8189E291
:100D200080838B819C8101979C838B83EB81FC81E9
:100D300080E380838B819C8101979C838B83EB81F3
:100D4000FC8181E380838B819C8101979C838B83D1
:100D50008B819C8128960FB6F894DEBF0FBECDBF65
:100D6000CF91DF910895DF93CF93CDB7DEB70E9487
:100D7000A307A0910C03B0910D03CD91CDBFDD91E0
:100D8000DEBFFF91EF91DF91CF91BF91AF919F9126
:100D90008F917F916F915F914F913F912F911F9113
:100DA0000F91FF90EF90DF90CF90BF90AF909F900A
:100DB0008F907F906F905F904F903F902F901F90FB
:100DC0000F900FBE0F90089581E0CF91DF910895AD
:100DD000DF93CF93CDB7DEB7CF91DF9108950F9218
:100DE0000FB6F8940F921F9211242F923F924F92B8
:100DF0005F926F927F928F929F92AF92BF92CF92AB
:100E0000DF92EF92FF920F931F932F933F934F9395
:100E10005F936F937F938F939F93AF93BF93CF9382
:100E2000DF93EF93FF93A0910C03B0910D030DB6E8
:100E30000D920EB60D920E948410A0910C03B091F9
:100E40000D03CD91CDBFDD91DEBFFF91EF91DF911D
:100E5000CF91BF91AF919F918F917F916F915F9152
:100E60004F913F912F911F910F91FF90EF90DF9045
:100E7000CF90BF90AF909F908F907F906F905F903A
:100E80004F903F902F901F900F900FBE0F9008959E
:100E90000F920FB6F8940F921F9211242F923F9247
:100EA0004F925F926F927F928F929F92AF92BF927A
:100EB000CF92DF92EF92FF920F931F932F933F9366
:100EC0004F935F936F937F938F939F93AF93BF9352
:100ED000CF93DF93EF93FF93A0910C03B0910D0399
:100EE0000DB60D920EB60D920E94AF0F0E948410A7
:100EF000A0910C03B0910D03CD91CDBFDD91DEBF6C
:100F0000FF91EF91DF91CF91BF91AF919F918F9121
:100F10007F916F915F914F913F912F911F910F9111
:100F2000FF90EF90DF90CF90BF90AF909F908F9009
:100F30007F906F905F904F903F902F901F900F90F9
:100F40000FBE0F900895DF93CF9300D000D000D054
:100F5000CDB7DEB780E49FE1A0E0B0E08B839C8357
:100F6000AD83BE838B819C81AD81BE81689415F871
:100F7000B695A795979587951694D1F78B839C8303
:100F8000AD83BE838B819C81AD81BE810197A10918
:100F9000B1098B839C83AD83BE838B8189838B81D5
:100FA0009C81AD81BE81892F9A2FAB2FBB278B836C
:100FB0009C83AD83BE838B818A83EBE4F0E08A81DE
:100FC0008083EAE4F0E0898180838BE08983EEE42A
:100FD000F0E089818083E9E5F0E08081898389817F
:100FE00080618983E9E5F0E08981808326960FB6E8
:100FF000F894DEBF0FBECDBFCF91DF9108951F9251
:101000000F920FB60F9211242F933F934F935F933C
:101010006F937F938F939F93AF93BF93EF93FF93C0
:10102000DF93CF93CDB7DEB70E94AF0FCF91DF91A3
:10103000FF91EF91BF91AF919F918F917F916F91B0
:101040005F914F913F912F910F900FBE0F901F9086
:101050001895DF93CF93CDB7DEB728970FB6F894E6
:10106000DEBF0FBECDBF8F8368871A8219828F8142
:10107000882309F48CC08FE190E00E9489039E834D
:101080008D838D819E81009709F481C08F81282FE7
:1010900030E08885882F90E0AC01249FC001259F17
:1010A000900D349F900D112401969C838B838B812E
:1010B0009C810E948903ED81FE8191838083ED8173
:1010C000FE8180819181009709F45DC0ED81FE81F0
:1010D000408151818F81282F30E08885882F90E0D2
:1010E000BC01269FC001279F900D369F900D1124B3
:1010F000840F951FED81FE8193838283ED81FE81B4
:10110000128EED81FE8180819181ED81FE8195833A
:101110008483ED81FE81408151818F81882F90E011
:101120009C01215030408885882F90E0BC01269F8B
:10113000C001279F900D369F900D1124840F951F9D
:10114000ED81FE8197838683ED81FE818F81838F80
:10115000ED81FE818885848FED81FE818FEF858F03
:10116000ED81FE818FEF868F8D819E8108960E9492
:10117000F5038D819E8141960E94F5038D819E81AC
:101180009A83898304C08D819E810E94CF038981C7
:101190009A8128960FB6F894DEBF0FBECDBFCF91CF
:1011A000DF910895DF93CF93CDB7DEB72C970FB6BD
:1011B000F894DEBF0FBECDBF9E838D8378876F838B
:1011C0005A8749872B8719820FB6F8940F92ED81C1
:1011D000FE81928DED81FE81838D9817D8F48D81EB
:1011E0009E812F813885B9014B850E940D0BED81C1
:1011F000FE818189882349F08D819E8141960E94DC
:101200002011813011F40E94EF060F900FBE81E093
:101210008C875CC089859A85009721F40F900FBE5A
:101220001C8654C08981882331F4CE0102960E9425
:10123000881181E089830F900FBE0E94E60E0FB6E1
:10124000F8940F92ED81FE81858D8F3F19F4ED8129
:10125000FE81158EED81FE81868D8F3F19F4ED8123
:10126000FE81168E0F900FBECE0102969E01275F63
:101270003F4FB9010E94A111882309F58D819E81FC
:101280000E94710C8823A1F08D819E81089629858A
:101290003A85B9010E94EA108D819E810E94EA0B75
:1012A0000E94F20E882309F08FCF0E94EF068CCFA8
:1012B0008D819E810E94EA0B0E94F20E85CF8D8166
:1012C0009E810E94EA0B0E94F20E1C868C852C9651
:1012D0000FB6F894DEBF0FBECDBFCF91DF9108955A
:1012E000DF93CF93CDB7DEB729970FB6F894DEBF63
:1012F0000FBECDBF9C838B837E836D8358874F83C6
:1013000029871982EB81FC81928DEB81FC81838D91
:10131000981740F58B819C812D813E81B9014985CB
:101320000E940D0BEB81FC81868D8F3F89F4EB8150
:10133000FC818189882399F08B819C8141960E9450
:101340002011882361F0EF81F88581E0808307C058
:10135000EB81FC81868D8F5FEB81FC81868F81E044
:101360008A8301C01A828A8129960FB6F894DEBF5B
:101370000FBECDBFCF91DF910895DF93CF93CDB74F
:10138000DEB72E970FB6F894DEBF0FBECDBF98879D
:101390008F837A8769875C874B872D871B820FB67F
:1013A000F8940F92EF81F885828D882309F43FC06D
:1013B000EF81F885868197819A8389838F819885CB
:1013C00029853A85B9010E94A20B8D858823B1F445
:1013D000EF81F885828D8150EF81F885828FEF81D2
:1013E000F88580858823F1F08F81988508960E9482
:1013F00020118130B9F40E94EF0614C0EF81F88506
:1014000089819A8197838683EF81F88581898823F2
:1014100049F08F81988541960E942011882311F010
:101420000E94EF060F900FBE81E08E875CC08B8517
:101430009C85009721F40F900FBE1E8654C08B81AF
:10144000882331F4CE0104960E94881181E08B83B9
:101450000F900FBE0E94E60E0FB6F8940F92EF8128
:10146000F885858D8F3F19F4EF81F885158EEF8112
:10147000F885868D8F3F19F4EF81F885168E0F90D1
:101480000FBECE0104969E01255F3F4FB9010E9419
:10149000A111882309F58F8198850E943E0C88232D
:1014A000A1F08F81988541962B853C85B9010E94DA
:1014B000EA108F8198850E94EA0B0E94F20E882321
:1014C00009F06DCF0E94EF066ACF8F8198850E9448
:1014D000EA0B0E94F20E63CF8F8198850E94EA0B7F
:1014E0000E94F20E1E868E852E960FB6F894DEBFF1
:1014F0000FBECDBFCF91DF910895DF93CF93CDB7CE
:10150000DEB728970FB6F894DEBF0FBECDBF9C8321
:101510008B837E836D8358874F831982EB81FC8197
:10152000828D882371F18B819C812D813E81B9014F
:101530000E94A20BEB81FC81828D8150EB81FC81AA
:10154000828FEB81FC81858D8F3F89F4EB81FC815B
:101550008085882399F08B819C8108960E942011B8
:10156000882361F0EF81F88581E0808307C0EB81FB
:10157000FC81858D8F5FEB81FC81858F81E08A8383
:1015800001C01A828A8128960FB6F894DEBF0FBE7A
:10159000CDBFCF91DF910895DF93CF9300D00F920D
:1015A000CDB7DEB79B838A830FB6F8940F92EA819A
:1015B000FB81828D89830F900FBE89810F900F90E0
:1015C0000F90CF91DF910895DF93CF9300D00F92CA
:1015D000CDB7DEB79B838A83EA81FB81828D8983C5
:1015E00089810F900F900F90CF91DF910895DF9335
:1015F000CF9300D0CDB7DEB79A838983E981FA8192
:10160000808191810E94CF0389819A810E94CF03BA
:101610000F900F90CF91DF910895DF93CF9300D07B
:1016200000D00F92CDB7DEB79A8389837C836B831A
:101630004D83E981FA81848D882309F474C08D81FA
:10164000882399F5E981FA8164817581E981FA81BC
:10165000848D482F50E02B813C81CB01B9010E9441
:101660009513E981FA8124813581E981FA81848D9C
:10167000882F90E0820F931FE981FA8195838483FC
:10168000E981FA8124813581E981FA81828193811E
:101690002817390708F447C0E981FA8180819181D0
:1016A000E981FA81958384833EC0E981FA8166816C
:1016B0007781E981FA81848D482F50E02B813C812C
:1016C000CB01B9010E949513E981FA812681378106
:1016D000E981FA81848D882F90E0909581959F4FC4
:1016E000820F931FE981FA8197838683E981FA81CA
:1016F00026813781E981FA81808191812817390714
:1017000090F4E981FA8122813381E981FA81848D23
:10171000882F90E0909581959F4F820F931FE981CC
:10172000FA8197838683E981FA81828D8F5FE981CF
:10173000FA81828F0F900F900F900F900F90CF91A2
:10174000DF910895DF93CF9300D000D0CDB7DEB7FF
:101750009A8389837C836B83E981FA81808191817B
:10176000009789F1E981FA8126813781E981FA813F
:10177000848D882F90E0820F931FE981FA819783EF
:101780008683E981FA8126813781E981FA81828124
:1017900093812817390740F0E981FA81808191818E
:1017A000E981FA8197838683E981FA8146815781AD
:1017B000E981FA81848D282F30E08B819C81BA01E8
:1017C000A9010E9495130F900F900F900F90CF9149
:1017D000DF910895DF93CF9300D0CDB7DEB79A8322
:1017E00089830FB6F8940F9215C0E981FA81818937
:1017F0008823A9F089819A8141960E94201188232B
:1018000011F00E94FE11E981FA81868D8150E981F3
:10181000FA81868FE981FA81868D181634F3E98181
:10182000FA818FEF868F0F900FBE0FB6F8940F924C
:1018300015C0E981FA8180858823A9F089819A8180
:1018400008960E942011882311F00E94FE11E98160
:10185000FA81858D8150E981FA81858FE981FA814C
:10186000858D181634F3E981FA818FEF858F0F90FB
:101870000FBE0F900F90CF91DF910895DF93CF931C
:1018800000D00F92CDB7DEB79B838A830FB6F89452
:101890000F92EA81FB81828D1982882311F481E005
:1018A00089830F900FBE89810F900F900F90CF9179
:1018B000DF910895DF93CF9300D00F92CDB7DEB7BD
:1018C0009B838A83EA81FB81828D1982882311F4AC
:1018D00081E0898389810F900F900F90CF91DF91E4
:1018E0000895DF93CF9300D00F92CDB7DEB79B83DF
:1018F0008A830FB6F8940F92EA81FB81928DEA8178
:10190000FB81838D1982981711F481E089830F90F0
:101910000FBE89810F900F900F90CF91DF910895A6
:10192000DF93CF9300D00F92CDB7DEB79B838A832E
:10193000EA81FB81928DEA81FB81838D1982981760
:1019400011F481E0898389810F900F900F90CF91DE
:10195000DF910895AF92BF92CF92DF92EF92FF9204
:101960000F931F93DF93CF93CDB7DEB764970FB676
:10197000F894DEBF0FBECDBF9F838E8379876887C3
:101980005B874A873D872C870E87F88AEF86DA8A3D
:10199000C98ABC8AAB8A8A859B8529893A89B9011B
:1019A0000E942F139C838B838B819C81009709F469
:1019B00099C0EB81FC812789308D8A859B850197B1
:1019C000820F931F9A8389838B819C812885398517
:1019D000EB89FC89AA85BB85B9014E859F018D01E4
:1019E0000E94141289819A812E813F814C855D85E8
:1019F000B9010E943005EB81FC81918380838F8542
:101A00009889009731F0EF85F8898B819C819183CB
:101A100080830FB6F8940F9280910F038F5F8093AD
:101A20000F0380910C0390910D03009769F48B8153
:101A30009C8190930D0380930C0380910F03813060
:101A4000A9F40E946B1212C080911403882371F4D0
:101A5000E0910C03F0910D0396898E85891730F083
:101A60008B819C8190930D0380930C03EB81FC810F
:101A7000968980911203891728F4EB81FC8186896D
:101A800080931203809119038F5F80931903EB8178
:101A9000FC81968980911303891728F4EB81FC81DE
:101AA000868980931303EB81FC818689282F30E09F
:101AB000C901880F991F880F991F880F991F820FDE
:101AC000931FAC01465E5C4F8B819C819C012E5F15
:101AD0003F4FCA01B9010E942F0481E08D830F900E
:101AE0000FBE02C08FEF8D838D81813071F48091A4
:101AF0001403882351F0E0910C03F0910D039689B3
:101B00008E85981710F40E94EF068D8164960FB6AB
:101B1000F894DEBF0FBECDBFCF91DF911F910F9123
:101B2000FF90EF90DF90CF90BF90AF900895DF933C
:101B3000CF9300D000D000D0CDB7DEB79C838B838D
:101B40000FB6F8940F9220910C0330910D038B8106
:101B50009C818217930711F41C821B828B819C81CC
:101B6000009739F480910C0390910D039E838D832F
:101B700004C08B819C819E838D838D819E819A83FD
:101B8000898389819A8102960E94E704E981FA811A
:101B900084899589009729F089819A810C960E9401
:101BA000E70489819A819C012E5F3F4F86E693E08E
:101BB000B9010E942F0480910E038F5F80930E0362
:101BC000809119038F5F809319030F900FBE80914E
:101BD0001403882331F08B819C81009711F40E94BB
:101BE000EF0626960FB6F894DEBF0FBECDBFCF919D
:101BF000DF910895DF93CF93CDB7DEB728970FB667
:101C0000F894DEBF0FBECDBF9E838D8378876F8330
:101C100019820E94E60EED81FE81208131818F8143
:101C20009885820F931F9C838B83ED81FE81208199
:101C30003181809110039091110382179307A8F4CA
:101C4000ED81FE81208131818B819C8182179307F8
:101C500000F520911003309111038B819C8128178E
:101C60003907B8F481E0898314C0ED81FE812081B9
:101C700031818B819C818217930748F0209110035A
:101C8000309111038B819C812817390710F481E072
:101C90008983ED81FE818B819C8191838083898101
:101CA000882359F080910C0390910D0302960E94B5
:101CB000E7048B819C810E94E6120E94F20E8A83C7
:101CC0008A81882311F40E94EF0628960FB6F894B3
:101CD000DEBF0FBECDBFCF91DF910895DF93CF93CD
:101CE00000D000D00F92CDB7DEB79D838C831982D0
:101CF0008C819D810097D1F00E94E60E2091100307
:101D0000309111038C819D81820F931F9B838A8365
:101D100080910C0390910D0302960E94E7048A8142
:101D20009B810E94E6120E94F20E8983898188239A
:101D300011F40E94EF060F900F900F900F900F90EC
:101D4000CF91DF910895AF92BF92CF92DF92EF9241
:101D5000FF920F93DF93CF930F92CDB7DEB72CE6B0
:101D600030E088E092E1B90145E550E020E030E064
:101D700000E0EE24FF24CC24DD24AA24BB240E940E
:101D8000AA0C89838981813051F4F89481E0809391
:101D9000140310921103109210030E94B3060F90C7
:101DA000CF91DF910F91FF90EF90DF90CF90BF9098
:101DB000AF900895DF93CF93CDB7DEB7F89410922C
:101DC00014030E94E806CF91DF910895DF93CF932B
:101DD000CDB7DEB7809115038F5F80931503CF9148
:101DE000DF910895DF93CF9300D000D0CDB7DEB759
:101DF0001A820FB6F8940F92809115038150809348
:101E0000150380911503882309F06AC080910F03A0
:101E1000882309F465C0198241C0E0916203F09102
:101E20006303868197819C838B838B819C810C9635
:101E30000E94E7048B819C8102960E94E704EB815B
:101E4000FC81968980911303891728F4EB81FC812A
:101E5000868980931303EB81FC818689282F30E0EB
:101E6000C901880F991F880F991F880F991F820F2A
:101E7000931F865E9C4F2B813C812E5F3F4FB901A3
:101E80000E942F04EB81FC819689E0910C03F09174
:101E90000D038689981710F081E0898380915D0396
:101EA000882309F0BACF80911603882361F007C018
:101EB0000E94AF0F8091160381508093160380918A
:101EC00016038823A9F78981813021F080911703B7
:101ED000813031F481E08A83109217030E94EF066B
:101EE0000F900FBE8A810F900F900F900F90CF919F
:101EF000DF910895DF93CF9300D0CDB7DEB70FB653
:101F0000F8940F9280911003909111039A83898322
:101F10000F900FBE89819A810F900F90CF91DF9122
:101F20000895DF93CF9300D00F92CDB7DEB719821B
:101F300080911003909111039B838A838A819B81F6
:101F40000F900F900F90CF91DF910895DF93CF9373
:101F5000CDB7DEB780910F03CF91DF910895DF9366
:101F6000CF9300D000D000D0CDB7DEB7809115035D
:101F7000882309F0BBC08091100390911103019652
:101F8000909311038093100380911003909111039B
:101F90000097D1F58091590390915A039C838B83CC
:101FA00080915B0390915C0390935A038093590353
:101FB0008B819C8190935C0380935B0380911803D9
:101FC0008F5F80931803E0915903F0915A03808149
:101FD000882339F48FEF9FEF909372008093710004
:101FE00013C0E0915903F0915A030580F681E02D6A
:101FF000868197819E838D83ED81FE81828193818D
:10200000909372008093710020911003309111031E
:1020100080917100909172002817390708F46BC005
:10202000E0915903F0915A038081882339F48FEFAE
:102030009FEF90937200809371005DC0E09159030F
:10204000F0915A030580F681E02D868197819E8369
:102050008D83ED81FE81828193819A838983209192
:1020600010033091110389819A812817390738F4B8
:1020700089819A8190937200809371003CC08D8118
:102080009E8102960E94E704ED81FE8184899589F4
:10209000009729F08D819E810C960E94E704ED81C6
:1020A000FE81968980911303891728F4ED81FE81C2
:1020B000868980931303ED81FE818689282F30E085
:1020C000C901880F991F880F991F880F991F820FC8
:1020D000931FAC01465E5C4F8D819E819C012E5FFB
:1020E0003F4FCA01B9010E942F049ACF8091160375
:1020F0008F5F8093160326960FB6F894DEBF0FBE4F
:10210000CDBFCF91DF910895DF93CF9300D0CDB7AE
:10211000DEB780911503882349F081E0809317038F
:1021200054C0809113038150809313038091130353
:10213000282F30E0C901880F991F880F991F880F39
:10214000991F820F931FFC01E65EFC4F808188235C
:1021500041F380911303282F30E0C901880F991FA4
:10216000880F991F880F991F820F931F865E9C4FBF
:102170009A838983E981FA810180F281E02D82814D
:102180009381E981FA8192838183E981FA812181B6
:10219000328189819A8103962817390759F4E98198
:1021A000FA810180F281E02D82819381E981FA81B7
:1021B00092838183E981FA810180F281E02D868119
:1021C000978190930D0380930C030F900F90CF9104
:1021D000DF910895DF93CF9300D000D000D0CDB72A
:1021E000DEB79C838B837E836D834B815C81809182
:1021F0000C0390910D039C01245F3F4FCA01B9016C
:102200000E947B0480910C0390910D0302960E9422
:10221000E70420911003309111038D819E81820F7C
:10222000931F9A83898389819A810E94E612269658
:102230000FB6F894DEBF0FBECDBFCF91DF910895EA
:10224000DF93CF9300D000D00F92CDB7DEB79D8340
:102250008C83EC81FD810580F681E02D868197815C
:102260009B838A838A819B810C960E94E7048091DC
:102270001503882361F58A819B8102960E94E704F9
:10228000EA81FB81968980911303891728F4EA81FA
:10229000FB81868980931303EA81FB818689282F3D
:1022A00030E0C901880F991F880F991F880F991F67
:1022B000820F931FAC01465E5C4F8A819B819C011B
:1022C0002E5F3F4FCA01B9010E942F040AC08A81C4
:1022D0009B819C01245F3F4F8DE593E0B9010E94F3
:1022E0002F04EA81FB819689E0910C03F0910D03A4
:1022F0008689981718F081E0898301C01982898145
:102300000F900F900F900F900F90CF91DF91089545
:10231000DF93CF9300D0CDB7DEB79A8389838091C6
:102320001803E981FA818083809110039091110351
:10233000E981FA81928381830F900F90CF91DF9191
:102340000895DF93CF9300D000D00F92CDB7DEB7C2
:102350009B838A837D836C830FB6F8940F92EA8106
:10236000FB81908180911803981771F0EA81FB81BD
:10237000218132818091100390911103821793077C
:1023800018F081E089832FC0209110033091110350
:10239000EA81FB8181819281281B390BEC81FD81CF
:1023A0008081918128173907E0F4EC81FD8140811B
:1023B0005181EA81FB8121813281809110039091CA
:1023C0001103B901681B790BCB01840F951FEC81B8
:1023D000FD81918380838A819B810E94881119826B
:1023E00002C081E089830F900FBE89810F900F900A
:1023F0000F900F900F90CF91DF910895DF93CF93BF
:10240000CDB7DEB781E080931703CF91DF910895B8
:10241000DF93CF9300D0CDB7DEB79A8389830E9434
:10242000A8120E94EF06FBCF0F931F93DF93CF9369
:10243000CDB7DEB729970FB6F894DEBF0FBECDBF7C
:102440009A8389837C836B834D833F832E83198793
:10245000088789819A8149962B813C81B90148E09E
:1024600050E00E94A513E981FA8110A28D81853088
:1024700010F084E08D83E981FA818D81868B8981DA
:102480009A8102960E941F0489819A810C960E946B
:102490001F04E981FA8189819A81918780878D81E2
:1024A000282F30E085E090E0821B930BE981FA81D0
:1024B00095878487E981FA8189819A81938B828BC0
:1024C00029960FB6F894DEBF0FBECDBFCF91DF9136
:1024D0001F910F910895DF93CF930F92CDB7DEB781
:1024E000198213C08981282F30E0C901880F991FF4
:1024F000880F991F880F991F820F931F865E9C4F2C
:102500000E94F50389818F5F89838981853050F32B
:1025100087E493E00E94F50380E593E00E94F503D1
:102520008DE593E00E94F50386E693E00E94F503B3
:1025300087E493E090935A038093590380E593E0F6
:1025400090935C0380935B030F90CF91DF9108958C
:10255000DF93CF9300D00F92CDB7DEB780910E03FB
:10256000882371F10E94E60E809166031B82882306
:1025700011F481E08B830E94F20E8B81882301F598
:102580000FB6F8940F92E0916B03F0916C03868183
:1025900097819A83898389819A8102960E94E704B0
:1025A00080910F03815080930F0380910E0381501F
:1025B00080930E030F900FBE89819A810E947F1332
:1025C0000F900F900F90CF91DF910895DF93CF93ED
:1025D00000D0CDB7DEB79A838983E0910C03F091E8
:1025E0000D0389819A819383828320911003309116
:1025F000110389819A818217930770F480915B039C
:1026000090915C0320910C0330910D032E5F3F4F9E
:10261000B9010E947B041EC04091590350915A0396
:1026200080910C0390910D039C012E5F3F4FCA01D6
:10263000B9010E947B042091710030917200898160
:102640009A818217930730F489819A81909372005E
:10265000809371000F900F90CF91DF910895DF93D9
:10266000CF93CDB7DEB728970FB6F894DEBF0FBE75
:10267000CDBF9C838B837E836D8381E290E00E943B
:1026800089039A83898389819A81009769F18D8171
:102690009E81009739F48B819C810E9489039887E1
:1026A0008F8304C08D819E8198878F83E981FA8111
:1026B0008F819885908F878BE981FA818789908DAA
:1026C000009739F489819A810E94CF031A82198276
:1026D0000BC0E981FA818789908D2B813C8165EA65
:1026E00070E0A9010E949E1389819A8128960FB6F5
:1026F000F894DEBF0FBECDBFCF91DF910895DF9379
:10270000CF9300D0CDB7DEB79A838983E981FA8170
:102710008789908D0E94CF0389819A810E94CF037F
:102720000F900F90CF91DF910895FB01DC0102C063
:1027300001900D9241505040D8F70895DC0101C03E
:102740006D9341505040E0F70895FB01DC0141508A
:10275000504048F001900D920020C9F701C01D9231
:0C27600041505040E0F70895F894FFCF7E
:10276C005461736B31005461736B320049444C45B6
:04277C0000FFFF005B
:00000001FF
