:100000000C942A000C9447000C9447000C94470071
:100010000C9447000C9447000C9447000C94E8079C
:100020000C9447000C9447000C9447000C94470034
:100030000C9447000C9447000C9447000C94470024
:100040000C9447000C9447000C9447000C94470014
:100050000C94470011241FBECFE5D8E0DEBFCDBF12
:1000600010E0A0E6B0E0E0EFF6E202C005900D92ED
:10007000AE36B107D9F713E0AEE6B0E001C01D928D
:10008000A736B107E1F70E9449000C9476130C944F
:100090000000AF92BF92CF92DF92EF92FF920F9348
:1000A000DF93CF93CDB7DEB7A7E3B0E0E7E3F0E0AF
:1000B000808181608C9320E630E08CE790E0EEE672
:1000C000F0E0B90145E550E020E030E002E07F01DA
:1000D000CC24DD24AA24BB240E946C0C0E94650E53
:1000E00080E090E0CF91DF910F91FF90EF90DF9053
:1000F000CF90BF90AF900895DF93CF9300D0CDB74E
:10010000DEB79A838983A8E3B0E0E8E3F0E080817A
:1001100081608C9380ED97E00E94300EA8E3B0E000
:10012000E8E3F0E080818E7F8C9380ED97E00E9481
:10013000300EE9CFDF93CF93CDB7DEB727970FB659
:10014000F894DEBF0FBECDBF9D838C836E834F833B
:100150008AE190E00E9472039A83898389819A815F
:10016000009709F46FC08091700090917100009722
:1001700041F489819A8190937100809370000E946C
:1001800001038E81823010F081E08E83E981FA8153
:10019000118E108EE981FA818E81868BE981FA8138
:1001A0008F81878BE981FA818C819D819183808306
:1001B00089819A8102960E94080489819A810C960D
:1001C0000E940804E981FA8189819A819187808758
:1001D000E981FA8189819A81938B828B8E81282F84
:1001E00030E085E090E0821B930BE981FA819587EE
:1001F0008487E981FA81968980917200891728F4B1
:10020000E981FA81868980937200E981FA81868981
:10021000282F30E0C901880F991F880F991F880F78
:10022000991F820F931FAC0147585F4F89819A81B4
:100230009C012E5F3F4FCA01B9010E94180481E062
:100240008B8302C08FEF8B838B8127960FB6F89438
:10025000DEBF0FBECDBFCF91DF910895DF93CF9367
:1002600000D000D000D0CDB7DEB79C838B837E83D7
:100270006D8320917300309174008B819C81820F7B
:10028000931F9A83898380917000909171000296E8
:100290000E94D004E0917000F091710089819A81F0
:1002A00093838283209173003091740089819A81B5
:1002B0008217930770F480919F009091A000209185
:1002C0007000309171002E5F3F4FB9010E946404AD
:1002D0000DC080919D0090919E0020917000309102
:1002E00071002E5F3F4FB9010E9464048D819E8191
:1002F000009761F080917000909171009C01245FE3
:100300003F4F8D819E81B9010E94640426960FB6ED
:10031000F894DEBF0FBECDBFCF91DF910895DF937C
:10032000CF9300D0CDB7DEB73AC0F894E091A600E5
:10033000F091A700868197819A83898389819A8128
:100340000C960E94D004789489819A8102960E942A
:10035000D004E981FA81968980917200891728F486
:10036000E981FA81868980937200E981FA81868920
:10037000282F30E0C901880F991F880F991F880F17
:10038000991F820F931FAC0147585F4F89819A8153
:100390009C012E5F3F4FCA01B9010E941804809151
:1003A000A100882309F0C1CF0F900F90CF91DF916A
:1003B0000895DF93CF9300D000D0CDB7DEB70E9471
:1003C0003E0F2091750030917600821B930B909325
:1003D00078008093770085C08091730090917400BD
:1003E00001969093740080937300809177009091B0
:1003F0007800019790937800809377008091730044
:1004000090917400009709F064C080919D009091D4
:100410009E009A83898380919F009091A000909381
:100420009E0080939D0089819A819093A000809383
:100430009F004FC0E0919D00F0919E000580F681E5
:10044000E02D868197819C838B83EB81FC812281C7
:10045000338180917300909174008217930708F4A0
:1004600040C0F8948B819C8102960E94D004EB815D
:10047000FC8184899589009729F08B819C810C9659
:100480000E94D0047894EB81FC819689809172005F
:10049000891728F4EB81FC81868980937200EB81B7
:1004A000FC818689282F30E0C901880F991F880FA9
:1004B000991F880F991F820F931FAC0147585F4FF8
:1004C0008B819C819C012E5F3F4FCA01B9010E9424
:1004D0001804E0919D00F0919E008081882309F02E
:1004E000A9CF8091770090917800009709F074CFA0
:1004F00080917300909174009093760080937500C2
:100500000F900F900F900F90CF91DF910895DF9390
:10051000CF9300D0CDB7DEB70E948F010E94D901E2
:100520000AC080917200882309F466C0809172002D
:1005300081508093720080917200282F30E0C901B1
:10054000880F991F880F991F880F991F820F931F7B
:10055000FC01E758FF4F8081882319F380917200D6
:10056000282F30E0C901880F991F880F991F880F25
:10057000991F820F931F87589F4F9A838983E98120
:10058000FA810180F281E02D82819381E981FA81F3
:1005900092838183E981FA812181328189819A81E3
:1005A00003962817390759F4E981FA810180F2810D
:1005B000E02D82819381E981FA8192838183E981AF
:1005C000FA810180F281E02D8681978190937100FC
:1005D00080937000E0917000F09171004081518132
:1005E0008091700090917100E0917000F091710025
:1005F0002789622FFA0109950F900F90CF91DF9113
:100600000895DF93CF930F92CDB7DEB7198213C051
:100610008981282F30E0C901880F991F880F991F01
:10062000880F991F820F931F87589F4F0E94DE03E8
:1006300089818F5F89838981823050F38BE890E0D4
:100640000E94DE0384E990E00E94DE0381EA90E0EC
:100650000E94DE038BE890E090939E0080939D00C3
:1006600084E990E09093A00080939F000F90CF9139
:10067000DF910895DF93CF9300D000D00F92CDB7D4
:10068000DEB79D838C83EC81FD810580F681E02DB2
:10069000868197819B838A838A819B810C960E94A5
:1006A000D0048A819B819C01245F3F4F81EA90E0C6
:1006B000B9010E941804EA81FB819689E0917000DB
:1006C000F09171008689981718F081E0898301C044
:1006D000198289810F900F900F900F900F90CF91FA
:1006E000DF910895DF93CF9300D000D0CDB7DEB770
:1006F0009C838B831A8219820E94A80E8091AA0083
:100700009091AB002B813C81820F931F22E08835B2
:10071000920718F52091AA003091AB008B819C8143
:10072000280F391F8091AA009091AB008217930780
:10073000A0F48091AA009091AB0084559F4F9A83BA
:1007400089832091AA003091AB008B819C81820F1C
:10075000931F9093AB008093AA000E94B40E8981EE
:100760009A810F900F900F900F90CF91DF91089585
:10077000DF93CF9300D0CDB7DEB79A8389830F90F4
:100780000F90CF91DF910895DF93CF93CDB7DEB770
:100790001092AB001092AA00CF91DF910895DF93E1
:1007A000CF93CDB7DEB72091AA003091AB0088E59A
:1007B00092E0821B930BCF91DF910895DF93CF934B
:1007C00000D0CDB7DEB79A83898389819A81039659
:1007D000E981FA8192838183E981FA818FEF9FEF2A
:1007E0009483838389819A810396E981FA81968330
:1007F000858389819A810396E981FA81908787832D
:10080000E981FA8110820F900F90CF91DF910895C6
:10081000DF93CF9300D0CDB7DEB79A838983E98188
:10082000FA81118610860F900F90CF91DF91089575
:10083000DF93CF9300D000D000D0CDB7DEB79C833C
:100840008B837E836D83EB81FC81818192819A838E
:100850008983E981FA8182819381ED81FE8193838D
:100860008283EB81FC8181819281ED81FE81958380
:100870008483E981FA810280F381E02D8D819E815C
:10088000958384838D819E81E981FA81938382831C
:100890008D819E81EB81FC8192838183ED81FE813C
:1008A0008B819C8191878087EB81FC8180818F5F28
:1008B000EB81FC81808326960FB6F894DEBF0FBED5
:1008C000CDBFCF91DF910895DF93CF93CDB7DEB742
:1008D00028970FB6F894DEBF0FBECDBF9E838D83E1
:1008E00078876F83EF81F885808191819A838983EE
:1008F00089819A812FEF8F3F920739F4ED81FE8134
:10090000878190859C838B8318C08D819E810396FF
:100910009C838B8306C0EB81FC81828193819C83C5
:100920008B83EB81FC810280F381E02D208131817A
:1009300089819A818217930770F7EB81FC8182810C
:100940009381EF81F88593838283EF81F88502801C
:10095000F381E02D8F81988595838483EF81F885DD
:100960008B819C81958384838F819885EB81FC8129
:1009700093838283EF81F8858D819E819187808723
:10098000ED81FE8180818F5FED81FE8180832896DD
:100990000FB6F894DEBF0FBECDBFCF91DF910895A3
:1009A000DF93CF9300D000D0CDB7DEB79C838B838D
:1009B000EB81FC81A281B381EB81FC8184819581F3
:1009C00015969C938E931497EB81FC81A481B5813D
:1009D000EB81FC818281938113969C938E93129775
:1009E000EB81FC81808591859A838983E981FA81F5
:1009F000218132818B819C812817390741F4EB8159
:100A0000FC8184819581E981FA8192838183EB81E4
:100A1000FC8111861086E981FA8180818150E9810B
:100A2000FA8180830F900F900F900F90CF91DF91FC
:100A30000895DF93CF93CDB7DEB728970FB6F8941C
:100A4000DEBF0FBECDBF9C838B837E836D835887B3
:100A50004F83EB81FC8181E180838B819C810197B5
:100A60009C838B83EB81FC8182E280838B819C81E0
:100A700001979C838B83EB81FC8183E380838B8153
:100A80009C8101979C838B838D819E819A8389832E
:100A90008981EB81FC8180838B819C8101979C8380
:100AA0008B8389819A81892F99279A838983898168
:100AB000EB81FC8180838B819C8101979C838B835C
:100AC000EB81FC8110828B819C8101979C838B83BD
:100AD000EB81FC8180E880838B819C8101979C83E2
:100AE0008B83EB81FC8110828B819C8101979C839D
:100AF0008B83EB81FC8182E080838B819C810197D9
:100B00009C838B83EB81FC8183E080838B819C8140
:100B100001979C838B83EB81FC8184E080838B81B4
:100B20009C8101979C838B83EB81FC8185E0808392
:100B30008B819C8101979C838B83EB81FC8186E078
:100B400080838B819C8101979C838B83EB81FC81CB
:100B500087E080838B819C8101979C838B83EB81D1
:100B6000FC8188E080838B819C8101979C838B83AF
:100B7000EB81FC8189E080838B819C8101979C8340
:100B80008B83EB81FC8180E180838B819C81019749
:100B90009C838B83EB81FC8181E180838B819C81B1
:100BA00001979C838B83EB81FC8182E180838B8125
:100BB0009C8101979C838B83EB81FC8183E1808303
:100BC0008B819C8101979C838B83EB81FC8184E1E9
:100BD00080838B819C8101979C838B83EB81FC813B
:100BE00085E180838B819C8101979C838B83EB8142
:100BF000FC8186E180838B819C8101979C838B8320
:100C0000EB81FC8187E180838B819C8101979C83B0
:100C10008B83EB81FC8188E180838B819C810197B0
:100C20009C838B83EB81FC8189E180838B819C8118
:100C300001979C838B83EB81FC8180E280838B8195
:100C40009C8101979C838B83EB81FC8181E2808373
:100C50008B819C8101979C838B83EB81FC8182E259
:100C600080838B819C8101979C838B83EB81FC81AA
:100C700083E280838B819C8101979C838B838F810E
:100C800098859A8389838981EB81FC8180838B811C
:100C90009C8101979C838B8389819A81892F9927D5
:100CA0009A8389838981EB81FC8180838B819C81FC
:100CB00001979C838B83EB81FC8186E280838B810F
:100CC0009C8101979C838B83EB81FC8187E28083ED
:100CD0008B819C8101979C838B83EB81FC8188E2D3
:100CE00080838B819C8101979C838B83EB81FC812A
:100CF00089E280838B819C8101979C838B83EB812C
:100D0000FC8180E380838B819C8101979C838B8312
:100D1000EB81FC8181E380838B819C8101979C83A3
:100D20008B838B819C8128960FB6F894DEBF0FBE13
:100D3000CDBFCF91DF910895DF93CF93CDB7DEB7CD
:100D40000E948C07A0910403B0910503CD91CDBF03
:100D5000DD91DEBFFF91EF91DF91CF91BF91AF9118
:100D60009F918F917F916F915F914F913F912F91C3
:100D70001F910F91FF90EF90DF90CF90BF90AF90B9
:100D80009F908F907F906F905F904F903F902F90AB
:100D90001F900F900FBE0F90089581E0CF91DF91CB
:100DA0000895DF93CF93CDB7DEB7CF91DF9108954C
:100DB0000F920FB6F8940F921F9211242F923F9228
:100DC0004F925F926F927F928F929F92AF92BF925B
:100DD000CF92DF92EF92FF920F931F932F933F9347
:100DE0004F935F936F937F938F939F93AF93BF9333
:100DF000CF93DF93EF93FF93A0910403B09105038A
:100E00000DB60D920EB60D920E944810A0910403EB
:100E1000B0910503CD91CDBFDD91DEBFFF91EF9184
:100E2000DF91CF91BF91AF919F918F917F916F9102
:100E30005F914F913F912F911F910F91FF90EF90F4
:100E4000DF90CF90BF90AF909F908F907F906F90EA
:100E50005F904F903F902F901F900F900FBE0F907C
:100E600008950F920FB6F8940F921F9211242F92AB
:100E70003F924F925F926F927F928F929F92AF922A
:100E8000BF92CF92DF92EF92FF920F931F932F9317
:100E90003F934F935F936F937F938F939F93AF9302
:100EA000BF93CF93DF93EF93FF93A0910403B0918F
:100EB00005030DB60D920EB60D920E94730F0E949F
:100EC0004810A0910403B0910503CD91CDBFDD91F1
:100ED000DEBFFF91EF91DF91CF91BF91AF919F91D5
:100EE0008F917F916F915F914F913F912F911F91C2
:100EF0000F91FF90EF90DF90CF90BF90AF909F90B9
:100F00008F907F906F905F904F903F902F901F90A9
:100F10000F900FBE0F900895DF93CF9300D000D0B5
:100F200000D0CDB7DEB780E49FE1A0E0B0E08B83D6
:100F30009C83AD83BE838B819C81AD81BE8168948F
:100F400015F8B695A795979587951694D1F78B8345
:100F50009C83AD83BE838B819C81AD81BE810197D3
:100F6000A109B1098B839C83AD83BE838B81898367
:100F70008B819C81AD81BE81892F9A2FAB2FBB279E
:100F80008B839C83AD83BE838B818A83EBE4F0E00B
:100F90008A818083EAE4F0E0898180838BE0898321
:100FA000EEE4F0E089818083E9E5F0E080818983E7
:100FB000898180618983E9E5F0E0898180832696D3
:100FC0000FB6F894DEBF0FBECDBFCF91DF9108956D
:100FD0000E9431071895DF93CF93CDB7DEB72897DE
:100FE0000FB6F894DEBF0FBECDBF8F8368871A821D
:100FF00019828F81882309F48CC08FE190E00E94D0
:1010000072039E838D838D819E81009709F481C038
:101010008F81282F30E08885882F90E0AC01249FB5
:10102000C001259F900D349F900D112401969C8343
:101030008B838B819C810E947203ED81FE81918361
:101040008083ED81FE8180819181009709F45DC0EC
:10105000ED81FE81408151818F81282F30E088858C
:10106000882F90E0BC01269FC001279F900D369FDE
:10107000900D1124840F951FED81FE81938382834F
:10108000ED81FE81128EED81FE8180819181ED8165
:10109000FE8195838483ED81FE81408151818F8122
:1010A000882F90E09C01215030408885882F90E067
:1010B000BC01269FC001279F900D369F900D1124E3
:1010C000840F951FED81FE8197838683ED81FE81DC
:1010D0008F81838FED81FE818885848FED81FE81F4
:1010E0008FEF858FED81FE818FEF868F8D819E81C1
:1010F00008960E94DE038D819E8141960E94DE0348
:101100008D819E819A83898304C08D819E810E94F6
:10111000B80389819A8128960FB6F894DEBF0FBE76
:10112000CDBFCF91DF910895DF93CF93CDB7DEB7D9
:101130002C970FB6F894DEBF0FBECDBF9E838D8374
:1011400078876F835A8749872B8719820FB6F8945F
:101150000F92ED81FE81928DED81FE81838D981736
:10116000D8F48D819E812F813885B9014B850E94ED
:10117000CF0AED81FE818189882349F08D819E818E
:1011800041960E94E410813011F40E94D8060F901D
:101190000FBE81E08C875CC089859A85009721F419
:1011A0000F900FBE1C8654C08981882331F4CE0174
:1011B00002960E944C1181E089830F900FBE0E941D
:1011C000A80E0FB6F8940F92ED81FE81858D8F3FAA
:1011D00019F4ED81FE81158EED81FE81868D8F3FA4
:1011E00019F4ED81FE81168E0F900FBECE0102968E
:1011F0009E01275F3F4FB9010E946511882309F5C1
:101200008D819E810E94330C8823A1F08D819E8167
:10121000089629853A85B9010E94AE108D819E817C
:101220000E94AC0B0E94B40E882309F08FCF0E945D
:10123000D8068CCF8D819E810E94AC0B0E94B40E8B
:1012400085CF8D819E810E94AC0B0E94B40E1C86BE
:101250008C852C960FB6F894DEBF0FBECDBFCF9114
:10126000DF910895DF93CF93CDB7DEB729970FB6FF
:10127000F894DEBF0FBECDBF9C838B837E836D83CE
:1012800058874F8329871982EB81FC81928DEB81EE
:10129000FC81838D981740F58B819C812D813E8147
:1012A000B90149850E94CF0AEB81FC81868D8F3F71
:1012B00089F4EB81FC818189882399F08B819C8161
:1012C00041960E94E410882361F0EF81F88581E067
:1012D000808307C0EB81FC81868D8F5FEB81FC8171
:1012E000868F81E08A8301C01A828A8129960FB68F
:1012F000F894DEBF0FBECDBFCF91DF910895DF938D
:10130000CF93CDB7DEB72E970FB6F894DEBF0FBEE2
:10131000CDBF98878F837A8769875C874B872D87B6
:101320001B820FB6F8940F92EF81F885828D882387
:1013300009F43FC0EF81F885868197819A8389837C
:101340008F81988529853A85B9010E94640B8D8526
:101350008823B1F4EF81F885828D8150EF81F88583
:10136000828FEF81F88580858823F1F08F819885C1
:1013700008960E94E4108130B9F40E94D80614C087
:10138000EF81F88589819A8197838683EF81F8853B
:101390008189882349F08F81988541960E94E410C5
:1013A000882311F00E94D8060F900FBE81E08E872F
:1013B0005CC08B859C85009721F40F900FBE1E8624
:1013C00054C08B81882331F4CE0104960E944C11C5
:1013D00081E08B830F900FBE0E94A80E0FB6F89489
:1013E0000F92EF81F885858D8F3F19F4EF81F88595
:1013F000158EEF81F885868D8F3F19F4EF81F88582
:10140000168E0F900FBECE0104969E01255F3F4FB2
:10141000B9010E946511882309F58F8198850E9482
:10142000000C8823A1F08F81988541962B853C85FF
:10143000B9010E94AE108F8198850E94AC0B0E946A
:10144000B40E882309F06DCF0E94D8066ACF8F8131
:1014500098850E94AC0B0E94B40E63CF8F81988553
:101460000E94AC0B0E94B40E1E868E852E960FB67F
:10147000F894DEBF0FBECDBFCF91DF910895DF930B
:10148000CF93CDB7DEB728970FB6F894DEBF0FBE67
:10149000CDBF9C838B837E836D8358874F83198256
:1014A000EB81FC81828D882371F18B819C812D8160
:1014B0003E81B9010E94640BEB81FC81828D8150D9
:1014C000EB81FC81828FEB81FC81858D8F3F89F4DC
:1014D000EB81FC818085882399F08B819C81089623
:1014E0000E94E410882361F0EF81F88581E0808319
:1014F00007C0EB81FC81858D8F5FEB81FC81858F3F
:1015000081E08A8301C01A828A8128960FB6F894F6
:10151000DEBF0FBECDBFCF91DF910895DF93CF9394
:1015200000D00F92CDB7DEB79B838A830FB6F894B5
:101530000F92EA81FB81828D89830F900FBE898192
:101540000F900F900F90CF91DF910895DF93CF937D
:1015500000D00F92CDB7DEB79B838A83EA81FB81EF
:10156000828D898389810F900F900F90CF91DF91A9
:101570000895DF93CF9300D0CDB7DEB79A838983E8
:10158000E981FA81808191810E94B80389819A81E1
:101590000E94B8030F900F90CF91DF910895DF93D1
:1015A000CF9300D000D00F92CDB7DEB79A83898356
:1015B0007C836B834D83E981FA81848D882309F4D0
:1015C00074C08D81882399F5E981FA8164817581E0
:1015D000E981FA81848D482F50E02B813C81CB0139
:1015E000B9010E945713E981FA8124813581E9818B
:1015F000FA81848D882F90E0820F931FE981FA8110
:1016000095838483E981FA8124813581E981FA8196
:10161000828193812817390708F447C0E981FA814C
:1016200080819181E981FA81958384833EC0E9813B
:10163000FA8166817781E981FA81848D482F50E0B3
:101640002B813C81CB01B9010E945713E981FA81BA
:1016500026813781E981FA81848D882F90E09095E9
:1016600081959F4F820F931FE981FA81978386832B
:10167000E981FA8126813781E981FA81808191812E
:101680002817390790F4E981FA8122813381E981B1
:10169000FA81848D882F90E0909581959F4F820FDD
:1016A000931FE981FA8197838683E981FA81828D8C
:1016B0008F5FE981FA81828F0F900F900F900F90CA
:1016C0000F90CF91DF910895DF93CF9300D000D09A
:1016D000CDB7DEB79A8389837C836B83E981FA81F6
:1016E00080819181009789F1E981FA812681378192
:1016F000E981FA81848D882F90E0820F931FE98120
:10170000FA8197838683E981FA8126813781E9818D
:10171000FA81828193812817390740F0E981FA81A3
:1017200080819181E981FA8197838683E981FA81B9
:1017300046815781E981FA81848D282F30E08B81A1
:101740009C81BA01A9010E9457130F900F900F902E
:101750000F90CF91DF910895DF93CF9300D0CDB755
:10176000DEB79A8389830FB6F8940F9215C0E9818A
:10177000FA8181898823A9F089819A8141960E9402
:10178000E410882311F00E94C211E981FA81868D4C
:101790008150E981FA81868FE981FA81868D181658
:1017A00034F3E981FA818FEF868F0F900FBE0FB669
:1017B000F8940F9215C0E981FA8180858823A9F0F9
:1017C00089819A8108960E94E410882311F00E9472
:1017D000C211E981FA81858D8150E981FA81858F75
:1017E000E981FA81858D181634F3E981FA818FEF4A
:1017F000858F0F900FBE0F900F90CF91DF910895BE
:10180000DF93CF9300D00F92CDB7DEB79B838A834F
:101810000FB6F8940F92EA81FB81828D198288239A
:1018200011F481E089830F900FBE89810F900F9092
:101830000F90CF91DF910895DF93CF9300D00F9257
:10184000CDB7DEB79B838A83EA81FB81828D1982C3
:10185000882311F481E0898389810F900F900F9084
:10186000CF91DF910895DF93CF9300D00F92CDB742
:10187000DEB79B838A830FB6F8940F92EA81FB81CF
:10188000928DEA81FB81838D1982981711F481E092
:1018900089830F900FBE89810F900F900F90CF9189
:1018A000DF910895DF93CF9300D00F92CDB7DEB7CD
:1018B0009B838A83EA81FB81928DEA81FB81838D00
:1018C0001982981711F481E0898389810F900F9014
:1018D0000F90CF91DF910895AF92BF92CF92DF9298
:1018E000EF92FF920F931F93DF93CF93CDB7DEB7A5
:1018F00064970FB6F894DEBF0FBECDBF9F838E8373
:10190000798768875B874A873D872C870E87F88AA7
:10191000EF86DA8AC98ABC8AAB8A8A859B8529893F
:101920003A89B9010E94F1129C838B838B819C813F
:10193000009709F499C0EB81FC812789308D8A8555
:101940009B850197820F931F9A8389838B819C814A
:1019500028853985EB89FC89AA85BB85B9014E8527
:101960009F018D010E94D61189819A812E813F812C
:101970004C855D85B9010E941905EB81FC8191833D
:1019800080838F859889009731F0EF85F8898B8166
:101990009C81918380830FB6F8940F928091070306
:1019A0008F5F809307038091040390910503009754
:1019B00069F48B819C81909305038093040380914B
:1019C00007038130A9F40E942D1212C080910C03EC
:1019D000882371F4E0910403F091050396898E85C4
:1019E000891730F08B819C819093050380930403C9
:1019F000EB81FC81968980910A03891728F4EB8199
:101A0000FC81868980930A03809111038F5F809304
:101A10001103EB81FC81968980910B03891728F4CF
:101A2000EB81FC81868980930B03EB81FC818689A5
:101A3000282F30E0C901880F991F880F991F880F40
:101A4000991F820F931FAC014E5E5C4F8B819C816E
:101A50009C012E5F3F4FCA01B9010E94180481E02A
:101A60008D830F900FBE02C08FEF8D838D818130EB
:101A700071F480910C03882351F0E0910403F091FC
:101A8000050396898E85981710F40E94D8068D81DB
:101A900064960FB6F894DEBF0FBECDBFCF91DF9135
:101AA0001F910F91FF90EF90DF90CF90BF90AF907C
:101AB0000895DF93CF9300D000D000D0CDB7DEB72C
:101AC0009C838B830FB6F8940F922091040330917E
:101AD00005038B819C818217930711F41C821B8262
:101AE0008B819C81009739F48091040390910503C8
:101AF0009E838D8304C08B819C819E838D838D8189
:101B00009E819A83898389819A8102960E94D0045A
:101B1000E981FA8184899589009729F089819A81E0
:101B20000C960E94D00489819A819C012E5F3F4FC0
:101B30008EE593E0B9010E941804809106038F5F3F
:101B400080930603809111038F5F809311030F90A0
:101B50000FBE80910C03882331F08B819C8100970C
:101B600011F40E94D80626960FB6F894DEBF0FBE79
:101B7000CDBFCF91DF910895DF93CF93CDB7DEB77F
:101B800028970FB6F894DEBF0FBECDBF9E838D831E
:101B900078876F8319820E94A80EED81FE812081D3
:101BA00031818F819885820F931F9C838B83ED8178
:101BB000FE81208131818091080390910903821771
:101BC0009307A8F4ED81FE81208131818B819C8176
:101BD0008217930700F520910803309109038B8148
:101BE0009C8128173907B8F481E0898314C0ED81FE
:101BF000FE81208131818B819C818217930748F07F
:101C000020910803309109038B819C8128173907A3
:101C100010F481E08983ED81FE818B819C81918329
:101C200080838981882359F0809104039091050372
:101C300002960E94D0048B819C810E94A8120E946F
:101C4000B40E8A838A81882311F40E94D8062896CC
:101C50000FB6F894DEBF0FBECDBFCF91DF910895D0
:101C6000DF93CF9300D000D00F92CDB7DEB79D8326
:101C70008C8319828C819D810097D1F00E94A80EDF
:101C800020910803309109038C819D81820F931F5D
:101C90009B838A83809104039091050302960E949E
:101CA000D0048A819B810E94A8120E94B40E89836D
:101CB0008981882311F40E94D8060F900F900F900D
:101CC0000F900F90CF91DF910895AF92BF92CF9276
:101CD000DF92EF92FF920F93DF93CF930F92CDB7E6
:101CE000DEB726E630E08CEC91E1B90145E550E045
:101CF00020E030E000E0EE24FF24CC24DD24AA2400
:101D0000BB240E946C0C89838981813051F4F89442
:101D100081E080930C0310920903109208030E9443
:101D20009C060F90CF91DF910F91FF90EF90DF9085
:101D3000CF90BF90AF900895DF93CF93CDB7DEB72C
:101D4000F89410920C030E94D106CF91DF91089570
:101D5000DF93CF93CDB7DEB780910D038F5F809374
:101D60000D03CF91DF910895DF93CF9300D000D082
:101D7000CDB7DEB71A820FB6F8940F9280910D039B
:101D8000815080930D0380910D03882309F06CC06E
:101D900080910703882309F467C0198241C0E0914C
:101DA0005A03F0915B03868197819C838B838B819F
:101DB0009C810C960E94D0048B819C8102960E948B
:101DC000D004EB81FC81968980910B03891728F45C
:101DD000EB81FC81868980930B03EB81FC818689F2
:101DE000282F30E0C901880F991F880F991F880F8D
:101DF000991F820F931F8E5E9C4F2B813C812E5F1B
:101E00003F4FB9010E941804EB81FC819689E09153
:101E10000403F09105038689981710F081E0898307
:101E200080915503882309F0BACF80910E0388234F
:101E300071F007C00E94730F80910E038150809350
:101E40000E0380910E038823A9F781E0898389819D
:101E5000813021F080910F03813031F481E08A8359
:101E600010920F030E94D8060F900FBE8A810F9028
:101E70000F900F900F90CF91DF910895DF93CF9344
:101E800000D0CDB7DEB70FB6F8940F92809108035B
:101E9000909109039A8389830F900FBE89819A815B
:101EA0000F900F90CF91DF910895DF93CF9300D0E3
:101EB0000F92CDB7DEB71982809108039091090384
:101EC0009B838A838A819B810F900F900F90CF9183
:101ED000DF910895DF93CF93CDB7DEB780910703ED
:101EE000CF91DF910895DF93CF9300D000D000D041
:101EF000CDB7DEB780910D03882309F0BBC0809178
:101F000008039091090301969093090380930803B5
:101F100080910803909109030097D1F580915103B6
:101F2000909152039C838B8380915303909154032F
:101F300090935203809351038B819C81909354031F
:101F400080935303809110038F5F80931003E0917F
:101F50005103F09152038081882339F48FEF9FEF72
:101F600090936C0080936B0013C0E0915103F0914B
:101F700052030580F681E02D868197819E838D83B3
:101F8000ED81FE818281938190936C0080936B0040
:101F9000209108033091090380916B0090916C00AF
:101FA0002817390708F46BC0E0915103F0915203F0
:101FB0008081882339F48FEF9FEF90936C0080939A
:101FC0006B005DC0E0915103F09152030580F681F2
:101FD000E02D868197819E838D83ED81FE818281B4
:101FE00093819A8389832091080330910903898121
:101FF0009A812817390738F489819A8190936C0067
:1020000080936B003CC08D819E8102960E94D0041B
:10201000ED81FE8184899589009729F08D819E81CB
:102020000C960E94D004ED81FE81968980910B036D
:10203000891728F4ED81FE81868980930B03ED8159
:10204000FE818689282F30E0C901880F991F880FEB
:10205000991F880F991F820F931FAC014E5E5C4F32
:102060008D819E819C012E5F3F4FCA01B9010E9464
:1020700018049ACF80910E038F5F80930E032696EB
:102080000FB6F894DEBF0FBECDBFCF91DF9108959C
:10209000DF93CF9300D0CDB7DEB780910D038823B7
:1020A00049F081E080930F0354C080910B0381506D
:1020B00080930B0380910B03282F30E0C901880F18
:1020C000991F880F991F880F991F820F931FFC017A
:1020D000EE5EFC4F8081882341F380910B03282F13
:1020E00030E0C901880F991F880F991F880F991F29
:1020F000820F931F8E5E9C4F9A838983E981FA81B8
:102100000180F281E02D82819381E981FA819283BD
:102110008183E981FA812181328189819A810396C3
:102120002817390759F4E981FA810180F281E02DFD
:1021300082819381E981FA8192838183E981FA81A5
:102140000180F281E02D8681978190930503809331
:1021500004030F900F90CF91DF910895DF93CF93F9
:1021600000D000D000D0CDB7DEB79C838B837E83B8
:102170006D834B815C8180910403909105039C01E8
:10218000245F3F4FCA01B9010E9464048091040397
:102190009091050302960E94D0042091080330918B
:1021A00009038D819E81820F931F9A838983898180
:1021B0009A810E94A81226960FB6F894DEBF0FBE31
:1021C000CDBFCF91DF910895DF93CF9300D000D0A2
:1021D0000F92CDB7DEB79D838C83EC81FD810580A6
:1021E000F681E02D868197819B838A838A819B81FA
:1021F0000C960E94D00480910D03882361F58A819A
:102200009B8102960E94D004EA81FB81968980918D
:102210000B03891728F4EA81FB81868980930B03DD
:10222000EA81FB818689282F30E0C901880F991F38
:10223000880F991F880F991F820F931FAC014E5E64
:102240005C4F8A819B819C012E5F3F4FCA01B9017F
:102250000E9418040AC08A819B819C01245F3F4F21
:1022600085E593E0B9010E941804EA81FB81968913
:10227000E0910403F09105038689981718F081E036
:10228000898301C0198289810F900F900F900F9060
:102290000F90CF91DF910895DF93CF9300D0CDB70A
:1022A000DEB79A83898380911003E981FA81808364
:1022B0008091080390910903E981FA8192838183D7
:1022C0000F900F90CF91DF910895DF93CF9300D0BF
:1022D00000D00F92CDB7DEB79B838A837D836C835A
:1022E0000FB6F8940F92EA81FB81908180911003E0
:1022F000981771F0EA81FB81218132818091080376
:10230000909109038217930718F081E089832FC009
:102310002091080330910903EA81FB818181928138
:10232000281B390BEC81FD818081918128173907A9
:10233000E0F4EC81FD8140815181EA81FB812181C2
:1023400032818091080390910903B901681B790BD0
:10235000CB01840F951FEC81FD81918380838A815D
:102360009B810E944C11198202C081E089830F90E9
:102370000FBE89810F900F900F900F900F90CF910B
:10238000DF910895DF93CF93CDB7DEB781E08093DF
:102390000F03CF91DF910895DF93CF9300D0CDB796
:1023A000DEB79A8389830E946A12FDCF0F931F9331
:1023B000DF93CF93CDB7DEB729970FB6F894DEBF82
:1023C0000FBECDBF9A8389837C836B834D833F830C
:1023D0002E831987088789819A8149962B813C81B0
:1023E000B90148E050E00E946713E981FA8110A228
:1023F0008D81853010F084E08D83E981FA818D81B3
:10240000868B89819A8102960E94080489819A812B
:102410000C960E940804E981FA8189819A8191874A
:1024200080878D81282F30E085E090E0821B930B20
:10243000E981FA8195878487E981FA8189819A8186
:10244000938B828B29960FB6F894DEBF0FBECDBF5B
:10245000CF91DF911F910F910895DF93CF930F924A
:10246000CDB7DEB7198213C08981282F30E0C901AA
:10247000880F991F880F991F880F991F820F931F2C
:102480008E5E9C4F0E94DE0389818F5F89838981E4
:10249000853050F38FE393E00E94DE0388E493E0FD
:1024A0000E94DE0385E593E00E94DE038EE593E063
:1024B0000E94DE038FE393E09093520380935103D5
:1024C00088E493E090935403809353030F90CF914B
:1024D000DF910895DF93CF9300D00F92CDB7DEB791
:1024E00080910603882371F10E94A80E80915E03FB
:1024F0001B82882311F481E08B830E94B40E8B81B0
:10250000882301F50FB6F8940F92E0916303F091E0
:102510006403868197819A83898389819A8102964F
:102520000E94D0048091070381508093070380911B
:1025300006038150809306030F900FBE89819A8114
:102540000E9441130F900F900F90CF91DF9108954B
:10255000DF93CF9300D0CDB7DEB79A838983E09124
:102560000403F091050389819A81938382832091EA
:1025700008033091090389819A818217930770F4C7
:1025800080915303909154032091040330910503EB
:102590002E5F3F4FB9010E9464041EC04091510359
:1025A0005091520380910403909105039C012E5F8A
:1025B0003F4FCA01B9010E94640420916B00309121
:1025C0006C0089819A818217930730F489819A81FE
:1025D00090936C0080936B000F900F90CF91DF91E0
:1025E0000895DF93CF93CDB7DEB728970FB6F89451
:1025F000DEBF0FBECDBF9C838B837E836D8381E264
:1026000090E00E9472039A83898389819A8100975E
:1026100069F18D819E81009739F48B819C810E94A4
:10262000720398878F8304C08D819E8198878F83E2
:10263000E981FA818F819885908F878BE981FA8172
:102640008789908D009739F489819A810E94B80317
:102650001A8219820BC0E981FA818789908D2B81BA
:102660003C8165EA70E0A9010E94601389819A812A
:1026700028960FB6F894DEBF0FBECDBFCF91DF9185
:102680000895DF93CF9300D0CDB7DEB79A838983C7
:10269000E981FA818789908D0E94B80389819A81A6
:1026A0000E94B8030F900F90CF91DF910895FB0126
:1026B000DC0102C001900D9241505040D8F70895BE
:1026C000DC0101C06D9341505040E0F70895FB01DB
:1026D000DC014150504048F001900D920020C9F7B4
:1026E00001C01D9241505040E0F70895F894FFCF8B
:0E26F0005461736B310049444C4500FFFF00FC
:00000001FF
