:100000000C942A000C9447000C9447000C94470071
:100010000C9447000C9447000C9447000C945C0827
:100020000C9447000C9447000C9447000C94470034
:100030000C9447000C9447000C9447000C94470024
:100040000C9447000C9447000C9447000C94470014
:100050000C94470011241FBECFE5D8E0DEBFCDBF12
:1000600010E0A0E6B0E0E8EDF7E202C005900D92E6
:10007000AA37B107D9F713E0AAE7B0E001C01D9293
:10008000A237B107E1F70E9449000C94EA130C94DF
:100090000000AF92BF92CF92DF92EF92FF920F9348
:1000A000DF93CF9300D000D0CDB7DEB71A8219828C
:1000B00020E630E086EA90E0B90145E550E020E036
:1000C00030E001E0FE0131967F01CC24DD24AA243A
:1000D000BB240E94E00C1C821B822CE630E088EDE1
:1000E00090E0FE013396B90145E550E020E030E0B4
:1000F00002E07F01CC24DD24AA24BB240E94E00C72
:100100000E9494000E94D90E80E090E00F900F9022
:100110000F900F90CF91DF910F91FF90EF90DF90B4
:10012000CF90BF90AF900895DF93CF93CDB7DEB758
:10013000E7E3F0E08FEF8083E4E3F0E01082E5E3B3
:10014000F0E08FEF8083CF91DF910895DF93CF931D
:1001500000D000D000D0CDB7DEB79E838D8382E380
:1001600090E09A8389830E94B20F9C838B83E3E3A0
:10017000F0E08081882F90E081709070009781F48A
:1001800080917A00882341F481E080937A00109274
:10019000760010927A0004C08AE090E00E94A40EDB
:1001A000CE01039629813A81B9010E94300EDFCF3A
:1001B000DF93CF9300D000D000D0CDB7DEB79E83C1
:1001C0008D8382E390E09A8389830E94B20F9C839F
:1001D0008B8380917A008823A9F481E080937A0050
:1001E00080917600882359F4A8E3B0E0E8E3F0E0DA
:1001F000908181E089278C9381E080937600109232
:100200007A0004C08AE090E00E94A40ECE0103961A
:1002100029813A81B9010E94300EDBCFDF93CF9361
:10022000CDB7DEB727970FB6F894DEBF0FBECDBFB0
:100230009D838C836E834F838AE190E00E94E60366
:100240009A83898389819A81009709F46FC080918C
:100250007B0090917C00009741F489819A81909372
:100260007C0080937B000E9475038E81823010F0A9
:1002700081E08E83E981FA81118E108EE981FA8105
:100280008E81868BE981FA818F81878BE981FA8162
:100290008C819D819183808389819A8102960E94BD
:1002A0007C0489819A810C960E947C04E981FA8100
:1002B00089819A8191878087E981FA8189819A81F0
:1002C000938B828B8E81282F30E085E090E0821B1B
:1002D000930BE981FA8195878487E981FA81968970
:1002E00080917D00891728F4E981FA8186898093BD
:1002F0007D00E981FA818689282F30E0C901880FC5
:10030000991F880F991F880F991F820F931FAC01A7
:100310004C575F4F89819A819C012E5F3F4FCA01E4
:10032000B9010E948C0481E08B8302C08FEF8B8324
:100330008B8127960FB6F894DEBF0FBECDBFCF914D
:10034000DF910895DF93CF9300D000D000D0CDB7D8
:10035000DEB79C838B837E836D8320917E003091FA
:100360007F008B819C81820F931F9A838983809168
:100370007B0090917C0002960E944405E0917B00F6
:10038000F0917C0089819A819383828320917E0001
:1003900030917F0089819A818217930770F4809150
:1003A000AA009091AB0020917B0030917C002E5FE1
:1003B0003F4FB9010E94D8040DC08091A8009091D0
:1003C000A90020917B0030917C002E5F3F4FB90146
:1003D0000E94D8048D819E81009761F080917B00FE
:1003E00090917C009C01245F3F4F8D819E81B901DB
:1003F0000E94D80426960FB6F894DEBF0FBECDBF7C
:10040000CF91DF910895DF93CF9300D0CDB7DEB7C2
:100410003AC0F894E091B100F091B20086819781E2
:100420009A83898389819A810C960E9444057894E5
:1004300089819A8102960E944405E981FA81968910
:1004400080917D00891728F4E981FA81868980935B
:100450007D00E981FA818689282F30E0C901880F63
:10046000991F880F991F880F991F820F931FAC0146
:100470004C575F4F89819A819C012E5F3F4FCA0183
:10048000B9010E948C048091AC00882309F0C1CF8F
:100490000F900F90CF91DF910895DF93CF9300D00D
:1004A00000D0CDB7DEB70E94B20F2091800030910E
:1004B0008100821B930B909383008093820085C000
:1004C00080917E0090917F00019690937F008093B1
:1004D0007E00809182009091830001979093830029
:1004E0008093820080917E0090917F00009709F0B8
:1004F00064C08091A8009091A9009A83898380911B
:10050000AA009091AB009093A9008093A8008981E4
:100510009A819093AB008093AA004FC0E091A8000D
:10052000F091A9000580F681E02D868197819C835A
:100530008B83EB81FC812281338180917E009091BD
:100540007F008217930708F440C0F8948B819C8148
:1005500002960E944405EB81FC818489958900976D
:1005600029F08B819C810C960E9444057894EB8144
:10057000FC81968980917D00891728F4EB81FC81AC
:10058000868980937D00EB81FC818689282F30E06D
:10059000C901880F991F880F991F880F991F820F13
:1005A000931FAC014C575F4F8B819C819C012E5F48
:1005B0003F4FCA01B9010E948C04E091A800F0915C
:1005C000A9008081882309F0A9CF809182009091B1
:1005D0008300009709F074CF80917E0090917F0096
:1005E00090938100809380000F900F900F900F9058
:1005F000CF91DF910895DF93CF9300D0CDB7DEB7D1
:100600000E9403020E944D020AC080917D0088234F
:1006100009F466C080917D00815080937D008091B7
:100620007D00282F30E0C901880F991F880F991F7E
:10063000880F991F820F931FFC01EC57FF4F808199
:10064000882319F380917D00282F30E0C901880F9D
:10065000991F880F991F880F991F820F931F8C571E
:100660009F4F9A838983E981FA810180F281E02D8D
:1006700082819381E981FA8192838183E981FA8180
:100680002181328189819A8103962817390759F48B
:10069000E981FA810180F281E02D82819381E981F3
:1006A000FA8192838183E981FA810180F281E02DD0
:1006B0008681978190937C0080937B00E0917B0002
:1006C000F0917C004081518180917B0090917C0071
:1006D000E0917B00F0917C002789622FFA01099557
:1006E0000F900F90CF91DF910895DF93CF930F92EA
:1006F000CDB7DEB7198213C08981282F30E0C90138
:10070000880F991F880F991F880F991F820F931FB9
:100710008C579F4F0E94520489818F5F8983898102
:10072000823050F386E990E00E9452048FE990E015
:100730000E9452048CEA90E00E94520486E990E004
:100740009093A9008093A8008FE990E09093AB006C
:100750008093AA000F90CF91DF910895DF93CF93FC
:1007600000D000D00F92CDB7DEB79D838C83EC8193
:10077000FD810580F681E02D868197819B838A83A8
:100780008A819B810C960E9444058A819B819C01F1
:10079000245F3F4F8CEA90E0B9010E948C04EA810B
:1007A000FB819689E0917B00F0917C008689981707
:1007B00018F081E0898301C0198289810F900F9020
:1007C0000F900F900F90CF91DF910895DF93CF930B
:1007D00000D000D0CDB7DEB79C838B831A821982FC
:1007E0000E941C0F8091B5009091B6002B813C8136
:1007F000820F931F22E08835920718F52091B500EB
:100800003091B6008B819C81280F391F8091B500F3
:100810009091B60082179307A0F48091B500909153
:10082000B60089549F4F9A8389832091B5003091F7
:10083000B6008B819C81820F931F9093B6008093AA
:10084000B5000E94280F89819A810F900F900F9018
:100850000F90CF91DF910895DF93CF9300D0CDB764
:10086000DEB79A8389830F900F90CF91DF9108951F
:10087000DF93CF93CDB7DEB71092B6001092B500DC
:10088000CF91DF910895DF93CF93CDB7DEB720915D
:10089000B5003091B60088E592E0821B930BCF91B2
:1008A000DF910895DF93CF9300D0CDB7DEB79A8361
:1008B000898389819A810396E981FA819283818370
:1008C000E981FA818FEF9FEF9483838389819A81F5
:1008D0000396E981FA819683858389819A810396BB
:1008E000E981FA8190878783E981FA8110820F90EC
:1008F0000F90CF91DF910895DF93CF9300D0CDB7C4
:10090000DEB79A838983E981FA81118610860F9078
:100910000F90CF91DF910895DF93CF9300D000D057
:1009200000D0CDB7DEB79C838B837E836D83EB8154
:10093000FC81818192819A838983E981FA81828114
:100940009381ED81FE8193838283EB81FC818181A0
:100950009281ED81FE8195838483E981FA81028011
:10096000F381E02D8D819E81958384838D819E818D
:10097000E981FA81938382838D819E81EB81FC8161
:1009800092838183ED81FE818B819C819187808719
:10099000EB81FC8180818F5FEB81FC8180832696D7
:1009A0000FB6F894DEBF0FBECDBFCF91DF91089593
:1009B000DF93CF93CDB7DEB728970FB6F894DEBF9D
:1009C0000FBECDBF9E838D8378876F83EF81F885BF
:1009D000808191819A83898389819A812FEF8F3FCA
:1009E000920739F4ED81FE81878190859C838B830A
:1009F00018C08D819E8103969C838B8306C0EB81FA
:100A0000FC81828193819C838B83EB81FC810280BA
:100A1000F381E02D2081318189819A8182179307AA
:100A200070F7EB81FC8182819381EF81F88593835C
:100A30008283EF81F8850280F381E02D8F81988594
:100A400095838483EF81F8858B819C819583848352
:100A50008F819885EB81FC8193838283EF81F88578
:100A60008D819E8191878087ED81FE8180818F5F5E
:100A7000ED81FE81808328960FB6F894DEBF0FBE0D
:100A8000CDBFCF91DF910895DF93CF9300D000D0F9
:100A9000CDB7DEB79C838B83EB81FC81A281B381D0
:100AA000EB81FC818481958115969C938E9314979C
:100AB000EB81FC81A481B581EB81FC8182819381F2
:100AC00013969C938E931297EB81FC818085918580
:100AD0009A838983E981FA81218132818B819C818A
:100AE0002817390741F4EB81FC8184819581E981E4
:100AF000FA8192838183EB81FC8111861086E981E2
:100B0000FA8180818150E981FA8180830F900F9072
:100B10000F900F90CF91DF910895DF93CF93CDB7D2
:100B2000DEB728970FB6F894DEBF0FBECDBF9C830B
:100B30008B837E836D8358874F83EB81FC8181E1BA
:100B400080838B819C8101979C838B83EB81FC81CB
:100B500082E280838B819C8101979C838B83EB81D4
:100B6000FC8183E380838B819C8101979C838B83B1
:100B70008D819E819A8389838981EB81FC81808329
:100B80008B819C8101979C838B8389819A81892F9A
:100B900099279A8389838981EB81FC8180838B816A
:100BA0009C8101979C838B83EB81FC8110828B81DC
:100BB0009C8101979C838B83EB81FC8180E88083FF
:100BC0008B819C8101979C838B83EB81FC811082BC
:100BD0008B819C8101979C838B83EB81FC8182E0DC
:100BE00080838B819C8101979C838B83EB81FC812B
:100BF00083E080838B819C8101979C838B83EB8135
:100C0000FC8184E080838B819C8101979C838B8312
:100C1000EB81FC8185E080838B819C8101979C83A3
:100C20008B83EB81FC8186E080838B819C810197A3
:100C30009C838B83EB81FC8187E080838B819C810B
:100C400001979C838B83EB81FC8188E080838B817F
:100C50009C8101979C838B83EB81FC8189E080835D
:100C60008B819C8101979C838B83EB81FC8180E14C
:100C700080838B819C8101979C838B83EB81FC819A
:100C800081E180838B819C8101979C838B83EB81A5
:100C9000FC8182E180838B819C8101979C838B8383
:100CA000EB81FC8183E180838B819C8101979C8314
:100CB0008B83EB81FC8184E180838B819C81019714
:100CC0009C838B83EB81FC8185E180838B819C817C
:100CD00001979C838B83EB81FC8186E180838B81F0
:100CE0009C8101979C838B83EB81FC8187E18083CE
:100CF0008B819C8101979C838B83EB81FC8188E1B4
:100D000080838B819C8101979C838B83EB81FC8109
:100D100089E180838B819C8101979C838B83EB810C
:100D2000FC8180E280838B819C8101979C838B83F3
:100D3000EB81FC8181E280838B819C8101979C8384
:100D40008B83EB81FC8182E280838B819C81019784
:100D50009C838B83EB81FC8183E280838B819C81EC
:100D600001979C838B838F8198859A83898389815E
:100D7000EB81FC8180838B819C8101979C838B8399
:100D800089819A81892F99279A8389838981EB8127
:100D9000FC8180838B819C8101979C838B83EB8179
:100DA000FC8186E280838B819C8101979C838B836D
:100DB000EB81FC8187E280838B819C8101979C83FE
:100DC0008B83EB81FC8188E280838B819C810197FE
:100DD0009C838B83EB81FC8189E280838B819C8166
:100DE00001979C838B83EB81FC8180E380838B81E3
:100DF0009C8101979C838B83EB81FC8181E38083C1
:100E00008B819C8101979C838B838B819C8128960D
:100E10000FB6F894DEBF0FBECDBFCF91DF9108951E
:100E2000DF93CF93CDB7DEB70E940008A0910F03E8
:100E3000B0911003CD91CDBFDD91DEBFFF91EF9159
:100E4000DF91CF91BF91AF919F918F917F916F91E2
:100E50005F914F913F912F911F910F91FF90EF90D4
:100E6000DF90CF90BF90AF909F908F907F906F90CA
:100E70005F904F903F902F901F900F900FBE0F905C
:100E8000089581E0CF91DF910895DF93CF93CDB79F
:100E9000DEB7CF91DF9108950F920FB6F8940F92BD
:100EA0001F9211242F923F924F925F926F927F92E6
:100EB0008F929F92AF92BF92CF92DF92EF92FF926A
:100EC0000F931F932F933F934F935F936F937F9352
:100ED0008F939F93AF93BF93CF93DF93EF93FF9342
:100EE000A0910F03B09110030DB60D920EB60D92A6
:100EF0000E94BC10A0910F03B0911003CD91CDBF03
:100F0000DD91DEBFFF91EF91DF91CF91BF91AF9166
:100F10009F918F917F916F915F914F913F912F9111
:100F20001F910F91FF90EF90DF90CF90BF90AF9007
:100F30009F908F907F906F905F904F903F902F90F9
:100F40001F900F900FBE0F9008950F920FB6F89458
:100F50000F921F9211242F923F924F925F926F92A5
:100F60007F928F929F92AF92BF92CF92DF92EF9239
:100F7000FF920F931F932F933F934F935F936F9322
:100F80007F938F939F93AF93BF93CF93DF93EF9311
:100F9000FF93A0910F03B09110030DB60D920EB602
:100FA0000D920E94E70F0E94BC10A0910F03B09118
:100FB0001003CD91CDBFDD91DEBFFF91EF91DF91A9
:100FC000CF91BF91AF919F918F917F916F915F91E1
:100FD0004F913F912F911F910F91FF90EF90DF90D4
:100FE000CF90BF90AF909F908F907F906F905F90C9
:100FF0004F903F902F901F900F900FBE0F9008952D
:10100000DF93CF9300D000D000D0CDB7DEB780E41F
:101010009FE1A0E0B0E08B839C83AD83BE838B8196
:101020009C81AD81BE81689415F8B695A79597957A
:1010300087951694D1F78B839C83AD83BE838B8178
:101040009C81AD81BE810197A109B1098B839C83ED
:10105000AD83BE838B8189838B819C81AD81BE8171
:10106000892F9A2FAB2FBB278B839C83AD83BE83A5
:101070008B818A83EBE4F0E08A818083EAE4F0E00C
:10108000898180838BE08983EEE4F0E0898180832D
:10109000E9E5F0E080818983898180618983E9E5E0
:1010A000F0E08981808326960FB6F894DEBF0FBEEC
:1010B000CDBFCF91DF9108950E94A5071895DF93CA
:1010C000CF93CDB7DEB728970FB6F894DEBF0FBE2B
:1010D000CDBF8F8368871A8219828F81882309F494
:1010E0008CC08FE190E00E94E6039E838D838D810A
:1010F0009E81009709F481C08F81282F30E0888578
:10110000882F90E0AC01249FC001259F900D349F53
:10111000900D112401969C838B838B819C810E946E
:10112000E603ED81FE8191838083ED81FE818081E4
:101130009181009709F45DC0ED81FE81408151816C
:101140008F81282F30E08885882F90E0BC01269F72
:10115000C001279F900D369F900D1124840F951F7D
:10116000ED81FE8193838283ED81FE81128EED817C
:10117000FE8180819181ED81FE8195838483ED8163
:10118000FE81408151818F81882F90E09C01215008
:1011900030408885882F90E0BC01269FC001279FA2
:1011A000900D369F900D1124840F951FED81FE81C7
:1011B00097838683ED81FE818F81838FED81FE8110
:1011C0008885848FED81FE818FEF858FED81FE8193
:1011D0008FEF868F8D819E8108960E9452048D81AB
:1011E0009E8141960E9452048D819E819A838983BB
:1011F00004C08D819E810E942C0489819A81289649
:101200000FB6F894DEBF0FBECDBFCF91DF9108952A
:10121000DF93CF93CDB7DEB72C970FB6F894DEBF30
:101220000FBECDBF9E838D8378876F835A87498792
:101230002B8719820FB6F8940F92ED81FE81928D63
:10124000ED81FE81838D9817D8F48D819E812F8149
:101250003885B9014B850E94430BED81FE81818960
:10126000882349F08D819E8141960E9458118130DA
:1012700011F40E944C070F900FBE81E08C875CC078
:1012800089859A85009721F40F900FBE1C8654C063
:101290008981882331F4CE0102960E94C01181E039
:1012A00089830F900FBE0E941C0F0FB6F8940F9207
:1012B000ED81FE81858D8F3F19F4ED81FE81158EC4
:1012C000ED81FE81868D8F3F19F4ED81FE81168EB2
:1012D0000F900FBECE0102969E01275F3F4FB901CE
:1012E0000E94D911882309F58D819E810E94A70C47
:1012F0008823A1F08D819E81089629853A85B901C0
:101300000E9422118D819E810E94200C0E94280F34
:10131000882309F08FCF0E944C078CCF8D819E814E
:101320000E94200C0E94280F85CF8D819E810E94F3
:10133000200C0E94280F1C868C852C960FB6F894E2
:10134000DEBF0FBECDBFCF91DF910895DF93CF9366
:10135000CDB7DEB729970FB6F894DEBF0FBECDBF6D
:101360009C838B837E836D8358874F832987198263
:10137000EB81FC81928DEB81FC81838D981740F588
:101380008B819C812D813E81B90149850E94430B4F
:10139000EB81FC81868D8F3F89F4EB81FC81818913
:1013A000882399F08B819C8141960E945811882353
:1013B00061F0EF81F88581E0808307C0EB81FC81DB
:1013C000868D8F5FEB81FC81868F81E08A8301C0EF
:1013D0001A828A8129960FB6F894DEBF0FBECDBF60
:1013E000CF91DF910895DF93CF93CDB7DEB72E97DE
:1013F0000FB6F894DEBF0FBECDBF98878F837A8774
:1014000069875C874B872D871B820FB6F8940F92F4
:10141000EF81F885828D882309F43FC0EF81F8853C
:10142000868197819A8389838F81988529853A85DA
:10143000B9010E94D80B8D858823B1F4EF81F8851E
:10144000828D8150EF81F885828FEF81F8858085CC
:101450008823F1F08F81988508960E945811813079
:10146000B9F40E944C0714C0EF81F88589819A81F4
:1014700097838683EF81F8858189882349F08F815E
:10148000988541960E945811882311F00E944C07BC
:101490000F900FBE81E08E875CC08B859C85009786
:1014A00021F40F900FBE1E8654C08B81882331F427
:1014B000CE0104960E94C01181E08B830F900FBE75
:1014C0000E941C0F0FB6F8940F92EF81F885858D5E
:1014D0008F3F19F4EF81F885158EEF81F885868DA1
:1014E0008F3F19F4EF81F885168E0F900FBECE0155
:1014F00004969E01255F3F4FB9010E94D9118823B0
:1015000009F58F8198850E94740C8823A1F08F8142
:10151000988541962B853C85B9010E9422118F81C7
:1015200098850E94200C0E94280F882309F06DCF17
:101530000E944C076ACF8F8198850E94200C0E94E0
:10154000280F63CF8F8198850E94200C0E94280F5E
:101550001E868E852E960FB6F894DEBF0FBECDBFC9
:10156000CF91DF910895DF93CF93CDB7DEB7289762
:101570000FB6F894DEBF0FBECDBF9C838B837E83F6
:101580006D8358874F831982EB81FC81828D88237C
:1015900071F18B819C812D813E81B9010E94D80B14
:1015A000EB81FC81828D8150EB81FC81828FEB810C
:1015B000FC81858D8F3F89F4EB81FC8180858823B8
:1015C00099F08B819C8108960E945811882361F0C4
:1015D000EF81F88581E0808307C0EB81FC81858DF8
:1015E0008F5FEB81FC81858F81E08A8301C01A8245
:1015F0008A8128960FB6F894DEBF0FBECDBFCF917B
:10160000DF910895DF93CF9300D00F92CDB7DEB76F
:101610009B838A830FB6F8940F92EA81FB81828DB7
:1016200089830F900FBE89810F900F900F90CF91FB
:10163000DF910895DF93CF9300D00F92CDB7DEB73F
:101640009B838A83EA81FB81828D898389810F90C4
:101650000F900F90CF91DF910895DF93CF9300D03B
:10166000CDB7DEB79A838983E981FA818081918140
:101670000E942C0489819A810E942C040F900F9063
:10168000CF91DF910895DF93CF9300D000D00F92D8
:10169000CDB7DEB79A8389837C836B834D83E981E1
:1016A000FA81848D882309F474C08D81882399F58B
:1016B000E981FA8164817581E981FA81848D482FFD
:1016C00050E02B813C81CB01B9010E94CB13E98111
:1016D000FA8124813581E981FA81848D882F90E017
:1016E000820F931FE981FA8195838483E981FA81CE
:1016F00024813581E981FA81828193812817390714
:1017000008F447C0E981FA8180819181E981FA81F9
:10171000958384833EC0E981FA8166817781E9817E
:10172000FA81848D482F50E02B813C81CB01B90197
:101730000E94CB13E981FA8126813781E981FA8100
:10174000848D882F90E0909581959F4F820F931FF5
:10175000E981FA8197838683E981FA81268137813D
:10176000E981FA81808191812817390790F4E98114
:10177000FA8122813381E981FA81848D882F90E07A
:10178000909581959F4F820F931FE981FA819783EE
:101790008683E981FA81828D8F5FE981FA81828F68
:1017A0000F900F900F900F900F90CF91DF910895B1
:1017B000DF93CF9300D000D0CDB7DEB79A83898373
:1017C0007C836B83E981FA8180819181009789F123
:1017D000E981FA8126813781E981FA81848D882F18
:1017E00090E0820F931FE981FA8197838683E981D4
:1017F000FA8126813781E981FA81828193812817D4
:10180000390740F0E981FA8180819181E981FA818B
:1018100097838683E981FA8146815781E981FA813C
:10182000848D282F30E08B819C81BA01A9010E9410
:10183000CB130F900F900F900F90CF91DF910895E1
:10184000DF93CF9300D0CDB7DEB79A8389830FB6ED
:10185000F8940F9215C0E981FA8181898823A9F053
:1018600089819A8141960E945811882311F00E9423
:101870003612E981FA81868D8150E981FA81868F5D
:10188000E981FA81868D181634F3E981FA818FEFA8
:10189000868F0F900FBE0FB6F8940F9215C0E98196
:1018A000FA8180858823A9F089819A8108960E940F
:1018B0005811882311F00E943612E981FA81858D32
:1018C0008150E981FA81858FE981FA81858D181629
:1018D00034F3E981FA818FEF858F0F900FBE0F905F
:1018E0000F90CF91DF910895DF93CF9300D00F92A7
:1018F000CDB7DEB79B838A830FB6F8940F92EA8147
:10190000FB81828D1982882311F481E089830F90F5
:101910000FBE89810F900F900F90CF91DF910895A6
:10192000DF93CF9300D00F92CDB7DEB79B838A832E
:10193000EA81FB81828D1982882311F481E08983F9
:1019400089810F900F900F90CF91DF910895DF93D1
:10195000CF9300D00F92CDB7DEB79B838A830FB6AB
:10196000F8940F92EA81FB81928DEA81FB81838D4D
:101970001982981711F481E089830F900FBE898135
:101980000F900F900F90CF91DF910895DF93CF9339
:1019900000D00F92CDB7DEB79B838A83EA81FB81AB
:1019A000928DEA81FB81838D1982981711F481E071
:1019B000898389810F900F900F90CF91DF910895C7
:1019C000AF92BF92CF92DF92EF92FF920F931F934D
:1019D000DF93CF93CDB7DEB764970FB6F894DEBF31
:1019E0000FBECDBF9F838E83798768875B874A87C9
:1019F0003D872C870E87F88AEF86DA8AC98ABC8AE7
:101A0000AB8A8A859B8529893A89B9010E94651329
:101A10009C838B838B819C81009709F499C0EB8117
:101A2000FC812789308D8A859B850197820F931FC2
:101A30009A8389838B819C8128853985EB89FC89F0
:101A4000AA85BB85B9014E859F018D010E944A126E
:101A500089819A812E813F814C855D85B9010E94E3
:101A60008D05EB81FC81918380838F859889009718
:101A700031F0EF85F8898B819C81918380830FB64B
:101A8000F8940F92809112038F5F809312038091DC
:101A90000F0390911003009769F48B819C819093C0
:101AA000100380930F03809112038130A9F40E94E8
:101AB000A11212C080911703882371F4E0910F03E3
:101AC000F091100396898E85891730F08B819C8167
:101AD0009093100380930F03EB81FC819689809192
:101AE0001503891728F4EB81FC81868980931503FF
:101AF00080911C038F5F80931C03EB81FC8196898E
:101B000080911603891728F4EB81FC8186898093E4
:101B10001603EB81FC818689282F30E0C901880FEC
:101B2000991F880F991F880F991F820F931FAC016F
:101B3000435E5C4F8B819C819C012E5F3F4FCA01AD
:101B4000B9010E948C0481E08D830F900FBE02C00A
:101B50008FEF8D838D81813071F4809117038823FD
:101B600051F0E0910F03F091100396898E8598173C
:101B700010F40E944C078D8164960FB6F894DEBF76
:101B80000FBECDBFCF91DF911F910F91FF90EF90CE
:101B9000DF90CF90BF90AF900895DF93CF9300D0A8
:101BA00000D000D0CDB7DEB79C838B830FB6F894FE
:101BB0000F9220910F03309110038B819C8182172B
:101BC000930711F41C821B828B819C81009739F44E
:101BD00080910F03909110039E838D8304C08B81AD
:101BE0009C819E838D838D819E819A838983898147
:101BF0009A8102960E944405E981FA818489958937
:101C0000009729F089819A810C960E944405898168
:101C10009A819C012E5F3F4F89E693E0B9010E94B3
:101C20008C04809111038F5F8093110380911C03BA
:101C30008F5F80931C030F900FBE80911703882342
:101C400031F08B819C81009711F40E944C072696FD
:101C50000FB6F894DEBF0FBECDBFCF91DF910895D0
:101C6000DF93CF93CDB7DEB728970FB6F894DEBFDA
:101C70000FBECDBF9E838D8378876F8319820E94AC
:101C80001C0FED81FE81208131818F819885820F2B
:101C9000931F9C838B83ED81FE8120813181809114
:101CA00013039091140382179307A8F4ED81FE812A
:101CB000208131818B819C818217930700F52091CF
:101CC0001303309114038B819C8128173907B8F4D2
:101CD00081E0898314C0ED81FE81208131818B8177
:101CE0009C818217930748F02091130330911403CD
:101CF0008B819C812817390710F481E08983ED815D
:101D0000FE818B819C81918380838981882359F016
:101D100080910F039091100302960E9444058B81DD
:101D20009C810E941C130E94280F8A838A81882329
:101D300011F40E944C0728960FB6F894DEBF0FBE30
:101D4000CDBFCF91DF910895DF93CF9300D000D026
:101D50000F92CDB7DEB79D838C8319828C819D81D4
:101D60000097D1F00E941C0F2091130330911403AF
:101D70008C819D81820F931F9B838A8380910F03A7
:101D80009091100302960E9444058A819B810E94D3
:101D90001C130E94280F89838981882311F40E94D3
:101DA0004C070F900F900F900F900F90CF91DF91F5
:101DB0000895AF92BF92CF92DF92EF92FF920F936E
:101DC000DF93CF930F92CDB7DEB721E730E080E409
:101DD00092E1B90145E550E020E030E000E0EE247A
:101DE000FF24CC24DD24AA24BB240E94E00C898398
:101DF0008981813051F4F89481E080931703109227
:101E00001403109213030E9410070F90CF91DF91DB
:101E10000F91FF90EF90DF90CF90BF90AF9008951B
:101E2000DF93CF93CDB7DEB7F894109217030E94DB
:101E30004507CF91DF910895DF93CF93CDB7DEB7FC
:101E4000809118038F5F80931803CF91DF910895DD
:101E5000DF93CF9300D000D0CDB7DEB71A820FB694
:101E6000F8940F9280911803815080931803809109
:101E70001803882309F06CC080911203882309F4A9
:101E800067C0198241C0E0916503F09166038681C5
:101E900097819C838B838B819C810C960E94440547
:101EA0008B819C8102960E944405EB81FC8196897E
:101EB00080911603891728F4EB81FC818689809331
:101EC0001603EB81FC818689282F30E0C901880F39
:101ED000991F880F991F880F991F820F931F835E88
:101EE0009C4F2B813C812E5F3F4FB9010E948C0497
:101EF000EB81FC819689E0910F03F09110038689B4
:101F0000981710F081E0898380916003882309F09D
:101F1000BACF80911903882371F007C00E94E70FA0
:101F200080911903815080931903809119038823AC
:101F3000A9F781E089838981813021F080911A039A
:101F4000813031F481E08A8310921A030E944C0799
:101F50000F900FBE8A810F900F900F900F90CF912E
:101F6000DF910895DF93CF9300D0CDB7DEB70FB6E2
:101F7000F8940F9280911303909114039A838983AC
:101F80000F900FBE89819A810F900F90CF91DF91B2
:101F90000895DF93CF9300D00F92CDB7DEB71982AB
:101FA00080911303909114039B838A838A819B8180
:101FB0000F900F900F90CF91DF910895DF93CF9303
:101FC000CDB7DEB780911203CF91DF910895DF93F3
:101FD000CF9300D000D000D0CDB7DEB780911803EA
:101FE000882309F0BBC080911303909114030196DC
:101FF000909314038093130380911303909114031F
:102000000097D1F580915C0390915D039C838B8355
:1020100080915E0390915F0390935D0380935C03D6
:102020008B819C8190935F0380935E0380911B035F
:102030008F5F80931B03E0915C03F0915D038081CF
:10204000882339F48FEF9FEF909378008093770087
:1020500013C0E0915C03F0915D030580F681E02DF3
:10206000868197819E838D83ED81FE81828193811C
:10207000909378008093770020911303309114039C
:1020800080917700909178002817390708F46BC089
:10209000E0915C03F0915D038081882339F48FEF38
:1020A0009FEF90937800809377005DC0E0915C0390
:1020B000F0915D030580F681E02D868197819E83F6
:1020C0008D83ED81FE81828193819A838983209122
:1020D00013033091140389819A812817390738F442
:1020E00089819A8190937800809377003CC08D819C
:1020F0009E8102960E944405ED81FE818489958926
:10210000009729F08D819E810C960E944405ED81F7
:10211000FE81968980911603891728F4ED81FE814E
:10212000868980931603ED81FE818689282F30E011
:10213000C901880F991F880F991F880F991F820F57
:10214000931FAC01435E5C4F8D819E819C012E5F8D
:102150003F4FCA01B9010E948C049ACF80911903A4
:102160008F5F8093190326960FB6F894DEBF0FBEDB
:10217000CDBFCF91DF910895DF93CF9300D0CDB73E
:10218000DEB780911803882349F081E080931A0319
:1021900054C08091160381508093160380911603DA
:1021A000282F30E0C901880F991F880F991F880FC9
:1021B000991F820F931FFC01E35EFC4F80818823EF
:1021C00041F380911603282F30E0C901880F991F31
:1021D000880F991F880F991F820F931F835E9C4F52
:1021E0009A838983E981FA810180F281E02D8281DD
:1021F0009381E981FA8192838183E981FA81218146
:10220000328189819A8103962817390759F4E98127
:10221000FA810180F281E02D82819381E981FA8146
:1022200092838183E981FA810180F281E02D8681A8
:1022300097819093100380930F030F900F90CF918D
:10224000DF910895DF93CF9300D000D000D0CDB7B9
:10225000DEB79C838B837E836D834B815C81809111
:102260000F03909110039C01245F3F4FCA01B901F5
:102270000E94D80480910F039091100302960E944F
:10228000440520911303309114038D819E81820FA8
:10229000931F9A83898389819A810E941C132696B1
:1022A0000FB6F894DEBF0FBECDBFCF91DF9108957A
:1022B000DF93CF9300D000D00F92CDB7DEB79D83D0
:1022C0008C83EC81FD810580F681E02D86819781EC
:1022D0009B838A838A819B810C960E94440580910E
:1022E0001803882361F58A819B8102960E94440528
:1022F000EA81FB81968980911603891728F4EA8187
:10230000FB81868980931603EA81FB818689282FC9
:1023100030E0C901880F991F880F991F880F991FF6
:10232000820F931FAC01435E5C4F8A819B819C01AD
:102330002E5F3F4FCA01B9010E948C040AC08A81F6
:102340009B819C01245F3F4F80E693E0B9010E948E
:102350008C04EA81FB819689E0910F03F0911003D0
:102360008689981718F081E0898301C019828981D4
:102370000F900F900F900F900F90CF91DF910895D5
:10238000DF93CF9300D0CDB7DEB79A838983809156
:102390001B03E981FA8180838091130390911403D8
:1023A000E981FA81928381830F900F90CF91DF9121
:1023B0000895DF93CF9300D000D00F92CDB7DEB752
:1023C0009B838A837D836C830FB6F8940F92EA8196
:1023D000FB81908180911B03981771F0EA81FB814A
:1023E0002181328180911303909114038217930706
:1023F00018F081E089832FC02091130330911403DA
:10240000EA81FB8181819281281B390BEC81FD815E
:102410008081918128173907E0F4EC81FD814081AA
:102420005181EA81FB812181328180911303909156
:102430001403B901681B790BCB01840F951FEC8144
:10244000FD81918380838A819B810E94C0111982C2
:1024500002C081E089830F900FBE89810F900F9099
:102460000F900F900F90CF91DF910895DF93CF934E
:10247000CDB7DEB781E080931A03CF91DF91089545
:10248000DF93CF9300D0CDB7DEB79A8389830E94C4
:10249000DE12FDCF0F931F93DF93CF93CDB7DEB73F
:1024A00029970FB6F894DEBF0FBECDBF9A838983FC
:1024B0007C836B834D833F832E83198708878981B3
:1024C0009A8149962B813C81B90148E050E00E94F5
:1024D000DB13E981FA8110A28D81853010F084E050
:1024E0008D83E981FA818D81868B89819A8102961B
:1024F0000E947C0489819A810C960E947C04E98167
:10250000FA8189819A81918780878D81282F30E097
:1025100085E090E0821B930BE981FA81958784879F
:10252000E981FA8189819A81938B828B29960FB6F2
:10253000F894DEBF0FBECDBFCF91DF911F910F91F9
:102540000895DF93CF930F92CDB7DEB7198213C0F2
:102550008981282F30E0C901880F991F880F991FA2
:10256000880F991F820F931F835E9C4F0E94520415
:1025700089818F5F89838981853050F38AE493E074
:102580000E94520483E593E00E94520480E693E0A7
:102590000E94520489E693E00E9452048AE493E088
:1025A00090935D0380935C0383E593E090935F03D6
:1025B00080935E030F90CF91DF910895DF93CF93C7
:1025C00000D00F92CDB7DEB780911103882371F14F
:1025D0000E941C0F809169031B82882311F481E003
:1025E0008B830E94280F8B81882301F50FB6F89406
:1025F0000F92E0916E03F0916F03868197819A8329
:10260000898389819A8102960E94440580911203F0
:1026100081508093120380911103815080931103A4
:102620000F900FBE89819A810E94B5130F900F9071
:102630000F90CF91DF910895DF93CF9300D0CDB766
:10264000DEB79A838983E0910F03F09110038981AB
:102650009A8193838283209113033091140389819B
:102660009A818217930770F480915E0390915F03C3
:1026700020910F03309110032E5F3F4FB9010E944C
:10268000D8041EC040915C0350915D0380910F03FC
:10269000909110039C012E5F3F4FCA01B9010E9427
:1026A000D804209177003091780089819A8182172F
:1026B000930730F489819A81909378008093770012
:1026C0000F900F90CF91DF910895DF93CF93CDB707
:1026D000DEB728970FB6F894DEBF0FBECDBF9C8340
:1026E0008B837E836D8381E290E00E94E6039A8370
:1026F000898389819A81009769F18D819E810097F4
:1027000039F48B819C810E94E60398878F8304C0F3
:102710008D819E8198878F83E981FA818F81988549
:10272000908F878BE981FA818789908D009739F4A2
:1027300089819A810E942C041A8219820BC0E98136
:10274000FA818789908D2B813C8165EA70E0A9012F
:102750000E94D41389819A8128960FB6F894DEBF1F
:102760000FBECDBFCF91DF910895DF93CF9300D0FF
:10277000CDB7DEB79A838983E981FA818789908D05
:102780000E942C0489819A810E942C040F900F9042
:10279000CF91DF910895FB01DC0102C001900D9201
:1027A00041505040D8F70895DC0101C06D9341506D
:1027B0005040E0F70895FB01DC014150504048F0E3
:1027C00001900D920020C9F701C01D924150504068
:0827D000E0F70895F894FFCF33
:1027D8005075736820427574746F6E004C65642080
:0A27E8000049444C450001FFFF00CA
:00000001FF
